:100000000C946A010C940B140C9438140C94651421
:100010000C9492140C9492010C9492010C94BF14C1
:100020000C9492010C9492010C9436120C94BD1213
:100030000C9492010C9492010C9492010C949201F4
:100040000C9492010C9492010C9492010C949201E4
:100050000C9492010C9492010C9492010C94ED1466
:100060000C9492010C94C90B0C94000C0C9492010A
:100070000C9492010C9492010C9492010C949201B4
:100080000C94B50F0C9492010C9492010C94920173
:100090000C9492010C9492010C9492010C94920194
:1000A0000C9492010C9492010C949201080B0002A2
:1000B0000202010009040000010202000005240000
:1000C0001001052401010104240206052406000193
:1000D0000705810310004009040100020A00000026
:1000E00007050202400000070583024000000501E9
:1000F0000902A1010901A1008501050919012903CE
:10010000150025019503750181029501750581038F
:1001100005010930093109381581257F75089503D6
:100120008106C0C005010906A1018502050719E085
:1001300029E71500250175019508810295017508CB
:1001400081039506750815002565050719002965C1
:100150008100C0090402000103000000092101011F
:100160000001226500070584034000010000000033
:10017000000000002A2B2800000000000000000002
:100180000000000000000000000000002C9EB4A051
:10019000A1A2A434A6A7A5AE362D3738271E1F204E
:1001A000212223242526B333B62EB7B89F84858613
:1001B0008788898A8B8C8D8E8F9091929394959657
:1001C0009798999A9B9C9D2F3130A3AD35040506D5
:1001D0000708090A0B0C0D0E0F1011121314151637
:1001E0001718191A1B1C1DAFB1B0B5000403090480
:1001F00041726475696E6F204C656F6E6172646FD9
:100200000041726475696E6F204C4C43001201000E
:10021000020000004041233680000101020001126B
:10022000010002020000404123368000010102006B
:100230000100C18081C100000000240027002A00C5
:100240002D00300000000000250028002B002E00AB
:100250003100000000002300260029002C002F00A0
:10026000040404040403040502020202040302025B
:100270000202060606060606040402020204040838
:10028000020110408040102040804080080204019C
:100290008040201002011080102040400000000229
:1002A00000080E0000030401000B00000000000025
:1002B0000000000000000000000007060504010027
:1002C000080A0B0C0D09BA09C00AB60C0C0D721104
:1002D0003317BC2311241FBECFEFDAE0DEBFCDBF42
:1002E00013E0A0E0B1E0E8E6FFE402C005900D9263
:1002F000A43BB107D9F719E0A4EBB3E001C01D920C
:10030000A930B107E1F712E0C4EDD2E004C02297B2
:10031000FE010E943A27C63CD107C9F70E94EB258F
:100320000C94B2270C940000EF92FF920F931F934E
:100330007B018C0120E030E040E05FE40E9440055A
:1003400088238CF0C801B70120E030E040E05FE492
:100350000E940C030E9459069B01AC0120503040C2
:100360004040504806C0C801B7010E9459069B0191
:10037000AC01B901CA011F910F91FF90EF90089550
:10038000A0E0B0E0E6ECF1E00C940127DC012B01E9
:10039000FA019C91923008F439C1EB0188818230D6
:1003A00008F433C1943069F4843009F02FC11196F8
:1003B0009C9111978981981709F428C1A4E5B2E0AE
:1003C00025C1843009F421C18230A9F4923009F0AA
:1003D0001DC19A01AD0188E0EA010990AE01E90171
:1003E00009929E018150C1F7E201898111969C9189
:1003F0008923818308C1923009F407C112962D9098
:100400003C901397EB018A819B811496AD90BD902F
:10041000CD90DC901797EC80FD800E811F819101BB
:10042000281B390BB90137FF04C066277727621BE9
:10043000730B603271050CF061C0121613066CF577
:1004400037014801062E04C09694879477946794E8
:100450000A94D2F721E030E040E050E004C0220FDF
:10046000331F441F551F6A95D2F72150304040403A
:1004700050402E213F2140235123211531054105B4
:10048000510521F021E030E040E050E079018A019F
:10049000E628F728082919293CC0232BD1F1260E7C
:1004A000371E35014601062E04C096948794779432
:1004B00067940A94D2F721E030E040E050E004C0B5
:1004C000220F331F441F551F6A95D2F72150304029
:1004D000404050402A213B214C215D21211531050E
:1004E0004105510521F021E030E040E050E05901A4
:1004F0006A01A628B728C828D9280BC082159305F9
:100500002CF01C01AA24BB24650103C0EE24FF24A7
:10051000870111969C91D20111968C91981709F43C
:1005200045C0992339F0A80197012A193B094C09C4
:100530005D0906C0A60195012E193F09400B510B1C
:1005400057FD08C01182338222822483358346837B
:1005500057831DC081E081833382228288279927B7
:10056000DC01821B930BA40BB50B84839583A683BC
:10057000B7830DC0220F331F441F551F24833583BB
:100580004683578382819381019793838283248159
:10059000358146815781DA01C9010197A109B10965
:1005A0008F5F9F4FAF4FBF4328F30BC091833382C0
:1005B0002282EA0CFB1C0C1D1D1DE482F5820683C1
:1005C000178383E08083248135814681578157FFDB
:1005D0001AC0C901AA2797FDA095BA2F8170907003
:1005E000A070B0705695479537952795822B932B21
:1005F000A42BB52B84839583A683B78382819381B3
:10060000019693838283DF0101C0D201CD01CDB772
:10061000DEB7E2E10C941D27A0E2B0E0E2E1F3E0F6
:100620000C940D2769837A838B839C832D833E836F
:100630004F835887E9E0EE2EF12CEC0EFD1ECE0123
:100640000196B7010E944A088E010F5E1F4FCE012E
:100650000596B8010E944A088A8991E089278A8B09
:10066000C701B801AE01475E5F4F0E94C0010E9402
:100670007507A096E6E00C942927A0E2B0E0E3E439
:10068000F3E00C940D2769837A838B839C832D83FD
:100690003E834F835887F9E0EF2EF12CEC0EFD1EC0
:1006A000CE010196B7010E944A088E010F5E1F4FCE
:1006B000CE010596B8010E944A08C701B801AE01F3
:1006C000475E5F4F0E94C0010E947507A096E6E05A
:1006D0000C942927A0E2B0E0E0E7F3E00C940127B6
:1006E00069837A838B839C832D833E834F835887D2
:1006F000CE010196BE01675F7F4F0E944A08CE017E
:100700000596BE016F5E7F4F0E944A089985923020
:1007100088F089898230C8F0943019F4823051F41D
:1007200004C0843029F4923081F484E592E0C6C09C
:10073000923049F420E09A858A89981321E02A872B
:10074000CE010996BBC0823049F420E09A858A899F
:10075000981321E02A8BCE014196B0C02D843E84AF
:100760004F8458886D887E888F88988CEE24FF246B
:100770008701AA24BB24650140E050E060E070E0FE
:10078000E0E0F0E0C10181709070892BE9F0E60CA7
:10079000F71C081D191D9A01AB012A0D3B1D4C1DAC
:1007A0005D1D80E090E0A0E0B0E0E614F7040805ED
:1007B000190520F481E090E0A0E0B0E0BA01A901C1
:1007C000480F591F6A1F7B1FAA0CBB1CCC1CDD1CC9
:1007D00097FE08C081E090E0A0E0B0E0A82AB92A26
:1007E000CA2ADB2A3196E032F10549F0660C771C03
:1007F000881C991C5694479437942794C3CFFA8544
:10080000EA892B893C898B859C85280F391F2E5FAF
:100810003F4F17C0CA0181709070892B61F0169507
:100820000795F794E79480E090E0A0E0B0E8E82A2C
:10083000F92A0A2B1B2B76956795579547952F5FBD
:100840003F4F77FDE7CF0CC0440F551F661F771F42
:1008500017FD4160EE0CFF1C001F111F215030409E
:10086000403090E0590790E0690790E4790760F321
:100870002B8F3C8FDB01CA018F779070A070B07016
:1008800080349105A105B10561F447FD0AC0E1146A
:10089000F1040105110529F0405C5F4F6F4F7F4F58
:1008A00040781A8EFE1711F081E08A8F4D8F5E8F8F
:1008B0006F8F78A383E0898FCE0149960E947507D8
:1008C000A096E2E10C941D27A8E1B0E0EAE6F4E08E
:1008D0000C94092769837A838B839C832D833E83C1
:1008E0004F835887B9E0EB2EF12CEC0EFD1ECE01A4
:1008F0000196B7010E944A088E010F5E1F4FCE017C
:100900000596B8010E944A082985223008F47EC065
:100910003989323010F4B8017CC08A859A898927D8
:100920008A87243011F0223031F4231709F06EC089
:1009300064E572E06EC0343039F41D861E861F8671
:10094000188A1C861B8604C0323021F484E0898713
:10095000B7015FC02B853C858B899C89281B390B8F
:100960003C872B87ED84FE840F851889AD88BE886F
:10097000CF88D88CEA14FB040C051D0540F4EE0C5E
:10098000FF1C001F111F215030403C872B8720E0A7
:1009900030E040E050E080E090E0A0E0B0E460E0D3
:1009A00070E0EA14FB040C051D0540F0282B392BE0
:1009B0004A2B5B2BEA18FB080C091D09B695A79575
:1009C00097958795EE0CFF1C001F111F6F5F7F4FDF
:1009D0006F31710531F7DA01C9018F779070A0701E
:1009E000B07080349105A105B10561F427FD0AC0FE
:1009F000E114F1040105110529F0205C3F4F4F4F30
:100A00005F4F20782D873E874F87588BBE01675FE9
:100A10007F4FCB010E9475076896EAE00C9425276A
:100A2000A8E1B0E0E6E1F5E00C940D2769837A8354
:100A30008B839C832D833E834F83588789E0E82EE8
:100A4000F12CEC0EFD1ECE010196B7010E944A0862
:100A50008E010F5E1F4FCE010596B8010E944A0815
:100A60008985823040F08989823028F0C701B80139
:100A70000E94C20801C08FEF6896E6E00C94292717
:100A8000A8E1B0E0E6E4F5E00C940D2769837A83F1
:100A90008B839C832D833E834F83588789E0E82E88
:100AA000F12CEC0EFD1ECE010196B7010E944A0802
:100AB0008E010F5E1F4FCE010596B8010E944A08B5
:100AC0008985823040F08989823028F0C701B801D9
:100AD0000E94C20801C08FEF6896E6E00C942927B7
:100AE000A8E1B0E0E6E7F5E00C940D2769837A838E
:100AF0008B839C832D833E834F83588789E0E82E28
:100B0000F12CEC0EFD1ECE010196B7010E944A08A1
:100B10008E010F5E1F4FCE010596B8010E944A0854
:100B20008985823040F08989823028F0C701B80178
:100B30000E94C20801C081E06896E6E00C94292773
:100B4000A8E1B0E0E6EAF5E00C940D2769837A832A
:100B50008B839C832D833E834F83588789E0E82EC7
:100B6000F12CEC0EFD1ECE010196B7010E944A0841
:100B70008E010F5E1F4FCE010596B8010E944A08F4
:100B80008985823040F08989823028F0C701B80118
:100B90000E94C20801C081E06896E6E00C94292713
:100BA000A8E1B0E0E6EDF5E00C94112769837A83C3
:100BB0008B839C832D833E834F835887CE01019680
:100BC000BE01675F7F4F0E944A08CE010596BE01B5
:100BD0006F5E7F4F0E944A088985823028F020E0AE
:100BE00030E08989823010F421E030E0822F68966D
:100BF000E2E00C942D27A8E0B0E0E1E0F6E00C94F0
:100C00000A279B01AC0183E08983DA01C9018827A7
:100C1000B7FD83959927AA27BB27B82E2115310543
:100C20004105510519F482E089833AC08823A9F06F
:100C3000203080E0380780E0480780E8580729F432
:100C400060E070E080E09FEC30C0EE24FF2487017C
:100C5000E21AF30A040B150B02C079018A018EE136
:100C6000C82ED12CDC82CB82ED82FE820F831887C6
:100C7000C801B7010E94260701971816190684F4C7
:100C8000082E04C0EE0CFF1C001F111F0A94D2F79F
:100C9000ED82FE820F831887C81AD90ADC82CB82C4
:100CA000BA82CE0101960E9475072896E9E00C945D
:100CB0002627ACE0B0E0EFE5F6E00C94112769835D
:100CC0007A838B839C83CE010196BE016B5F7F4F3D
:100CD0000E944A088D81823061F1823050F1843067
:100CE00021F48E81882351F12EC02F81388537FD64
:100CF00020C06E812F3131051CF06623F9F023C02E
:100D00008EE190E0821B930B29853A854B855C85AB
:100D100004C056954795379527958A95D2F766234F
:100D2000B1F050954095309521953F4F4F4F5F4F13
:100D30000EC020E030E040E050E009C02FEF3FEF70
:100D40004FEF5FE704C020E030E040E050E8B90139
:100D5000CA012C96E2E00C942D27A8E0B0E0E3EB6A
:100D6000F6E00C9409277B018C0161157105810562
:100D7000910519F482E0898360C083E089838EE164
:100D8000C82ED12CDC82CB82ED82FE820F831887A5
:100D9000C801B7010E942607FC013197F7FF3BC04D
:100DA000222733272E1B3F0B57016801022E04C058
:100DB000D694C794B794A7940A94D2F740E050E031
:100DC00060E070E081E090E0A0E0B0E004C0880F57
:100DD000991FAA1FBB1F2A95D2F70197A109B10934
:100DE0008E219F21A023B1230097A105B10521F0F9
:100DF00041E050E060E070E04A295B296C297D29E0
:100E00004D835E836F8378878EE190E08E1B9F0B0E
:100E10009C838B8312C0309781F00E2E04C0EE0CA1
:100E2000FF1C001F111F0A94D2F7ED82FE820F8370
:100E30001887CE1ADF0ADC82CB821A82CE01019695
:100E40000E9475072896EAE00C942527EF92FF92FE
:100E50000F931F937B018C0180E0E81680E0F80679
:100E600081E0080780E0180788F48FEFE816F104A6
:100E70000105110531F028F088E090E0A0E0B0E035
:100E800017C080E090E0A0E0B0E012C080E0E8167B
:100E900080E0F80680E0080781E0180728F088E184
:100EA00090E0A0E0B0E004C080E190E0A0E0B0E01D
:100EB00020E230E040E050E0281B390B4A0B5B0B8E
:100EC00004C016950795F794E7948A95D2F7F70131
:100ED000E45AFD4F8081281B310941095109C9019C
:100EE0001F910F91FF90EF900895DF92EF92FF9284
:100EF0000F931F93FC01E480F58006811781D18058
:100F00008081823048F480E090E0A0E1B0E0E82AFF
:100F1000F92A0A2B1B2BA5C0843009F49FC082300C
:100F200021F4EE24FF24870105C0E114F10401053A
:100F3000110519F4E0E0F0E096C0628173819FEF43
:100F4000623879070CF05BC022E83FEF261B370BB5
:100F50002A3131052CF020E030E040E050E02AC09A
:100F6000B801A701022E04C076956795579547955D
:100F70000A94D2F781E090E0A0E0B0E004C0880FCE
:100F8000991FAA1FBB1F2A95D2F70197A109B10982
:100F90008E219F21A023B1230097A105B10521F047
:100FA00081E090E0A0E0B0E09A01AB01282B392B62
:100FB0004A2B5B2BDA01C9018F779070A070B0705B
:100FC00080349105A105B10539F427FF09C0205CE3
:100FD0003F4F4F4F5F4F04C0215C3F4F4F4F5F4F1C
:100FE000E0E0F0E02030A0E03A07A0E04A07A0E40B
:100FF0005A0710F0E1E0F0E079018A0127C060387B
:10100000710564F5FB01E158FF4FD801C7018F77E7
:101010009070A070B07080349105A105B10539F4CD
:10102000E7FE0DC080E490E0A0E0B0E004C08FE3F4
:1010300090E0A0E0B0E0E80EF91E0A1F1B1F17FFAA
:1010400005C016950795F794E794319687E01695B5
:101050000795F794E7948A95D1F705C0EE24FF240D
:101060008701EFEFF0E06E2F679566276795902F69
:101070009F77D794DD24D7948E2F8695492F462BC2
:10108000582F5D29B701CA011F910F91FF90EF9072
:10109000DF900895FC01DB01408151812281622FA4
:1010A0006F7770E0221F2227221F9381892F880FDC
:1010B000822B282F30E0991F9927991F11969C9316
:1010C000119721153105A9F54115510561057105E6
:1010D00011F482E037C082E89FEF13969C938E93C1
:1010E00012979A01AB0167E0220F331F441F551F6F
:1010F0006A95D1F783E08C930DC0220F331F441FF4
:10110000551F12968D919C911397019713969C935E
:101110008E931297203080E0380780E0480780E403
:10112000580758F314962D933D934D935C9317975E
:1011300008952F3F310579F4411551056105710579
:1011400019F484E08C93089564FF03C081E08C93CC
:1011500012C01C9210C02F57304013963C932E9310
:10116000129783E08C9387E0440F551F661F771F0B
:101170008A95D1F7706414964D935D936D937C932B
:10118000179708951F93DC01FB019C91923008F49E
:1011900047C08081823008F443C0943051F41196E6
:1011A0001C91843099F58181682F70E0611B710971
:1011B0003FC0843021F0923031F48230B9F1818126
:1011C000882389F12DC011961C9111978230F1F07E
:1011D00081811817D9F412962D913C911397828131
:1011E00093818217930794F028173907BCF014965F
:1011F0008D919D910D90BC91A02D248135814681CA
:101200005781281739074A075B0718F4112341F063
:101210000AC082179307A407B50740F4112319F0F9
:1012200061E070E005C06FEF7FEF02C060E070E04A
:10123000CB011F910895FC0188279927E8942191FB
:101240002032E9F3293010F02E30C8F32B3241F070
:101250002D3239F4689404C00E947709820F911DE1
:10126000219120532A30C0F31EF4909581959F4F11
:10127000089544EB53E00E9445090895FB01DC0109
:1012800001900D920020E1F70895009731F4DA0102
:101290008D919C91009709F40EC0DC01FB013D91FA
:1012A0002191222319F03217C9F3FACF332331F4F5
:1012B000DA011D921C928827992708951197AF9300
:1012C000BF93FB013D912191321771F4332321F437
:1012D00088279927119702C01E921196FA01A193AF
:1012E000B0839F918F910895222369F7EACF7AE026
:1012F000979F902D879F802D910D1124089508951B
:10130000FC012485858530E0205C3F4F281B310996
:101310002F733070C9010895FC0194858585981755
:1013200019F42FEF3FEF06C08585E80FF11D868584
:10133000282F30E0C9010895DC011C969C911C9770
:101340001D968C911D97981719F42FEF3FEF10C041
:101350001D968C911D97FD01E80FF11D96851D9638
:101360008C911D978F5F8F731D968C93292F30E082
:10137000C90108951092B9031092B80388EE93E062
:10138000A0E0B0E08093BA039093BB03A093BC03AA
:10139000B093BD0381E793E09093B7038093B603C6
:1013A00008950F931F93DF93CF930F92CDB7DEB7BE
:1013B0008C01698380916303882369F083E0BE0117
:1013C0006F5F7F4F41E050E00E949111181619069F
:1013D00014F49C0107C081E090E0F80193838283BC
:1013E00020E030E0C9010F90CF91DF911F910F9164
:1013F000089583E00E94681108950F931F93CF937F
:10140000DF938C01FC010FC082E00E944E109C0112
:10141000FFEF8F3F9F0799F0F8018485E80FF11DDA
:101420002687F801C4878485C82FD0E02196CF7322
:10143000D070F801858590E0C817D90729F7DF91AA
:10144000CF911F910F910895FC0180818E5F808361
:1014500080E86CEA70E042E450E00E946710089572
:10146000FC0181819081913A59F4813209F04CC09C
:1014700080E06CE573E047E050E00E94671042C0F6
:10148000913209F041C0803239F48CE593E067E095
:1014900070E00E94501136C0823209F035C082815E
:1014A0008093630380915C0390915D03A0915E0340
:1014B000B0915F03805B9440A040B04019F58091EB
:1014C000630380FD12C087E797E79093010880933C
:1014D00000082BE088E190E00FB6F894A89580937F
:1014E00060000FBE209360000DC088E10FB6F89435
:1014F00080936000109260000FBEA89510920108C2
:101500001092000881E0089580E00895FC01918127
:101510008081813A31F4913089F080E0933089F410
:101520000DC0813269F49B3021F482818093640381
:1015300005C09A3029F482818093650381E0089583
:1015400080E00895EF92FF920F931F938C01E62E97
:10155000DC01ED91FC910480F581E02D0995F82ED8
:10156000D801ED91FC910680F781E02DC8016E2D28
:1015700009958F2D90E01F910F91FF90EF900895A6
:1015800010920404109208041092070483E893E078
:1015900090930604809305040895EF92FF920F93B1
:1015A0001F93DF93CF930F92CDB7DEB789838B0163
:1015B0007A0184E0BE016F5F7F4F41E050E00E94FE
:1015C000911184E4B801A7010E9491110F90CF916D
:1015D000DF911F910F91FF90EF90089582E048E016
:1015E00050E00E94CD0A0895FC01168217821086F1
:1015F00011861286138614823496BF010E94EE0A69
:101600000895DC01683810F0685829C0E62FF0E032
:1016100067FF13C0E058F04081E090E002C0880FFF
:10162000991FEA95E2F7809514962C911497282338
:1016300014962C93149760E012C0E459FE4F649105
:10164000662319F420E030E01DC067FF08C014963F
:101650008C9114978D7F14968C9314976F77FD015E
:1016600090E0662321F08681861709F416829F5F39
:1016700031969630B1F7CD011496BD010E94EE0A65
:1016800021E030E0C9010895CF93DF93DC01683891
:1016900010F0685825C0E62FF0E067FF12C0E05850
:1016A000F04081E090E002C0880F991FEA95E2F7D0
:1016B00014962C911497282B14962C93149760E071
:1016C0000FC0E459FE4F64916623D9F167FF08C04B
:1016D00014968C911497826014968C9314976F775C
:1016E00016968C9116978617A9F117968C911797D5
:1016F000861781F118968C911897861759F11996CB
:101700008C911997861731F11A968C911A97861732
:1017100009F11B968C911B978617E1F0ED01E0E033
:10172000F0E09E2F8E81882321F4EA0FFB1F668351
:1017300006C09F5F31962196E630F10591F796300D
:1017400049F481E090E013969C938E93129720E0E9
:1017500030E007C0CD011496BD010E94EE0A21E0E1
:1017600030E0C901DF91CF91089580E86EEE70E01E
:1017700045E650E00E9467100895FC0180818F5F6C
:10178000808380E863E571E049E150E00E946710E2
:1017900008951F920F920FB60F9211242F933F932B
:1017A0004F938F939F93EF93FF938091C80082FD97
:1017B00019C04091CE0080912F04282F30E02F5F78
:1017C0003F4F2F7330708091300490E02817390715
:1017D00059F0E0912F04F0E0EF5EFB4F42A320931D
:1017E0002F0402C08091CE00FF91EF919F918F91C5
:1017F0004F913F912F910F900FBE0F901F90189512
:101800001F920F920FB60F9211242F938F939F93D5
:10181000EF93FF939091310480913204981731F443
:101820008091C9008F7D8093C90010C0E09132047F
:10183000F0E0ED58FB4F20818091320490E001965A
:101840008F739070809332042093CE00FF91EF91BC
:101850009F918F912F910F900FBE0F901F90189511
:10186000FC01268D878D30E0205C3F4F281B31091D
:101870002F733070C9010895FC01968D878D9817DC
:1018800019F42FEF3FEF06C0878DE80FF11D82A1FD
:10189000282F30E0C9010895DC015E969C915E9787
:1018A0005F968C915F97981719F42FEF3FEF10C058
:1018B0005F968C915F97FD01E80FF11D92A15F96F5
:1018C0008C915F978F5F8F735F968C93292F30E099
:1018D000C9010895DC015D968C915D97882339F0EC
:1018E0005096ED91FC915197808186FFF9CF5D96DE
:1018F0001C920895DC0190968C919097282F30E0EF
:101900002F5F3F4F2F73307091968C91919790E09D
:1019100028173907C9F390968C919097FD01E80F2D
:10192000F11DEE59FF4F608390962C93909752963D
:10193000ED91FC915397208181E090E05B960C90B3
:101940005B9702C0880F991F0A94E2F7282B208327
:1019500081E05D968C935D975096ED91FC91519747
:1019600080818064808381E090E008951092140467
:101970001092130488EE93E0A0E0B0E08093150489
:1019800090931604A0931704B093180481E993E090
:1019900090931204809311041092320480913204C7
:1019A00080933104109230048091300480932F048E
:1019B0008DEC90E090931E0480931D048CEC90E0DD
:1019C0009093200480931F0488EC90E0909322046D
:1019D0008093210489EC90E0909324048093230465
:1019E0008AEC90E090932604809325048EEC90E09E
:1019F000909328048093270484E08093290483E053
:101A000080932A0487E080932B0485E080932C0444
:101A100081E080932D04089581EA93E09093B404CB
:101A20008093B3041092B5041092B6041092B704D8
:101A30001092B80408958F929F92AF92BF92CF9266
:101A4000DF92EF92FF920F931F93CF93DF934C019E
:101A50006B017C01AA24BB24C0E0D0E0C601F701E1
:101A600062814AE050E00E943E0E8C01C6016EE2A7
:101A70000E94870D080F191FA00EB11E2196089411
:101A8000E11CF11CC330D10549F7C601F4016581A1
:101A90004AE050E00E943E0E9501280F391FC9010F
:101AA000DF91CF911F910F91FF90EF90DF90CF903A
:101AB000BF90AF909F908F900895CF92DF92EF925A
:101AC000FF920F931F93CF93DF937C016B018A01E9
:101AD000C0E0D0E00FC0D6016D916D01D701ED914E
:101AE000FC910190F081E02DC7010995C80FD91F25
:101AF000015010400115110571F7CE01DF91CF9112
:101B00001F910F91FF90EF90DF90CF900895DC012F
:101B1000ED91FC910190F081E02D09950895EF92EF
:101B2000FF920F931F938C01DC01ED91FC910190CA
:101B3000F081E02D6DE009957C01D801ED91FC91DB
:101B40000190F081E02DC8016AE009959C012E0DFD
:101B50003F1DC9011F910F91FF90EF900895CF9302
:101B6000DF93EC016115710519F420E030E00FC03E
:101B7000DB010D900020E9F71197A61BB70BE88158
:101B8000F9810280F381E02DAD0109959C01C90125
:101B9000DF91CF9108954F925F927F928F929F92A3
:101BA000AF92BF92CF92DF92EF92FF920F931F936B
:101BB000DF93CF93CDB7DEB7A1970FB6F894DEBF12
:101BC0000FBECDBF2C01742ECB01223008F42AE0C9
:101BD00019A231E2C32ED12CCC0EDD1E822E992407
:101BE000AA24BB24672D752FA50194010E94DF262E
:101BF00079018A01C801B701A50194010E94C0269C
:101C0000472D461B0894C108D1084A3014F4405DA2
:101C100001C0495CF6014083E114F104010511059E
:101C200021F07E2C5F2DC801DDCFC201B6010E94DC
:101C3000AF0DA1960FB6F894DEBF0FBECDBFCF910A
:101C4000DF911F910F91FF90EF90DF90CF90BF90A9
:101C5000AF909F908F907F905F904F900895DC01A0
:101C60002115310541F4ED91FC910190F081E02DB9
:101C7000642F099508950E94CB0D0895EF92FF926D
:101C80000F931F939A01E62EFF2400E010E0B801A5
:101C9000A7010E942F0E1F910F91FF90EF900895C2
:101CA000CF92DF92EF92FF920F931F93CF93DF9328
:101CB000EC016A017B012115310541F4E881F981CC
:101CC0000190F081E02D642F09951FC02A30310565
:101CD000D1F477FF17C0E881F9810190F081E02D00
:101CE0006DE209958C0144275527BA014C195D090D
:101CF0006E097F09CE012AE00E94CB0D9801280FC2
:101D0000391F04C02AE00E94CB0D9C01C901DF915C
:101D1000CF911F910F91FF90EF90DF90CF9008959A
:101D2000EF92FF920F931F937B019A010027F7FC1C
:101D30000095102FB801A7010E94500E1F910F911E
:101D4000FF90EF9008950E94AF0D08957F928F92BB
:101D50009F92AF92BF92CF92DF92EF92FF920F933A
:101D60001F93CF93DF934C017A018B01722ECB012D
:101D7000BA01A80197010E94D005882321F0C4016F
:101D800060E071E021C0C0E0D0E057016801E89454
:101D9000D7F8C601B5012FEF3FEF4FE75FE70E948D
:101DA000D005882351F4C601B5012FEF3FEF4FE76F
:101DB0005FE70E94A005181614F0C1E0D0E021975B
:101DC00039F0C40164E071E00E94AF0DEC0193C0F2
:101DD000C801B7012FEF3FEF4FE75FE40E94100506
:101DE000181654F0C801B7012FEF3FEF4FE75FEC33
:101DF0000E947005882324F4C40168E071E0E4CFF8
:101E0000C801B70120E030E040E050E00E947005DA
:101E100087FD03C0C0E0D0E00EC0D401ED91FC917D
:101E20000190F081E02DC4016DE20995EC0117FBF2
:101E3000109517F9109520E030E040E05FE3DD24D5
:101E40000BC0CA01B90120E030E040E251E40E9439
:101E500064049B01AC01D394D71498F3C801B70173
:101E60000E943D035B016C010E9494017B018C0187
:101E7000C401B801A7012AE030E00E942F0EC80F6C
:101E8000D91F772039F0C4016CE071E00E94AF0DDA
:101E9000C80FD91FC801B7010E94AD069B01AC0154
:101EA000C601B5010E940C0324C020E030E040E2EE
:101EB00051E40E946A037B018C010E9459065B0178
:101EC0006C01CC24B7FCC094DC2CC401B601A50184
:101ED0002AE030E00E94500EC80FD91FC601B5019C
:101EE0000E94FB059B01AC01C801B7010E940C03D5
:101EF0007A947720D1F6CE01DF91CF911F910F9187
:101F0000FF90EF90DF90CF90BF90AF909F908F9019
:101F10007F9008950E94A60E08958230B9F0833014
:101F200028F4882351F08130F9F40AC08430B9F0E4
:101F3000843090F08530C1F415C010926E00089581
:101F400080916F008D7F80936F0008958091700065
:101F50008D7F809370000895109271000895109203
:101F6000720008951092730008951F920F920FB699
:101F70000F9211242F933F934F935F936F937F930F
:101F80008F939F93AF93BF93EF93FF938091B90487
:101F90009091BA04A091BB04B091BC040097A10534
:101FA000B10551F1E091BD04F091BE0480819091A2
:101FB000BF04892780838091B9049091BA04A091CD
:101FC000BB04B091BC04181619061A061B060CF5C2
:101FD0008091B9049091BA04A091BB04B091BC0463
:101FE0000197A109B1098093B9049093BA04A09311
:101FF000BB04B093BC040DC083E00E948D0FE09140
:10200000BD04F091BE0490818091BF048095892326
:102010008083FF91EF91BF91AF919F918F917F91BD
:102020006F915F914F913F912F910F900FBE0F9045
:102030001F901895282F8091C2048823C1F057FF64
:102040001AC015C028989093C1048091F100819323
:10205000E217F307B9F74115510539F08091F20005
:10206000882319F48BE68093E800AFBF02C04FEFDE
:102070005FEFCA010895AFB7F89427702093E90085
:102080008091F200282F30E0241735070CF4A901C5
:10209000FB019B01240F311D94E6DACFDF93CF9330
:1020A0000F92CDB7DEB7BE016F5F7F4F41E050E0CA
:1020B0000E941A10019719F02FEF3FEF03C089819A
:1020C000282F30E0C9010F90CF91DF910895FF9242
:1020D0000F931F93F82E142F052F4091C504509194
:1020E000C604212F302FC901DC01FB016EEF29C08E
:1020F000F7FE02C0949101C090812091C3043091F9
:10210000C40424173507ACF48091E8008570E1F32E
:102110008091E80082FF03C02FEF3FEF17C090933C
:10212000F100C90101968F739070892B11F46093AF
:10213000E8002F5F3F4F3093C4042093C3041197EE
:1021400031961097A9F6812F902F9C01C9011F91FC
:102150000F91FF9008951F93782FE92F162F20914C
:10216000C3043091C404A091C504B091C6042A17D9
:102170003B07C4F48091E8008570E1F38091E800AA
:1021800082FD16C0812F90E00196880F991F8093E1
:10219000F100C90101968F739070892B19F48EEFAD
:1021A0008093E8002F5F3F4F3093C4042093C30413
:1021B0002091C3043091C4042A173B07A4F48091F2
:1021C000E8008570E1F38091E80082FD12C083E0B1
:1021D0008093F100C90101968F739070892B19F4D7
:1021E0008EEF8093E8002F5F3F4F3093C40420931D
:1021F000C3044091C3045091C404872F9E2FFC0157
:1022000070E06EEF43C094914A175B07A4F480918D
:10221000E8008570E1F38091E80082FF02C020E0D1
:102220000DC09093F100CA0101968F739070892BB5
:1022300011F46093E8004F5F5F4F21E04A175B079E
:10224000A4F48091E8008570E1F38091E80082FFBA
:1022500002C080E00DC01092F100CA0101968F7398
:102260009070892B11F46093E8004F5F5F4F81E01D
:10227000319690E030E082239323892B31F4509300
:10228000C4044093C30480E009C07F5F711708F461
:10229000BACF5093C4044093C30481E01F910895C2
:1022A0009C018091E80082FFFCCFF901260F311DCF
:1022B00003C08091F1008193E217F307D1F72898CA
:1022C00084E68093C1048BEF8093E800CB010895EE
:1022D0008093E9008091F200882319F08AE38093CB
:1022E000E800089508951092C20481E08093D70019
:1022F00080EA8093D80082E189BD09B400FEFDCF59
:1023000061E070E080E090E00E94A31580E9809396
:10231000D8008CE08093E2001092E000559A209A59
:1023200008955F926F927F928F929F92AF92BF9229
:10233000CF92DF92EF92FF920F931F93CF93DF9391
:10234000E82E842E752E8091C204882371F18B01B2
:10235000242F352FC901EC01AAEFFA2EF7E09F2EAA
:102360009E20E0E45E2E8E2D90E070E2A72EB12C30
:10237000A822B9226AE3662E50E4C52ED12CC822C9
:10238000D92258C09FB7F8949092E9008091E80054
:1023900085FD02C020E004C08091F200252D281B9D
:1023A0009FBF222361F4FA9419F42FEF3FEF4DC041
:1023B00061E070E080E090E00E94A3153BC0822FB6
:1023C00090E0C817D9070CF42C2FC21BD1094FB7C6
:1023D000F8949092E900A114B10421F406C010927F
:1023E000F10021502223D9F719C0E7FC03C0F801FE
:1023F000922F10C0C801322F06C0FC010196E49153
:10240000E093F10031503323C1F706C081918093EE
:10241000F10091509923D1F7020F111D8091E8002E
:1024200085FF05C0209729F4C114D10411F06092F2
:10243000E8004FBF209709F0A5CF5D9884E6809310
:10244000C004282D372DC9019C01C901DF91CF910E
:102450001F910F91FF90EF90DF90CF90BF90AF90C2
:102460009F908F907F906F905F9008951F920F9232
:102470000FB60F9211242F933F934F935F936F9357
:102480007F938F939F93AF93BF93EF93FF9380912D
:10249000E1001092E100982F83FF0FC01092E90035
:1024A00081E08093EB001092EC0082E38093ED00DA
:1024B0001092C20488E08093F00092FF34C083E061
:1024C0008093E9008091F200882319F08AE38093D9
:1024D000E8008FB7F89492E09093E9009091F200B1
:1024E0008FBF992321F086EB93E00E94FD09809134
:1024F000C004882351F08091C00481508093C004AF
:102500008091C004882309F45D9A8091C1048823D6
:1025100051F08091C10481508093C1048091C10425
:10252000882309F4289AFF91EF91BF91AF919F9171
:102530008F917F916F915F914F913F912F910F906C
:102540000FBE0F901F9018950F931F93DF93CF939B
:102550000F92CDB7DEB719828E010F5F1F4FC801F2
:102560000E94240AC8010E94BD0B898190E00F904F
:10257000CF91DF911F910F9108951F920F920FB687
:102580000F921124EF92FF921F932F933F934F933B
:102590005F936F937F938F939F93AF93BF93EF93CB
:1025A000FF93DF93CF93CDB7DEB76197DEBFCDBF8B
:1025B0001092E9008091E80083FF14C1FE0131967A
:1025C0009E01275F3F4F03C08091F1008193E21786
:1025D000F307D1F7289884E68093C10482EF8093B3
:1025E000E800998197FF05C08091E80080FFFCCF4B
:1025F00003C08EEF8093E800292F30E0C901807678
:102600009070892B09F0C7C08A81882329F4109221
:10261000F1001092F100DBC0813009F4D8C08330A2
:1026200009F4D5C0853049F48091E80080FFFCCFE3
:102630008B8180688093E300CAC0863009F081C036
:102640001C81EF80F8841230C1F51092E9001092DD
:10265000C4041092C3041092C6041092C5040E94D0
:10266000A41299E0FE013996DF01292F1D922A95C7
:10267000E9F799871A8791E09E8790E8988B9AEFFF
:10268000998B2091C3043091C404275F3F4F3C874E
:102690002B878D871092E9001092C4041092C30416
:1026A000F092C604E092C50480E0BF0149E050E02A
:1026B0000E9467100E94A4128AC01092E900109232
:1026C000C4041092C304F092C604E092C50412320E
:1026D00041F482E290E00E94B50B892B09F47BC0A3
:1026E00076C0113079F488E0E816F10419F481E03D
:1026F0008093C7048091C704882309F070C0EDE07F
:10270000F2E018C0133009F066C08B81882319F4F9
:10271000ECEEF1E00FC0823021F480EF91E060E157
:1027200006C0813009F057C081E092E06BE00E9462
:10273000AB104BC0449180E8BF0150E00E9467108D
:1027400046C0873009F447C0883021F481E0809387
:10275000F1003DC08930D9F523703070232BD9F5B5
:10276000E2E3F2E091E031E026E39093E900309378
:10277000EB0084918093EC002093ED009F5F3196F5
:10278000953099F78EE78093EA001092EA008B81EA
:102790008093C2041CC08F8198851092E90010922A
:1027A000C4041092C3049093C6048093C5048D8121
:1027B000882329F4CE0101960E94300A06C0823097
:1027C00051F4CE0101960E94860A882321F08EEFF3
:1027D0008093E80007C081E28093EB0003C0EFE143
:1027E000F2E0A8CF6196DEBFCDBFCF91DF91FF9120
:1027F000EF91BF91AF919F918F917F916F915F9179
:102800004F913F912F911F91FF90EF900F900FBE2E
:102810000F901F9018951F920F920FB60F921124D0
:102820002F933F934F935F936F937F938F939F93D8
:10283000AF93BF93EF93FF938091C9049091CA0423
:10284000892B29F0E091C904F091CA040995FF9100
:10285000EF91BF91AF919F918F917F916F915F9118
:102860004F913F912F910F900FBE0F901F90189591
:102870001F920F920FB60F9211242F933F934F93F5
:102880005F936F937F938F939F93AF93BF93EF93D8
:10289000FF938091CB049091CC04892B29F0E09197
:1028A000CB04F091CC040995FF91EF91BF91AF91CA
:1028B0009F918F917F916F915F914F913F912F9158
:1028C0000F900FBE0F901F9018951F920F920FB68A
:1028D0000F9211242F933F934F935F936F937F93A6
:1028E0008F939F93AF93BF93EF93FF938091CD040A
:1028F0009091CE04892B29F0E091CD04F091CE0483
:102900000995FF91EF91BF91AF919F918F917F9129
:102910006F915F914F913F912F910F900FBE0F904C
:102920001F9018951F920F920FB60F9211242F939C
:102930003F934F935F936F937F938F939F93AF9347
:10294000BF93EF93FF938091CF049091D004892B94
:1029500029F0E091CF04F091D0040995FF91EF9117
:10296000BF91AF919F918F917F916F915F914F91A7
:102970003F912F910F900FBE0F901F9018951F92AF
:102980000F920FB60F9211242F933F934F935F93A3
:102990006F937F938F939F93AF93BF93EF93FF9327
:1029A0008091D1049091D204892B29F0E091D10437
:1029B000F091D2040995FF91EF91BF91AF919F9152
:1029C0008F917F916F915F914F913F912F910F90D8
:1029D0000FBE0F901F90189508951F920F920FB67B
:1029E0000F9211242F933F938F939F93AF93BF9395
:1029F0008091D7049091D804A091D904B091DA04C1
:102A00003091DB040196A11DB11D232F2D5F2D37C1
:102A100020F02D570196A11DB11D2093DB0480935A
:102A2000D7049093D804A093D904B093DA0480918A
:102A3000D3049091D404A091D504B091D60401960A
:102A4000A11DB11D8093D3049093D404A093D50409
:102A5000B093D604BF91AF919F918F913F912F91E9
:102A60000F900FBE0F901F9018958FB7F89420917C
:102A7000D7043091D8044091D9045091DA048FBF23
:102A8000B901CA010895019739F0880F991F880F7D
:102A9000991F02970197F1F70895789484B58260A1
:102AA00084BD84B5816084BD85B5826085BD85B5F2
:102AB000816085BDEEE6F0E0808181608083E1E8A1
:102AC000F0E01082808182608083808181608083D9
:102AD000E0E8F0E0808181608083E1E9F0E08081DE
:102AE00082608083808181608083E0E9F0E0808182
:102AF00081608083E1ECF0E080818460808380816C
:102B000082608083808181608083E3ECF0E080815B
:102B100081608083E0ECF0E0808182608083E2EC81
:102B2000F0E0808181608083EAE7F0E0808184606A
:102B300080838081826080838081816080838081C6
:102B4000806880830895EF92FF920F931F93CF9335
:102B5000DF937B018C013FB7F8948091D30490916F
:102B6000D404A091D504B091D60426B5A89B05C085
:102B70002F3F19F00196A11DB11D3FBFBA2FA92FFC
:102B8000982F8827820F911DA11DB11D52E0880F3B
:102B9000991FAA1FBB1F5A95D1F7EC0130C00E94A4
:102BA000EC143FB7F8948091D3049091D404A09191
:102BB000D504B091D60426B5A89B05C02F3F19F0C7
:102BC0000196A11DB11D3FBFBA2FA92F982F8827AD
:102BD000820F911DA11DB11D32E0880F991FAA1F00
:102BE000BB1F3A95D1F78C1B9D0B885E9340B8F2C2
:102BF0000894E108F10801091109C851DC4FE114FA
:102C0000F1040105110559F6DF91CF911F910F9144
:102C1000FF90EF900895823108F08251E82FF0E0A4
:102C2000E654FD4FE49120917B008E2F869586958A
:102C3000869590E08170907035E0880F991F3A95E5
:102C4000E1F72F7D282B20937B00E77080916603AE
:102C50008295880F880F807C8E2B80937C008091DA
:102C60007A00806480937A0080917A0086FDFCCFA0
:102C70002091780040917900942F80E030E0282B5B
:102C8000392BC9010895CF93DF93482F50E0CA0133
:102C900082589D4FFC013491405A5D4FFA01849156
:102CA000882369F190E0880F991FFC01EA5CFD4FD1
:102CB000A591B491FC01EC5BFD4FC591D4916623C5
:102CC00051F42FB7F8948C91932F909589238C937E
:102CD000888189230BC0623061F42FB7F8948C91FE
:102CE000932F909589238C938881832B88832FBF82
:102CF00006C09FB7F8948C91832B8C939FBFDF9174
:102D0000CF910895883071F1893068F4823031F1C3
:102D1000833020F4813009F042C01DC0833089F037
:102D20008430E9F512C08B3059F18C3028F48930A9
:102D3000E9F08A30A1F51EC08C3031F18E3079F582
:102D400029C0809180008F7703C0809180008F7DA3
:102D500080938000089584B58F7702C084B58F7DFD
:102D600084BD0895809190008F7707C08091900076
:102D70008F7D03C080919000877F8093900008959D
:102D80008091C0008F7703C08091C0008F7D8093B9
:102D9000C00008958091C200877F8093C20008958B
:102DA000FF920F931F93F62E482F50E0CA018456CE
:102DB0009D4FFC012491CA0182589D4FFC01149142
:102DC000405A5D4FFA0104910023C9F0222319F003
:102DD000822F0E948216E02FF0E0EE0FFF1FEC5BC7
:102DE000FD4FA591B4919FB7F894FF2021F48C91E9
:102DF0001095812302C08C91812B8C939FBF1F91D2
:102E00000F91FF9008950F931F93482F50E0CA0130
:102E100084569D4FFC012491CA0182589D4FFC01AC
:102E20000491405A5D4FFA011491112319F420E0E6
:102E300030E015C0222319F0822F0E948216812FC4
:102E400090E0880F991F8E5A9D4FFC01A591B49177
:102E50008C9120E030E0802311F021E030E0C901C6
:102E60001F910F9108951092E1041092E2041092C4
:102E7000E5041092E70482E090E0A0E0B0E08093E7
:102E8000E8049093E904A093EA04B093EB04109251
:102E9000FF04109209051092080587EA93E09093C9
:102EA00007058093060510920B050895FF920F9376
:102EB0001F93CF93DF938B010E943515EB01FF2405
:102EC000FA94FEBC0DB407FEFDCF8EB58F3F11F412
:102ED00081E008C00E9435156C1B7D0B60177107DF
:102EE00080F380E0DF91CF911F910F91FF900895C3
:102EF000FC01848160E00E94D0160895FC01848169
:102F000061E00E94D0160895DC016EBD0DB407FE8D
:102F1000FDCF8EB520E030E0FA01E20FF31F808193
:102F20008EBD0DB407FEFDCF8EB52F5F3F4F82E003
:102F30002030380789F78FEF8EBD0DB407FEFDCF27
:102F40008EB58FEF8EBD0DB407FEFDCF8EB58FEF22
:102F50008EBD0DB407FEFDCF8EB51A968C931A97D1
:102F60008F71853011F481E0089581E115968C937D
:102F70001597CD010E947E1780E00895FF920F9370
:102F80001F93CF93DF93EC010E9435158B01FF2433
:102F9000FA9409C00E943515601B710B6D52714087
:102FA00010F08FE00DC0FEBC0DB407FEFDCF8EB556
:102FB0008A878F3F79F38E3F11F481E006C08DE060
:102FC0008D83CE010E947E1780E0DF91CF911F910B
:102FD0000F91FF900895CF93DF93EC018E818823AA
:102FE000B1F02F8138854FEF05C04EBD0DB407FEFF
:102FF000FDCF8EB52F5F3F4FC901019782509240A0
:10300000A0F338872F83CE010E947E171E82DF91A6
:10301000CF910895DF92EF92FF920F931F93CF937A
:10302000DF93EC01D62E79018A010E94EB17CE01C5
:103030000E947817CE016CE271E00E9456178D2D28
:1030400080648EBD0DB407FEFDCF8EB528E130E063
:10305000D801C701022E04C0B695A795979587950C
:103060000A94D2F78EBD0DB407FEFDCF8EB5285061
:1030700030408FEF283F380759F7DD2011F485E9FC
:1030800006C088E0D81611F487E801C08FEF8EBD26
:103090000DB407FEFDCF8EB590E02FEF2EBD0DB421
:1030A00007FEFDCF8EB587FF02C09150B9F78A8722
:1030B000DF91CF911F910F91FF90EF90DF900895D6
:1030C000CF92DF92EF92FF920F931F93CF93DF93F4
:1030D000EC017A018B01690141155105610571050A
:1030E00011F482E137C08B85833039F099E0EE0C22
:1030F000FF1C001F111F9A95D1F7CE0168E1A801AE
:1031000097010E940A18882311F084E023C0CE01A1
:103110006EEFA6010E9484178823E9F0CE0168E5CE
:1031200072E00E945617882311F485E113C0CE0186
:103130006DE020E030E040E050E00E940A18882373
:1031400041F48FEF8EBD0DB407FEFDCF8EB5882301
:1031500079F084E18D83CE010E947E1780E0DF91BB
:10316000CF911F910F91FF90EF90DF90CF90089536
:10317000CE010E947E1781E0F2CF8F929F92AF9294
:10318000BF92CF92DF92EF92FF920F931F93CF9354
:10319000DF93EC015A016B0149010115110509F496
:1031A00070C0C801820F931F8150924008F064C024
:1031B0008E81882371F088819981AA81BB8148170B
:1031C00059076A077B0729F48F8198858816990625
:1031D00010F5A882B982CA82DB828B85833039F0F0
:1031E00059E0AA0CBB1CCC1CDD1C5A95D1F7CE01B2
:1031F00061E1A60195010E940A18882319F083E075
:103200008D833AC0CE010E94BE178823A9F118868B
:103210001F8281E08E838F8198852FEF06C02EBD9F
:103220000DB407FEFDCF3EB5019688159905B8F39C
:1032300098878F8320E030E09FEF0BC09EBD0DB4D8
:1032400007FEFDCF8EB5F701E20FF31F80832F5FDE
:103250003F4F2017310790F32F813885200F311F02
:1032600038872F838985882319F02050324048F011
:10327000CE010E94EB1705C0CE010E947E1780E0B0
:1032800001C081E0DF91CF911F910F91FF90EF90EE
:10329000DF90CF90BF90AF909F908F900895EF9266
:1032A000FF920F931F93790120E030E000E012E0DD
:1032B0000E94BD181F910F91FF90EF9008956F929B
:1032C0007F928F929F92AF92BF92CF92DF92EF92B6
:1032D000FF920F931F93CF93DF93EC017A018B0141
:1032E0002D81222309F480C08B899C89AD89BE89F8
:1032F00084179507A607B70708F476C085C0E114C0
:10330000F1040105110549F41E821F8218861986F1
:103310001A861B861C861D8665C02A853B854C85C2
:103320005D85EB8DFC8D858590E0099621503040C0
:103330004040504039014A01082E04C096948794B9
:10334000779467940A94D2F72F5F3F4F4F4F5F4FA8
:103350000894E108F108010911095701680104C046
:10336000D694C794B794A7948A95D2F70894E11C91
:10337000F11C011D111DA614B704C804D90428F0BE
:10338000211531054105510549F48F89988DA98D85
:10339000BA8D8E839F83A887B98716C0A618B708F1
:1033A000C808D90811C04E815F81688579858B8DE9
:1033B0009C8D94010E94711D0894A108B108C10858
:1033C000D108882331F410C086E0882E912C8C0E11
:1033D0009D1EA114B104C104D10429F7EA86FB861D
:1033E0000C871D8781E001C080E0DF91CF911F91A4
:1033F0000F91FF90EF90DF90CF90BF90AF909F9094
:103400008F907F906F900895223009F078CFE6CFAB
:10341000CF93DF93EC01462F6E857F85888999894C
:103420000E949A1C882319F420E030E00AC08A899F
:10343000282F30E095E0220F331F9A95E1F7295DA0
:103440003A4FC901DF91CF9108950F931F93CF9306
:10345000DF938C01FC0185818823D9F1848187FF6A
:1034600035C0C80161E00E94081AEC01009789F19B
:10347000F8018581823040F483899489A589B689D1
:103480008C8F9D8FAE8FBF8FF8018789908D9B8F1A
:103490008A8F8789908DA18DB28DCD01AA27BB27F8
:1034A0009D8B8C8BE0912505F0912605309751F08E
:1034B000BE016A5E7F4FCE0148960995888D998D31
:1034C0009B8B8A8BF80184818F7784830E945F1C99
:1034D00001C080E0DF91CF911F910F910895CF93AC
:1034E000DF93EC019C012A5F3F4F8B8D9C8D41E067
:1034F00050E060E070E00E94E41D8823A1F08F8915
:10350000988DA98DBA8D0097A105B10559F48E81CA
:103510009F81A885B9858F8B988FA98FBA8F8C8151
:1035200080688C8381E0DF91CF9108952F923F9244
:103530004F925F927F928F929F92AF92BF92CF9263
:10354000DF92EF92FF920F931F93DF93CF9300D000
:1035500000D000D0CDB7DEB76C01162F072F5E83E9
:103560004D83DC0115968C911597813009F070C15F
:1035700014968C9181FF6CC18EC1F60143895489E8
:103580006589768982859385A485B5858417950795
:10359000A607B70731F0C6010E945F19882309F416
:1035A00057C1812F902F9C0129012D803E8017C18A
:1035B000D6015B96ED91FC915C97DA01C90119E0A7
:1035C000B695A795979587951A95D1F774807A94B3
:1035D00078227FEF872E71E0972E82229322772028
:1035E00009F04EC08114910409F04AC0D601169624
:1035F0004D915D916D917C91199741155105610532
:10360000710581F457968D919D910D90BC91A02DDF
:103610000097A105B10549F1F60186839783A0873C
:10362000B1872EC0CF019E012F5F3F4F0E94711DB9
:10363000882309F414C129813A814B815C81D60128
:103640005B96ED91FC915C978789803129F088EF3A
:103650009FEFAFEFBFE004C088EF9FEFA0E0B0E0C6
:10366000281739074A075B0730F0C6010E946F1A16
:10367000882331F4EDC0F6012683378340875187D4
:1036800080E092E08819990951018215930508F4A8
:103690005C01D6015B96ED91FC915C971696ED90DE
:1036A000FD900D911C9119978EEF9FEFAFEFBFEF3B
:1036B000E80EF91E0A1F1B1F058404C0EE0CFF1C38
:1036C000001F111F0A94D2F786859785A089B189BA
:1036D000E80EF91E0A1F1B1FE70CF11C011D111D2E
:1036E00090E0A91692E0B90651F580916703909198
:1036F0006803A0916903B0916A038E159F05A00726
:10370000B10761F48FEF9FEFAFEFBFEF80936703D7
:1037100090936803A0936903B0936A03809127078D
:1037200090912807B801A70192010E946018882390
:1037300009F48EC0A0E0B2E04A0E5B1E3EC08114C8
:10374000910409F5F60122853385448555858389E1
:103750009489A589B689281739074A075B0798F025
:103760000E945F1C882309F473C0E0926703F09203
:1037700068030093690310936A03809129078160AD
:103780008093290708C0C801B70141E00E949A1C34
:10379000882309F45DC09401295D3A4FA9014A0DBF
:1037A0005B1DD201F90102C08D918193E417F507E9
:1037B000D9F7E21BF30B4E0E5F1E2A183B0895014A
:1037C00040E050E0F60182859385A485B585820F9F
:1037D000931FA41FB51F82879387A487B587D6013F
:1037E0001A962D913D914D915C911D9721143104B4
:1037F00009F0DECE53968D919D910D90BC91A02D38
:1038000082179307A407B50748F4F601238B348B7E
:10381000458B568B84818068848311C080912505F7
:1038200090912605892B59F08D819E81892B39F045
:10383000D60114968C911497806814968C93F60197
:10384000848183FF0EC0C6010E94251A882349F493
:1038500081E090E0D60113969C938E9312971E827E
:103860001D828D819E8126960FB6F894DEBF0FBE15
:10387000CDBFCF91DF911F910F91FF90EF90DF901F
:10388000CF90BF90AF909F908F907F905F904F9020
:103890003F902F90089582FD70CE83CEDF93CF931B
:1038A0000F92CDB7DEB76983BE016F5F7F4F41E0F6
:1038B00050E00E94961A0F90CF91DF910895809169
:1038C0002907882399F1409167035091680360911B
:1038D000690370916A03809127079091280727E276
:1038E00035E00E946018882319F140912A07509111
:1038F0002B0760912C0770912D074115510561052B
:10390000710591F0809127079091280727E235E013
:103910000E946018882361F010922A0710922B07EA
:1039200010922C0710922D071092290781E008951C
:1039300080E00895DF92EF92FF920F931F937B0137
:103940008C01D42E8091670390916803A091690344
:10395000B0916A038E159F05A007B107C1F00E94C0
:103960005F1C8823D9F08091270790912807B80120
:10397000A70127E235E00E944F19882379F0E092F1
:103980006703F09268030093690310936A038091C0
:1039900029078D298093290781E001C080E01F91CC
:1039A0000F91FF90EF90DF9008954F925F926F928A
:1039B0007F928F929F92AF92BF92CF92DF92EF92BF
:1039C000FF920F931F93CF93DF93EC016A017B016A
:1039D00028013901423051056105710508F46FC0B5
:1039E00089859A85AB85BC850196A11DB11D84177B
:1039F0009507A607B70708F462C02B893C894D8953
:103A00005E898F89803129F499278F2D7E2D6D2D28
:103A100009C0C701B60117E0969587957795679518
:103A20001A95D1F74B015C01820E931EA41EB51EA0
:103A30008091670390916803A0916903B0916A0334
:103A400088169906AA06BB0639F0C501B40140E004
:103A50000E949A1C882399F18F89803149F4F601DC
:103A6000F070EE0FFF1FE95DFA4F518240820DC0EA
:103A7000F601EF77F070EE0FFF1FEE0FFF1FE95D0D
:103A8000FA4F40825182628273828091290781605D
:103A9000809329078A89823080F08D819E81AF8151
:103AA000B885880E991EAA1EBB1E80922A07909286
:103AB0002B07A0922C07B0922D0781E001C080E077
:103AC000DF91CF911F910F91FF90EF90DF90CF90FA
:103AD000BF90AF909F908F907F906F905F904F902E
:103AE0000895CF92DF92EF92FF920F931F93CF939F
:103AF000DF93EC017A018B01690189859A85AB8599
:103B0000BC850196A11DB11D84179507A607B707AF
:103B100008F450C02B893C894D895E898F8980319A
:103B200029F49927812F702F6F2D09C0C801B70183
:103B3000E7E09695879577956795EA95D1F7260FF3
:103B4000371F481F591F8091670390916803A09108
:103B50006903B0916A03281739074A075B0739F0F0
:103B6000CA01B90140E00E949A1C882319F18F898B
:103B7000803159F4F701F070EE0FFF1FE95DFA4F45
:103B800080819181A0E0B0E00EC0F701EF77F07086
:103B9000EE0FFF1FEE0FFF1FE95DFA4F808191814D
:103BA000A281B381BF70F60180839183A283B38326
:103BB00081E001C080E0DF91CF911F910F91FF90D4
:103BC000EF90DF90CF9008952F923F924F925F92A7
:103BD0006F927F928F929F92AF92BF92CF92DF921D
:103BE000EF92FF920F931F93DF93CF93CDB7DEB782
:103BF0002F970FB6F894DEBF0FBECDBF1C014A87CA
:103C00005B876C877D873F872E87D9010D911D913A
:103C10002D913C91011511052105310549F048010F
:103C200059010894811C911CA11CB11C198610C05B
:103C3000FC0180809180A280B38019868A859B8553
:103C4000AC85BD850197A105B10511F491E0998777
:103C5000D10119968D919D910D90BC91A02D019649
:103C6000A11DB11D8D839E83AF83B887750164014B
:103C70004424552432018E010F5F1F4FF1018185CD
:103C80009285A385B485481659066A067B0608F016
:103C900090C08D819E81AF81B8858C159D05AE0544
:103CA000BF0550F482E0882E912CA12CB12CB2E0FB
:103CB000CB2ED12CE12CF12CC101B701A60198012A
:103CC0000E94711D882309F474C089819A81AB8197
:103CD000BC81A70196012F5F3F4F4F4F5F4F009769
:103CE000A105B10519F049015A010DC0281939097A
:103CF0004A095B098A859B85AC85BD8528173907EC
:103D00004A075B0759F00894411C511C611C711C47
:103D10000894C11CD11CE11CF11CB0CFC101A6014B
:103D2000B7010FEF1FEF2FEF3FE00E94D51C882354
:103D300099F43FC0260137010894410851086108F1
:103D40007108C101B301A201970186010E94D51C2F
:103D5000882379F1730162018C149D04AE04BF04C1
:103D600048F3AE85BF854D915D916D917C91411574
:103D700051056105710539F0C101950184010E9469
:103D8000D51C8823B1F0EE85FF8580829182A282C6
:103D9000B382F985FF2359F00894811C911CA11C62
:103DA000B11CD1018D929D92AD92BC92139781E08E
:103DB00001C080E02F960FB6F894DEBF0FBECDBFD6
:103DC000CF91DF911F910F91FF90EF90DF90CF90F7
:103DD000BF90AF909F908F907F906F905F904F902B
:103DE0003F902F900895EF92FF920F931F93CF93E0
:103DF000DF938C01C0E0D0E082E3E82EF12CCE9D71
:103E0000C001CF9D900DDE9D900D1124800F911F5C
:103E10000E94C6202196C430D10589F7DF91CF9149
:103E20001F910F91FF90EF900895EF92FF920F93E3
:103E30001F9326E9E22EF12CE80EF91EC70163E07C
:103E400070E00E940121C70163E070E00E94FE2043
:103E5000C70160E070E049E050E020E030E004E6B7
:103E600010E00E94F720C70161E070E04AE050E0F6
:103E700020E030E002E310E00E94F720C70162E09A
:103E800070E04BE050E029E130E00E94F7201F9104
:103E90000F91FF90EF900895EF92FF920F931F9371
:103EA00034E6E32EF12CE80EF91EC70162E070E063
:103EB0000E940121C70163E070E00E94FE20C7015B
:103EC00060E070E046E050E020E030E004E610E022
:103ED0000E94F720C70161E070E047E050E020E079
:103EE00030E002E310E00E94F720C70162E070E0DA
:103EF00048E050E029E130E00E94F7201F910F9147
:103F0000FF90EF900895EF92FF920F931F9342E37B
:103F1000E42EF12CE80EF91EC70161E070E00E946A
:103F20000121C70163E070E00E94FE20C70160E04C
:103F300070E043E050E020E030E004E610E00E9452
:103F4000F720C70161E070E044E050E020E030E09D
:103F500002E310E00E94F720C70162E070E045E054
:103F600050E029E130E00E94F7201F910F91FF906F
:103F7000EF900895EF92FF920F931F93F82EE92E82
:103F800060E070E00E9401218F2D9E2D63E070E0C3
:103F90000E94FE208F2D9E2D60E070E040E050E0FA
:103FA00020E030E004E610E00E94F7208F2D9E2DE7
:103FB00061E070E041E050E020E030E002E310E03A
:103FC0000E94F7208F2D9E2D62E070E042E050E0CD
:103FD00029E130E00E94F7201F910F91FF90EF90B0
:103FE00008950F931F938C010E94BA1FC8010E946D
:103FF000831FC8010E944C1FC8010E94151F1F91FA
:104000000F9108952F923F924F925F926F927F92FD
:104010008F929F92AF92BF92CF92DF92EF92FF92D8
:104020000F931F93DF93CF93CDB7DEB72A0119010A
:1040300022E330E0629F3001639F700C729F700C2E
:104040001124680E791EC3010E940121C301B2012F
:104050000E94FE20C30160E070E0A1019801870189
:104060000E94F720C30161E070E0A6019501840180
:104070000E94F720C30162E070E04D895E892F89BC
:10408000388D098D1A8D0E94F720CF91DF911F91F5
:104090000F91FF90EF90DF90CF90BF90AF909F90E7
:1040A0008F907F906F905F904F903F902F900895EA
:1040B0000F931F938C010E9405210E5C1F4FC801B6
:1040C0000E9405210E5C1F4FC8010E940521C801F6
:1040D000C2960E9405211F910F9108950895089599
:1040E000FC016038710510F4718360830895FC0150
:1040F000758364835783468308958F929F92AF920E
:10410000BF92CF92DF92EF92FF920F931F934C01D9
:104110005A016B01FC01E480F580668177816E199C
:104120007F09882777FD8095982F0E94FB059B01CA
:10413000AC01C601B5010E946A0320E030E048EC02
:1041400052E40E9464045B016C010027F7FC0095B7
:10415000102FC801B7010E94FB059B01AC01C601ED
:10416000B5010E943D030E943E270E945906F401BA
:1041700073836283C4011F910F91FF90EF90DF90D2
:10418000CF90BF90AF909F908F900895AF92BF92C5
:10419000CF92DF92EF92FF920F931F93CF93DF9313
:1041A0008C0182960E949A216B017C015801C80102
:1041B0000E941D218C01C0E0D0E00BC0C501BE01F2
:1041C0000E942121B701A6010E947D200E9497260E
:1041D0002196C017D10794F3DF91CF911F910F91D2
:1041E000FF90EF90DF90CF90BF90AF9008950F9326
:1041F0001F930E942C211F910F9108950E94152159
:10420000089582960E94ED2108950F931F938C01CB
:1042100063E070E00E945621C801829665E070E07C
:104220000E9475211F910F910895FC01CB01019708
:10423000039710F4718760870895FC01808591854C
:10424000089523E0660F771F2A95E1F7665F7F4F99
:10425000680F791FCB010895EF92FF920F931F9380
:10426000CF93DF93FC01E901780177FD18C08085C9
:104270009185861797079CF08B0133E0000F111F83
:104280003A95E1F7065F1F4F0E0F1F1FC801BA01D5
:104290000E947020C801BE01A7010E947720DF9113
:1042A000CF911F910F91FF90EF9008950F931F935F
:1042B000CF93DF93EC018B010E946E20CE010A9612
:1042C0000E946F20CE0142960E946F20CE014A9636
:1042D0000E946F20C8010197039710F4198708877F
:1042E000DF91CF911F910F9108950F931F938C0130
:1042F00024E13EEA43E251E4FC0120873187428712
:104300005387882777FD8095982F0E94FB05F80139
:10431000648375838683978320E030E040E85AE326
:104320000E946A03F80164877587868797871F91C3
:104330000F910895AF92BF92CF92DF92EF92FF92CA
:104340000F931F936C01FC0180810E940B16F601F4
:1043500093838283AA2797FDA095BA2FBC01CD0134
:104360000E94FB05F60120853185428553850E9418
:1043700064047B018C0196EBA92E93E0B92EC50154
:104380006EE371E00E94A30EF601608171816251BB
:104390007040C5014AE050E00E94900EC50162E203
:1043A00071E00E94A30EC501A701B80122E030E030
:1043B0000E948A0FC5016AE471E00E94A30EC50144
:1043C0000E948F0DB701C8011F910F91FF90EF90D0
:1043D000DF90CF90BF90AF900895FC0164307105DD
:1043E00048F4CB014296918380831382128260E06D
:1043F0000E94431608950F931F938C01FC01868140
:1044000060E00E94D01681E090E00E944315F80120
:10441000868161E00E94D01681E090E00E94431501
:10442000F801868160E00E94D01684E690E00E9448
:1044300043151F910F910895CF92DF92EF92FF9253
:104440000F931F93CF93DF93D82EC92E282F392F88
:10445000C9018C01C0E0D0E0E62EFF24F80187817D
:1044600061E00E944316B7010C2E02C07595679556
:104470000A94E2F76170F80187810E94D0162196B4
:104480000F5F1F4FC830D10549F78D2D9C2D0E941D
:10449000FB21DF91CF911F910F91FF90EF90DF9063
:1044A000CF900895CF92DF92EF92FF920F931F93D8
:1044B000CF93DF93D82EC92E282F392FC9018C0115
:1044C000C0E0D0E0E62EFF24F801878161E00E9481
:1044D0004316B7010C2E02C0759567950A94E2F752
:1044E0006170F80187810E94D01621960F5F1F4FDF
:1044F000C430D10549F78D2D9C2D0E94FB21DF9101
:10450000CF911F910F91FF90EF90DF90CF90089582
:104510001F93CF93DF93EC01162F8C81642F0E94A1
:10452000D0168D818F3F19F060E00E94D0168F85E4
:1045300084FF05C0CE01612F0E941C220EC0612F96
:1045400070E084E0759567958A95E1F7CE010E9449
:104550005222CE01612F0E945222DF91CF911F91F2
:10456000089541E00E94882281E090E0089540E0B3
:104570000E9488220895FC016089862F8460808BC8
:104580006C60CF010E94B722089561E00E94B722BB
:1045900080ED97E00E9443150895CF93DF93EC01DF
:1045A000423018F08F8588608F874B8B1C8A2223BE
:1045B00029F0413019F48F8584608F8780E593EC72
:1045C0000E9443158C8160E00E94D0168E8160E0CD
:1045D0000E94D0168D818F3F19F060E00E94D016A6
:1045E0006F8564FD1DC0CE0163E00E94522284E904
:1045F00091E10E944315CE0163E00E94522284E9BA
:1046000091E10E944315CE0163E00E94522286E9A7
:1046100090E00E944315CE0162E00E94522216C033
:104620006062CE010E94B72284E991E10E944315A5
:104630006F856062CE010E94B72286E990E00E94F9
:1046400043156F856062CE010E94B7226F8560625C
:10465000CE010E94B72284E0888BCE010E94BB224B
:10466000CE010E94C52282E0898BCE0166E00E94C5
:10467000B722DF91CF9108956F927F928F92AF9280
:10468000CF92EF920F931F93DF93CF93CDB7DEB707
:104690003C01162F842FF301448325830683E78290
:1046A000C086A18682869D8593879E8594879F85F7
:1046B00095879889968761E00E944316F30185816A
:1046C0008F3F19F061E00E944316F301868161E09B
:1046D0000E944316112319F0F301178603C080E1ED
:1046E000F3018787C30160E141E020E00E94CD2211
:1046F000CF91DF911F910F91EF90CF90AF908F905E
:104700007F906F9008958F92AF92CF92EF920F9318
:104710001F93CF93DF93DC01362F542F722F102F6E
:10472000AE2C8C2C13961C921E9212978FEA93E05B
:1047300011969C938E9300D000D0EDB7FEB73196C2
:10474000CDB7DEB71982118212821382CD0161E0EA
:10475000432F2FEF052FE72EC12E0E943C230F90F1
:104760000F900F900F90DF91CF911F910F91EF90CD
:10477000CF90AF908F900895CF92EF920F938EE2EB
:1047800097E06CE04BE025E004E053E0E52E32E0FA
:10479000C32E0E9483230F91EF90CF9008956F92C4
:1047A0007F928F929F92AF92BF92CF92DF92EF92C1
:1047B000FF920F931F93CF93DF933C018B01EA018C
:1047C00086EB93E06EE471E00E94A30E86EB93E02B
:1047D000B8010E94A30E86EB93E06FE571E00E94A2
:1047E000A30E86EB93E00E948F0DC8016CE671E08A
:1047F0000E9439099093440780934307109246071B
:10480000109245071FC00E941B09E0914507F091D7
:104810004607EE0FFF1FE95BF84F9183808380E02E
:1048200090E06CE671E00E94390990934407809310
:10483000430780914507909146070196909346075C
:104840008093450780914307909144070097D9F6DC
:10485000109246071092450719C0EE0FFF1FE95B43
:10486000F84F6081718186EB93E04AE050E00E944E
:10487000900E86EB93E00E948F0D809145079091FA
:10488000460701969093460780934507E0914507B8
:10489000F0914607EC30F10504F3E9E4F7E0AFE509
:1048A000B7E020E030E007C0808191818D939D9337
:1048B0002F5F3F4F389623303105B4F3EBE4F7E038
:1048C000A5E6B7E020E030E007C0808191818D93BC
:1048D0009D932F5F3F4F389623303105B4F383E02B
:1048E00090E09093720780937107EDE4F7E0ABE6F8
:1048F000B7E040E050E023E030E007C080819181E4
:104900008D939D934F5F5F4F3896C9012C5F3F4F4A
:10491000433051059CF38093710790937207109276
:104920007407109273075BC086EB93E060E771E059
:104930000E94A30E609173077091740786EB93E059
:104940004AE050E00E94900E86EB93E06EE771E043
:104950000E94A30EE0917307F0917407EE0FFF1F02
:10496000E15AF84F6081718186EB93E04AE050E0B4
:104970000E94900E86EB93E06AE871E00E94A30E1D
:10498000E0917307F0917407EE0FFF1FEB59F84F9A
:104990006081718186EB93E04AE050E00E94900EC6
:1049A00086EB93E069E971E00E94A30EE091730742
:1049B000F0917407EE0FFF1FE559F84F6081718188
:1049C00086EB93E04AE050E00E94900E80917307DE
:1049D0009091740701969093740780937307809168
:1049E00073079091740703970CF49ECF00D000D00A
:1049F00000D0EDB7FEB7319620915F073091600788
:104A00000091650710916607E0906B07F0906C07C6
:104A1000C0906107D0906207A0906707B0906807C8
:104A200080906D0790906E07809163079091640766
:104A3000ADB7BEB712969C938E931197809169077C
:104A400090916A079383828380916F07909170079A
:104A500095838483CE01B30143E050E00E9402209D
:104A60008DB79EB706960FB6F8949EBF0FBE8DBF4A
:104A7000DF91CF911F910F91FF90EF90DF90CF903A
:104A8000BF90AF909F908F907F906F900895CF923E
:104A9000DF92EF92FF920F931F93CF93DF938C01DE
:104AA0007B0186EB93E067EA71E00E94A30E86EB40
:104AB00093E0B8010E94A30E86EB93E06DEC71E0E9
:104AC0000E94A30EC8016CED71E00E943909EC014F
:104AD00000E010E082E3C82ED12C2FC086EB93E0DB
:104AE0006EED71E00E94A30E86EB93E0B8014AE000
:104AF00050E00E94900E86EB93E00E948F0D0C9D7B
:104B0000C0010D9D900D1C9D900D11248F5B974F42
:104B1000BE010E943E0986EB93E0BE010E94A30EF7
:104B200086EB93E00E948F0D80E090E06CED71E0E9
:104B30000E943909EC010F5F1F4F209779F6C0E002
:104B4000D0E002E310E0C09FB001C19F700DD09F84
:104B5000700D11246F5B774FCE01A7010E94CF2308
:104B60002196C430D10579F7DF91CF911F910F9134
:104B7000FF90EF90DF90CF9008950F931F930EE278
:104B800017E0C80160E142E020E00E94CD22C801A8
:104B90006DEE71E00E94A30EC8010E94BB221F911E
:104BA0000F9108950E944D1588EC94E00E947311B6
:104BB00061E070E080E090E00E94A31586EB93E056
:104BC00040E855E260E070E00E947F098AE060E022
:104BD0000E9443160895FF920F931F93DF93CF9384
:104BE000CDB7DEB7C85CD1400FB6F894DEBF0FBEBC
:104BF000CDBF0E94D2250E94BD258E010F5F1F4FA1
:104C0000C8010E945820C8010E94F11FF02E012FF8
:104C100011E08AE00E94031720E0892B09F021E0CF
:104C200020937507222309F46DC08EE297E00E945D
:104C3000C5228EE297E063EF71E00E94A30E5CC094
:104C40001092760736C086EB93E00E948009892B8C
:104C500081F186EB93E00E949C09982F8093760760
:104C600080916C03A0913F08B09140089817C1F45F
:104C7000A958B84F1C921092400810923F08109209
:104C8000760786EB93E064E072E00E94A30E86EB69
:104C900093E067E777E00E94A30E10926B0309C0D0
:104CA000FD01E958F84F90831196B0934008A09306
:104CB0003F0880916B03882331F687E797E06F2DDB
:104CC000702F0E94472586EB93E061E272E00E941C
:104CD000A30E68E873E180E090E00E94A3158AE0EB
:104CE0000E94031720E0892B09F021E0209375072B
:104CF000222311F010936B0380917507882309F02C
:104D00009FCF0EC08EE297E00E94C5228EE297E010
:104D10006EE272E00E94A30E8F2D902F0E94F31E70
:104D200064EF71E080E090E00E94A31572CFEF92F3
:104D3000FF920F931F937C0106EB13E0C8016AE317
:104D400072E00E94A30EF70160817181C8014AE000
:104D500050E00E94900EC80168E472E00E94A30E29
:104D6000F70162817381C8014AE050E00E94900E11
:104D7000C8010E948F0D1F910F91FF90EF90089531
:104D8000629FD001739FF001829FE00DF11D649F2F
:104D9000E00DF11D929FF00D839FF00D749FF00DBB
:104DA000659FF00D9927729FB00DE11DF91F639F5C
:104DB000B00DE11DF91FBD01CF0111240895A1E23D
:104DC0001A2EAA1BBB1BFD010DC0AA1FBB1FEE1F85
:104DD000FF1FA217B307E407F50720F0A21BB30BD0
:104DE000E40BF50B661F771F881F991F1A9469F74C
:104DF00060957095809590959B01AC01BD01CF01A8
:104E000008952F923F924F925F926F927F928F926E
:104E10009F92AF92BF92CF92DF92EF92FF920F9349
:104E20001F93CF93DF93CDB7DEB7CA1BDB0B0FB653
:104E3000F894DEBF0FBECDBF09942A883988488810
:104E40005F846E847D848C849B84AA84B984C884A6
:104E5000DF80EE80FD800C811B81AA81B981CE0F9D
:104E6000D11D0FB6F894DEBF0FBECDBFED01089582
:104E7000EE0FFF1F0590F491E02D099452D0E0F061
:104E80009E37D8F09639B8F49E3848F4672F782FBB
:104E90008827985FF9CF869577956795939595398B
:104EA000D0F3B62FB1706B0F711D811D20F4879563
:104EB00077956795939502C01CC04EC0882371F406
:104EC000772321F09850872B762F07C0662311F4A3
:104ED00099270DC09051862B70E060E02AF09A95DA
:104EE000660F771F881FDAF7880F9695879597F9D1
:104EF00008959F3F49F0915028F4869577956795DE
:104F0000B7959F5F80389F4F880F9695879597F943
:104F1000089557FD9058440F551F59F05F3F71F0A9
:104F20004795880F97FB991F61F09F3F79F0879510
:104F30000895121613061406551FF2CF4695F1DF99
:104F400008C0161617061806991FF1CF8695710529
:104F5000610508940895E894BB2766277727CB015D
:084F600097F90895F894FFCFC2
:104F68006E616E00696E66006F7666002E00456E93
:104F78007472656520506F7420566F6C7461676534
:104F88002000203D2000456E7472656520506F74C6
:104F98002056616C6575725F427275742000456EAB
:104FA8007472656520506F742000202520005370AE
:104FB8006C697474696E6720737472696E670069CE
:104FC8006E746F20746F6B656E733A00242A40000C
:104FD8000A436F6D6D616E6465206E6F2000203A24
:104FE800200A436F6465203A20000A56616C657593
:104FF80072206D696E203A20000A56616C657572E0
:10500800206D61783A20000A4465636F75706167A6
:1050180065206465206C6120636861696E65207332
:10502800756976616E7465203A200A20000A456E1B
:105038002034207061727469653A0A0023000A4CB2
:105048005F496E6465785F506F743D2000537461EA
:1050580072740050726F6772616D6D696E67206D52
:105068006F6465000A526563657074696F6E2042EB
:10507800756666657220676C6F62616C203A200AFB
:10508800005472616974656D656E744F4B004D6FA5
:105098006465206E6F726D616C00436F64655F4D6F
:1050A80049444920203D20002056616C65757220D6
:1050B800203D200000000000000000000001020266
:1050C8000303030304040404040404040505050598
:1050D8000505050505050505050505050606060674
:1050E8000606060606060606060606060606060658
:1050F8000606060606060606060606060707070744
:105108000707070707070707070707070707070727
:105118000707070707070707070707070707070717
:105128000707070707070707070707070707070707
:1051380007070707070707070707070708080808F3
:1051480008080808080808080808080808080808D7
:1051580008080808080808080808080808080808C7
:1051680008080808080808080808080808080808B7
:1051780008080808080808080808080808080808A7
:105188000808080808080808080808080808080897
:105198000808080808080808080808080808080887
:1051A8000808080808080808080808080808080877
:1051B80008080808080808080808080800E10000A6
:1051C80000000000010101FFFFFFFF012E000000A9
:1051D80000D1095D0D80099C098C09F909FD0900B8
:1051E800000000A20A5D0D440B010BF40A00000048
:1051F800007A0C5D0D300C4C0C3C0C6A0C00000065
:10520800001B0D000000004E1C5D0D00000000B1E9
:04521800225D0D0006
:00000001FF
