:100000000C9469010C94410B0C946E0B0C949B0B9B
:100010000C94C80B0C9491010C9491010C94F50B69
:100020000C9491010C9491010C946C090C94F309BB
:100030000C9491010C9491010C9491010C949101F8
:100040000C9491010C9491010C9491010C949101E8
:100050000C9491010C9491010C9491010C94230C3B
:100060000C9491010C94DD030C9414040C949101F4
:100070000C9491010C9491010C9491010C949101B8
:100080000C94EB060C9491010C9491010C94910149
:100090000C9491010C9491010C9491010C94910198
:1000A0000C9491010C9491010C949101080B0002A5
:1000B0000202010009040000010202000005240000
:1000C0001001052401010104240206052406000193
:1000D0000705810310004009040100020A00000026
:1000E00007050202400000070583024000000501E9
:1000F0000902A1010901A1008501050919012903CE
:10010000150025019503750181029501750581038F
:1001100005010930093109381581257F75089503D6
:100120008106C0C005010906A1018502050719E085
:1001300029E71500250175019508810295017508CB
:1001400081039506750815002565050719002965C1
:100150008100C0090402000103000000092101011F
:100160000001226500070584034000010000000033
:10017000000000002A2B2800000000000000000002
:100180000000000000000000000000002C9EB4A051
:10019000A1A2A434A6A7A5AE362D3738271E1F204E
:1001A000212223242526B333B62EB7B89F84858613
:1001B0008788898A8B8C8D8E8F9091929394959657
:1001C0009798999A9B9C9D2F3130A3AD35040506D5
:1001D0000708090A0B0C0D0E0F1011121314151637
:1001E0001718191A1B1C1DAFB1B0B5000403090480
:1001F00041726475696E6F204C656F6E6172646FD9
:100200000041726475696E6F204C4C43001201000E
:10021000020000004041233680000101020001126B
:10022000010002020000404123368000010102006B
:100230000100C18081C100000000240027002A00C5
:100240002D00300000000000250028002B002E00AB
:100250003100000000002300260029002C002F00A0
:10026000040404040403040502020202040302025B
:100270000202060606060606040402020204040838
:10028000020110408040102040804080080204019C
:100290008040201002011080102040400000000229
:1002A00000080E0000030401000B00000000000025
:1002B0000000000000000000000007060504010027
:1002C000080A0B0C0D09CE01D402CA042005A808A7
:1002D0002F0E11241FBECFEFDAE0DEBFCDBF11E03D
:1002E000A0E0B1E0E8EFFCE202C005900D92AE3470
:1002F000B107D9F714E0AEE4B1E001C01D92AA3C09
:10030000B107E1F712E0C2EDD2E004C02297FE018E
:100310000E947616C63CD107C9F70E9408160C94B5
:100320007A160C9400000895FC012485858530E040
:10033000205C3F4F281B31092F733070C90108958D
:10034000FC0194858585981719F42FEF3FEF06C0BF
:100350008585E80FF11D8685282F30E0C9010895B5
:10036000DC011C969C911C971D968C911D979817EB
:1003700019F42FEF3FEF10C01D968C911D97FD01D2
:10038000E80FF11D96851D968C911D978F5F8F73D9
:100390001D968C93292F30E0C901089510925101C8
:1003A0001092500188EE93E0A0E0B0E080935201FB
:1003B00090935301A0935401B093550183E191E0D0
:1003C00090934F0180934E0108950F931F93DF93F5
:1003D000CF930F92CDB7DEB78C016983809107016F
:1003E000882369F083E0BE016F5F7F4F41E050E0FA
:1003F0000E94C7081816190614F49C0107C081E072
:1004000090E0F8019383828320E030E0C9010F90EF
:10041000CF91DF911F910F91089583E00E949E0874
:1004200008950F931F93CF93DF938C01FC010FC0AE
:1004300082E00E9484079C01FFEF8F3F9F0799F0A5
:10044000F8018485E80FF11D2687F801C4878485AB
:10045000C82FD0E02196CF73D070F801858590E049
:10046000C817D90729F7DF91CF911F910F910895F0
:10047000FC0180818E5F808380E86CEA70E042E45A
:1004800050E00E949D070895FC0181819081913A7E
:1004900059F4813209F04CC080E060E071E047E03F
:1004A00050E00E949D0742C0913209F041C0803265
:1004B00039F480E091E067E070E00E94860836C081
:1004C000823209F035C0828180930701809100015A
:1004D00090910101A0910201B0910301805B9440D1
:1004E000A040B04019F58091070180FD12C087E758
:1004F00097E790930108809300082BE088E190E053
:100500000FB6F894A895809360000FBE209360000A
:100510000DC088E10FB6F8948093600010926000DF
:100520000FBEA895109201081092000881E008956E
:1005300080E00895FC0191818081813A31F491300D
:1005400089F080E0933089F40DC0813269F49B30EA
:1005500021F482818093080105C09A3029F48281B8
:100560008093090181E0089580E00895EF92FF9261
:100570000F931F938C01E62EDC01ED91FC9104801A
:10058000F581E02D0995F82ED801ED91FC910680BA
:10059000F781E02DC8016E2D09958F2D90E01F91F8
:1005A0000F91FF90EF90089510929C011092A0017E
:1005B00010929F0185E291E090939E0180939D01AE
:1005C0000895EF92FF920F931F93DF93CF930F92B3
:1005D000CDB7DEB789838B017A0184E0BE016F5FFE
:1005E0007F4F41E050E00E94C70884E4B801A701B2
:1005F0000E94C7080F90CF91DF911F910F91FF903C
:10060000EF90089582E048E050E00E94E1020895F2
:10061000FC011682178210861186128613861482B8
:100620003496BF010E9402030895DC01683810F07F
:10063000685829C0E62FF0E067FF13C0E058F0408B
:1006400081E090E002C0880F991FEA95E2F780955B
:1006500014962C911497282314962C93149760E0E9
:1006600012C0E459FE4F6491662319F420E030E093
:100670001DC067FF08C014968C9114978D7F149647
:100680008C9314976F77FD0190E0662321F08681AB
:10069000861709F416829F5F31969630B1F7CD0127
:1006A0001496BD010E94020321E030E0C9010895C3
:1006B000CF93DF93DC01683810F0685825C0E62F2F
:1006C000F0E067FF12C0E058F04081E090E002C027
:1006D000880F991FEA95E2F714962C911497282B0E
:1006E00014962C93149760E00FC0E459FE4F649168
:1006F0006623D9F167FF08C014968C911497826025
:1007000014968C9314976F7716968C91169786177C
:10071000A9F117968C911797861781F118968C91ED
:100720001897861759F119968C911997861731F1F8
:100730001A968C911A97861709F11B968C911B9724
:100740008617E1F0ED01E0E0F0E09E2F8E81882336
:1007500021F4EA0FFB1F668306C09F5F3196219646
:10076000E630F10591F7963049F481E090E0139678
:100770009C938E93129720E030E007C0CD01149631
:10078000BD010E94020321E030E0C901DF91CF9159
:10079000089580E86EEE70E045E650E00E949D0707
:1007A0000895FC0180818F5F808380E863E571E0BC
:1007B00049E150E00E949D0708951F920F920FB6E5
:1007C0000F9211242F933F934F938F939F93EF9307
:1007D000FF938091C80082FD19C04091CE008091A6
:1007E000C701282F30E02F5F3F4F2F73307080916B
:1007F000C80190E02817390759F0E091C701F0E0EF
:10080000E755FE4F42A32093C70102C08091CE005E
:10081000FF91EF919F918F914F913F912F910F9069
:100820000FBE0F901F9018951F920F920FB60F9248
:1008300011242F938F939F93EF93FF939091C9016E
:100840008091CA01981731F48091C9008F7D8093FF
:10085000C90010C0E091CA01F0E0E55FFD4F2081C2
:100860008091CA0190E001968F7390708093CA01C5
:100870002093CE00FF91EF919F918F912F910F9038
:100880000FBE0F901F901895FC01268D878D30E0CC
:10089000205C3F4F281B31092F733070C901089528
:1008A000FC01968D878D981719F42FEF3FEF06C046
:1008B000878DE80FF11D82A1282F30E0C90108952E
:1008C000DC015E969C915E975F968C915F9798177E
:1008D00019F42FEF3FEF10C05F968C915F97FD01E9
:1008E000E80FF11D92A15F968C915F978F5F8F73D8
:1008F0005F968C93292F30E0C9010895DC015D9645
:100900008C915D97882339F05096ED91FC91519729
:10091000808186FFF9CF5D961C920895DC01909648
:100920008C919097282F30E02F5F3F4F2F733070BE
:1009300091968C91919790E028173907C9F390967A
:100940008C919097FD01E80FF11DEE59FF4F6083E8
:1009500090962C9390975296ED91FC91539720810D
:1009600081E090E05B960C905B9702C0880F991F26
:100970000A94E2F7282B208381E05D968C935D97A3
:100980005096ED91FC91519780818064808381E045
:1009900090E008951092AC011092AB0188EE93E0C4
:1009A000A0E0B0E08093AD019093AE01A093AF01C1
:1009B000B093B00183E391E09093AA018093A901E1
:1009C0001092CA018091CA018093C9011092C80196
:1009D0008091C8018093C7018DEC90E09093B6019F
:1009E0008093B5018CEC90E09093B8018093B701AF
:1009F00088EC90E09093BA018093B90189EC90E083
:100A00009093BC018093BB018AEC90E09093BE016F
:100A10008093BD018EEC90E09093C0018093BF0164
:100A200084E08093C10183E08093C20187E08093DA
:100A3000C30185E08093C40181E08093C5010895DE
:100A400083E491E090934C0280934B0210924D020C
:100A500010924E0210924F021092500208958F92FF
:100A60009F92AF92BF92CF92DF92EF92FF920F933D
:100A70001F93CF93DF934C016B017C01AA24BB240D
:100A8000C0E0D0E0C601F70162814AE050E00E9478
:100A900052068C01C6016EE20E949B05080F191FC9
:100AA000A00EB11E21960894E11CF11CC330D105A3
:100AB00049F7C601F40165814AE050E00E94520600
:100AC0009501280F391FC901DF91CF911F910F9117
:100AD000FF90EF90DF90CF90BF90AF909F908F905E
:100AE0000895CF92DF92EF92FF920F931F93CF93CF
:100AF000DF937C016B018A01C0E0D0E00FC0D6011A
:100B00006D916D01D701ED91FC910190F081E02D87
:100B1000C7010995C80FD91F0150104001151105D3
:100B200071F7CE01DF91CF911F910F91FF90EF9060
:100B3000DF90CF900895DC01ED91FC910190F08160
:100B4000E02D09950895EF92FF920F931F938C016A
:100B5000DC01ED91FC910190F081E02D6DE00995B3
:100B60007C01D801ED91FC910190F081E02DC8014C
:100B70006AE009959C012E0D3F1DC9011F910F913F
:100B8000FF90EF900895CF93DF93EC01611571050D
:100B900019F420E030E00FC0DB010D900020E9F7F0
:100BA0001197A61BB70BE881F9810280F381E02D34
:100BB000AD0109959C01C901DF91CF9108954F9234
:100BC0005F927F928F929F92AF92BF92CF92DF926D
:100BD000EF92FF920F931F93DF93CF93CDB7DEB7C2
:100BE000A1970FB6F894DEBF0FBECDBF2C01742EB7
:100BF000CB01223008F42AE019A231E2C32ED12C15
:100C0000CC0EDD1E822E9924AA24BB24672D752FBD
:100C1000A50194010E94521679018A01C801B70109
:100C2000A50194010E943316472D461B0894C10864
:100C3000D1084A3014F4405D01C0495CF60140839C
:100C4000E114F1040105110521F07E2C5F2DC8018E
:100C5000DDCFC201B6010E94C305A1960FB6F8947C
:100C6000DEBF0FBECDBFCF91DF911F910F91FF90DF
:100C7000EF90DF90CF90BF90AF909F908F907F903C
:100C80005F904F900895DC012115310541F4ED91FD
:100C9000FC910190F081E02D642F099508950E9448
:100CA000DF050895EF92FF920F931F939A01E62EAE
:100CB000FF2400E010E0B801A7010E9443061F9145
:100CC0000F91FF90EF900895CF92DF92EF92FF92F5
:100CD0000F931F93CF93DF93EC016A017B012115E2
:100CE000310541F4E881F9810190F081E02D642F14
:100CF00009951FC02A303105D1F477FF17C0E8816C
:100D0000F9810190F081E02D6DE209958C01442775
:100D10005527BA014C195D096E097F09CE012AE0F9
:100D20000E94DF059801280F391F04C02AE00E94A5
:100D3000DF059C01C901DF91CF911F910F91FF90B9
:100D4000EF90DF90CF900895CF92DF92EF92FF92D5
:100D50000F931F936C017B019A010027F7FC00950C
:100D6000102FB801A7010E9464068C01C6010E94E1
:100D7000A305080F191FC8011F910F91FF90EF9055
:100D8000DF90CF9008958230B9F0833028F4882323
:100D900051F08130F9F40AC08430B9F0843090F019
:100DA0008530C1F415C010926E00089580916F00D7
:100DB0008D7F80936F000895809170008D7F809368
:100DC00070000895109271000895109272000895B5
:100DD0001092730008951F920F920FB60F92112474
:100DE0002F933F934F935F936F937F938F939F9333
:100DF000AF93BF93EF93FF93809151029091520272
:100E0000A0915302B09154020097A105B10551F190
:100E1000E0915502F0915602808190915702892706
:100E200080838091510290915202A0915302B0911F
:100E30005402181619061A061B060CF58091510269
:100E400090915202A0915302B09154020197A109CE
:100E5000B1098093510290935202A0935302B09330
:100E600054020DC083E00E94C306E0915502F09148
:100E70005602908180915702809589238083FF914B
:100E8000EF91BF91AF919F918F917F916F915F9102
:100E90004F913F912F910F900FBE0F901F9018957B
:100EA000282F80915A028823C1F057FF1AC015C01D
:100EB0002898909359028091F1008193E217F307EB
:100EC000B9F74115510539F08091F200882319F4E2
:100ED0008BE68093E800AFBF02C04FEF5FEFCA011F
:100EE0000895AFB7F89427702093E9008091F2003D
:100EF000282F30E0241735070CF4A901FB019B01D2
:100F0000240F311D94E6DACFDF93CF930F92CDB744
:100F1000DEB7BE016F5F7F4F41E050E00E94500797
:100F2000019719F02FEF3FEF03C08981282F30E0A0
:100F3000C9010F90CF91DF910895FF920F931F93F6
:100F4000F82E142F052F40915D0250915E02212F43
:100F5000302FC901DC01FB016EEF29C0F7FE02C092
:100F6000949101C0908120915B0230915C02241722
:100F70003507ACF48091E8008570E1F38091E800DA
:100F800082FF03C02FEF3FEF17C09093F100C9011C
:100F900001968F739070892B11F46093E8002F5F96
:100FA0003F4F30935C0220935B021197319610976C
:100FB000A9F6812F902F9C01C9011F910F91FF90DD
:100FC00008951F93782FE92F162F20915B023091FF
:100FD0005C02A0915D02B0915E022A173B07C4F447
:100FE0008091E8008570E1F38091E80082FD16C0F1
:100FF000812F90E00196880F991F8093F100C9011D
:1010000001968F739070892B19F48EEF8093E8000E
:101010002F5F3F4F30935C0220935B0220915B0275
:1010200030915C022A173B07A4F48091E800857098
:10103000E1F38091E80082FD12C083E08093F1002B
:10104000C90101968F739070892B19F48EEF8093EC
:10105000E8002F5F3F4F30935C0220935B0240918A
:101060005B0250915C02872F9E2FFC0170E06EEFB7
:1010700043C094914A175B07A4F48091E8008570FF
:10108000E1F38091E80082FF02C020E00DC0909360
:10109000F100CA0101968F739070892B11F460934F
:1010A000E8004F5F5F4F21E04A175B07A4F480918F
:1010B000E8008570E1F38091E80082FF02C080E0E3
:1010C0000DC01092F100CA0101968F739070892BA8
:1010D00011F46093E8004F5F5F4F81E0319690E03C
:1010E00030E082239323892B31F450935C024093A8
:1010F0005B0280E009C07F5F711708F4BACF50939C
:101100005C0240935B0281E01F9108959C018091F5
:10111000E80082FFFCCFF901260F311D03C080914A
:10112000F1008193E217F307D1F7289884E68093C2
:1011300059028BEF8093E800CB0108958093E9007A
:101140008091F200882319F08AE38093E8000895E3
:10115000089510925A0281E08093D70080EA80932C
:10116000D80082E189BD09B400FEFDCF61E070E0E6
:1011700080E090E00E94CF0C80E98093D8008CE062
:101180008093E2001092E000559A209A08955F92B1
:101190006F927F928F929F92AF92BF92CF92DF9287
:1011A000EF92FF920F931F93CF93DF93E82E842E3D
:1011B000752E80915A02882371F18B01242F352FCF
:1011C000C901EC01AAEFFA2EF7E09F2E9E20E0E481
:1011D0005E2E8E2D90E070E2A72EB12CA822B922AF
:1011E0006AE3662E50E4C52ED12CC822D92258C0FD
:1011F0009FB7F8949092E9008091E80085FD02C0C5
:1012000020E004C08091F200252D281B9FBF2223DF
:1012100061F4FA9419F42FEF3FEF4DC061E070E0F4
:1012200080E090E00E94CF0C3BC0822F90E0C81776
:10123000D9070CF42C2FC21BD1094FB7F894909208
:10124000E900A114B10421F406C01092F10021506C
:101250002223D9F719C0E7FC03C0F801922F10C070
:10126000C801322F06C0FC010196E491E093F10021
:1012700031503323C1F706C081918093F100915022
:101280009923D1F7020F111D8091E80085FF05C059
:10129000209729F4C114D10411F06092E8004FBFE7
:1012A000209709F0A5CF5D9884E680935802282DF9
:1012B000372DC9019C01C901DF91CF911F910F9179
:1012C000FF90EF90DF90CF90BF90AF909F908F9066
:1012D0007F906F905F9008951F920F920FB60F92BC
:1012E00011242F933F934F935F936F937F938F932B
:1012F0009F93AF93BF93EF93FF938091E100109280
:10130000E100982F83FF0FC01092E90081E08093E5
:10131000EB001092EC0082E38093ED0010925A02F1
:1013200088E08093F00092FF34C083E08093E9006E
:101330008091F200882319F08AE38093E8008FB748
:10134000F89492E09093E9009091F2008FBF992376
:1013500021F08EE491E00E941102809158028823CE
:1013600051F0809158028150809358028091580228
:10137000882309F45D9A80915902882351F0809165
:10138000590281508093590280915902882309F4AF
:10139000289AFF91EF91BF91AF919F918F917F918B
:1013A0006F915F914F913F912F910F900FBE0F90D2
:1013B0001F9018950F931F93DF93CF930F92CDB784
:1013C000DEB719828E010F5F1F4FC8010E943802DD
:1013D000C8010E94D103898190E00F90CF91DF91E5
:1013E0001F910F9108951F920F920FB60F92112423
:1013F000EF92FF921F932F933F934F935F936F93BF
:101400007F938F939F93AF93BF93EF93FF93DF935C
:10141000CF93CDB7DEB76197DEBFCDBF1092E900A5
:101420008091E80083FF14C1FE0131969E01275F81
:101430003F4F03C08091F1008193E217F307D1F78A
:10144000289884E68093590282EF8093E80099817E
:1014500097FF05C08091E80080FFFCCF03C08EEFAE
:101460008093E800292F30E0C90180769070892BA5
:1014700009F0C7C08A81882329F41092F1001092E4
:10148000F100DBC0813009F4D8C0833009F4D5C045
:10149000853049F48091E80080FFFCCF8B81806823
:1014A0008093E300CAC0863009F081C01C81EF80C0
:1014B000F8841230C1F51092E90010925C0210928B
:1014C0005B0210925E0210925D020E94DA0999E0BE
:1014D000FE013996DF01292F1D922A95E9F7998798
:1014E0001A8791E09E8790E8988B9AEF998B2091CC
:1014F0005B0230915C02275F3F4F3C872B878D87D3
:101500001092E90010925C0210925B02F0925E026F
:10151000E0925D0280E0BF0149E050E00E949D073B
:101520000E94DA098AC01092E90010925C021092BF
:101530005B02F0925E02E0925D02123241F482E2BE
:1015400090E00E94C903892B09F47BC076C011305A
:1015500079F488E0E816F10419F481E080935F02E1
:1015600080915F02882309F070C0EDE0F2E018C0BE
:10157000133009F066C08B81882319F4ECEEF1E09A
:101580000FC0823021F480EF91E060E106C081302D
:1015900009F057C081E092E06BE00E94E1074BC088
:1015A000449180E8BF0150E00E949D0746C087300B
:1015B00009F447C0883021F481E08093F1003DC0F8
:1015C0008930D9F523703070232BD9F5E2E3F2E0AE
:1015D00091E031E026E39093E9003093EB008491B1
:1015E0008093EC002093ED009F5F3196953099F742
:1015F0008EE78093EA001092EA008B8180935A0272
:101600001CC08F8198851092E90010925C021092A4
:101610005B0290935E0280935D028D81882329F4A2
:10162000CE0101960E94440206C0823051F4CE01E0
:1016300001960E949A02882321F08EEF8093E800A1
:1016400007C081E28093EB0003C0EFE1F2E0A8CF96
:101650006196DEBFCDBFCF91DF91FF91EF91BF913A
:10166000AF919F918F917F916F915F914F913F913A
:101670002F911F91FF90EF900F900FBE0F901F9032
:1016800018951F920F920FB60F9211242F933F932C
:101690004F935F936F937F938F939F93AF93BF937A
:1016A000EF93FF938091610290916202892B29F060
:1016B000E0916102F09162020995FF91EF91BF9173
:1016C000AF919F918F917F916F915F914F913F91DA
:1016D0002F910F900FBE0F901F9018951F920F9291
:1016E0000FB60F9211242F933F934F935F936F93F5
:1016F0007F938F939F93AF93BF93EF93FF938091CB
:10170000630290916402892B29F0E0916302F091C9
:1017100064020995FF91EF91BF91AF919F918F91D5
:101720007F916F915F914F913F912F910F900FBEDD
:101730000F901F9018951F920F920FB60F921124C1
:101740002F933F934F935F936F937F938F939F93C9
:10175000AF93BF93EF93FF938091650290916602E0
:10176000892B29F0E0916502F09166020995FF91BD
:10177000EF91BF91AF919F918F917F916F915F9109
:101780004F913F912F910F900FBE0F901F90189582
:101790001F920F920FB60F9211242F933F934F93E6
:1017A0005F936F937F938F939F93AF93BF93EF93C9
:1017B000FF938091670290916802892B29F0E09154
:1017C0006702F09168020995FF91EF91BF91AF9187
:1017D0009F918F917F916F915F914F913F912F9149
:1017E0000F900FBE0F901F9018951F920F920FB67B
:1017F0000F9211242F933F934F935F936F937F9397
:101800008F939F93AF93BF93EF93FF938091690260
:1018100090916A02892B29F0E0916902F0916A02A5
:101820000995FF91EF91BF91AF919F918F917F911A
:101830006F915F914F913F912F910F900FBE0F903D
:101840001F90189508951F920F920FB60F921124B2
:101850002F933F938F939F93AF93BF9380916F028A
:1018600090917002A0917102B09172023091730256
:101870000196A11DB11D232F2D5F2D3720F02D576F
:101880000196A11DB11D2093730280936F02909366
:101890007002A0937102B093720280916B029091DA
:1018A0006C02A0916D02B0916E020196A11DB11D56
:1018B00080936B0290936C02A0936D02B0936E02C2
:1018C000BF91AF919F918F913F912F910F900FBE3C
:1018D0000F901F9018958FB7F89420916F02309158
:1018E000700240917102509172028FBFB901CA011A
:1018F0000895789484B5826084BD84B5816084BD88
:1019000085B5826085BD85B5816085BDEEE6F0E078
:10191000808181608083E1E8F0E0108280818260D4
:101920008083808181608083E0E8F0E08081816055
:101930008083E1E9F0E08081826080838081816042
:101940008083E0E9F0E0808181608083E1ECF0E079
:1019500080818460808380818260808380818160D7
:101960008083E3ECF0E0808181608083E0ECF0E054
:10197000808182608083E2ECF0E0808181608083FE
:10198000EAE7F0E0808184608083808182608083E8
:101990008081816080838081806880830895EF9258
:1019A000FF920F931F93CF93DF937B018C013FB77F
:1019B000F89480916B0290916C02A0916D02B091AD
:1019C0006E0226B5A89B05C02F3F19F00196A11DF8
:1019D000B11D3FBFBA2FA92F982F8827820F911DC5
:1019E000A11DB11D52E0880F991FAA1FBB1F5A9558
:1019F000D1F7EC0130C00E94220C3FB7F8948091DF
:101A00006B0290916C02A0916D02B0916E0226B5AE
:101A1000A89B05C02F3F19F00196A11DB11D3FBF26
:101A2000BA2FA92F982F8827820F911DA11DB11DB4
:101A300032E0880F991FAA1FBB1F3A95D1F78C1B64
:101A40009D0B885E9340B8F20894E108F108010903
:101A50001109C851DC4FE114F1040105110559F6D3
:101A6000DF91CF911F910F91FF90EF9008958231F8
:101A700008F08251E82FF0E0E654FD4FE491209108
:101A80007B008E2F86958695869590E0817090706C
:101A900035E0880F991F3A95E1F72F7D282B209389
:101AA0007B00E77080910A018295880F880F807C07
:101AB0008E2B80937C0080917A00806480937A00E2
:101AC00080917A0086FDFCCF2091780040917900CA
:101AD000942F80E030E0282B392BC9010895CF9353
:101AE000DF93482F50E0CA0182589D4FFC0134918A
:101AF000405A5D4FFA018491882369F190E0880F84
:101B0000991FFC01EA5CFD4FA591B491FC01EC5BCF
:101B1000FD4FC591D491662351F42FB7F8948C9161
:101B2000932F909589238C93888189230BC06230F1
:101B300061F42FB7F8948C91932F909589238C930F
:101B40008881832B88832FBF06C09FB7F8948C9120
:101B5000832B8C939FBFDF91CF910895883071F1D3
:101B6000893068F4823031F1833020F4813009F01B
:101B700042C01DC0833089F08430E9F512C08B303B
:101B800059F18C3028F48930E9F08A30A1F51EC073
:101B90008C3031F18E3079F529C0809180008F77BB
:101BA00003C0809180008F7D80938000089584B56C
:101BB0008F7702C084B58F7D84BD08958091900099
:101BC0008F7707C0809190008F7D03C08091900037
:101BD000877F8093900008958091C0008F7703C025
:101BE0008091C0008F7D8093C00008958091C200D5
:101BF000877F8093C2000895FF920F931F93F62E64
:101C0000482F50E0CA0184569D4FFC012491CA011F
:101C100082589D4FFC011491405A5D4FFA01049186
:101C20000023C9F0222319F0822F0E94AE0DE02F6D
:101C3000F0E0EE0FFF1FEC5BFD4FA591B4919FB755
:101C4000F894FF2021F48C911095812302C08C918F
:101C5000812B8C939FBF1F910F91FF90089510923D
:101C6000790210927A0210927D0210927F0282E035
:101C700090E0A0E0B0E08093800290938102A09376
:101C80008202B0938302109297021092A1021092E6
:101C9000A00289E491E090939F0280939E021092AB
:101CA000A3020895FF920F931F93CF93DF938B01AD
:101CB0000E946B0CEB01FF24FA94FEBC0DB407FEEE
:101CC000FDCF8EB58F3F11F481E008C00E946B0CF0
:101CD0006C1B7D0B6017710780F380E0DF91CF9163
:101CE0001F910F91FF900895FC01848160E00E9494
:101CF000FC0D0895FC01848161E00E94FC0D0895B3
:101D0000DC016EBD0DB407FEFDCF8EB520E030E0E6
:101D1000FA01E20FF31F80818EBD0DB407FEFDCFE7
:101D20008EB52F5F3F4F82E02030380789F78FEF65
:101D30008EBD0DB407FEFDCF8EB58FEF8EBD0DB4F9
:101D400007FEFDCF8EB58FEF8EBD0DB407FEFDCF24
:101D50008EB51A968C931A978F71853011F481E0A5
:101D6000089581E115968C931597CD010E947A0E06
:101D700080E00895FF920F931F93CF93DF93EC01C0
:101D80000E946B0C8B01FF24FA9409C00E946B0C1B
:101D9000601B710B6D52714010F08FE00DC0FEBCE6
:101DA0000DB407FEFDCF8EB58A878F3F79F38E3F46
:101DB00011F481E006C08DE08D83CE010E947A0E81
:101DC00080E0DF91CF911F910F91FF900895CF9305
:101DD000DF93EC018E818823B1F02F8138854FEF9E
:101DE00005C04EBD0DB407FEFDCF8EB52F5F3F4F32
:101DF000C901019782509240A0F338872F83CE010A
:101E00000E947A0E1E82DF91CF910895DF92EF92A9
:101E1000FF920F931F93CF93DF93EC01D62E79019E
:101E20008A010E94E70ECE010E94740ECE016CE280
:101E300071E00E94520E8D2D80648EBD0DB407FEA0
:101E4000FDCF8EB528E130E0D801C701022E04C0D5
:101E5000B695A795979587950A94D2F78EBD0DB440
:101E600007FEFDCF8EB5285030408FEF283F380752
:101E700059F7DD2011F485E906C088E0D81611F481
:101E800087E801C08FEF8EBD0DB407FEFDCF8EB584
:101E900090E02FEF2EBD0DB407FEFDCF8EB587FF6E
:101EA00002C09150B9F78A87DF91CF911F910F91AE
:101EB000FF90EF90DF900895CF92DF92EF92FF9224
:101EC0000F931F93CF93DF93EC017A018B0169018C
:101ED000411551056105710511F482E137C08B850B
:101EE000833039F099E0EE0CFF1C001F111F9A950A
:101EF000D1F7CE0168E1A80197010E94060F88235F
:101F000011F084E023C0CE016EEFA6010E94800E86
:101F10008823E9F0CE0168E572E00E94520E882322
:101F200011F485E113C0CE016DE020E030E040E027
:101F300050E00E94060F882341F48FEF8EBD0DB450
:101F400007FEFDCF8EB5882379F084E18D83CE0125
:101F50000E947A0E80E0DF91CF911F910F91FF9048
:101F6000EF90DF90CF900895CE010E947A0E81E02D
:101F7000F2CF8F929F92AF92BF92CF92DF92EF9269
:101F8000FF920F931F93CF93DF93EC015A016B01E4
:101F900049010115110509F470C0C801820F931F92
:101FA0008150924008F064C08E81882371F088814E
:101FB0009981AA81BB81481759076A077B0729F4D1
:101FC0008F8198858816990610F5A882B982CA82F1
:101FD000DB828B85833039F059E0AA0CBB1CCC1C0A
:101FE000DD1C5A95D1F7CE0161E1A60195010E9451
:101FF000060F882319F083E08D833AC0CE010E943A
:10200000BA0E8823A9F118861F8281E08E838F8102
:1020100098852FEF06C02EBD0DB407FEFDCF3EB54F
:10202000019688159905B8F398878F8320E030E0F2
:102030009FEF0BC09EBD0DB407FEFDCF8EB5F7011F
:10204000E20FF31F80832F5F3F4F2017310790F37C
:102050002F813885200F311F38872F83898588236A
:1020600019F02050324048F0CE010E94E70E05C022
:10207000CE010E947A0E80E001C081E0DF91CF9115
:102080001F910F91FF90EF90DF90CF90BF90AF9096
:102090009F908F900895EF92FF920F931F93790175
:1020A00020E030E000E012E00E94B90F1F910F9194
:1020B000FF90EF9008956F927F928F929F92AF92D0
:1020C000BF92CF92DF92EF92FF920F931F93CF9325
:1020D000DF93EC017A018B012D81222309F480C06A
:1020E0008B899C89AD89BE8984179507A607B70798
:1020F00008F476C085C0E114F1040105110549F426
:102100001E821F82188619861A861B861C861D86CB
:1021100065C02A853B854C855D85EB8DFC8D85856D
:1021200090E00996215030404040504039014A012A
:10213000082E04C096948794779467940A94D2F7F3
:102140002F5F3F4F4F4F5F4F0894E108F10801099F
:1021500011095701680104C0D694C794B794A79495
:102160008A95D2F70894E11CF11C011D111DA614DB
:10217000B704C804D90428F02115310541055105DB
:1021800049F48F89988DA98DBA8D8E839F83A887F6
:10219000B98716C0A618B708C808D90811C04E815B
:1021A0005F81688579858B8D9C8D94010E946D146B
:1021B0000894A108B108C108D108882331F410C0DF
:1021C00086E0882E912C8C0E9D1EA114B104C104B2
:1021D000D10429F7EA86FB860C871D8781E001C0C0
:1021E00080E0DF91CF911F910F91FF90EF90DF90F2
:1021F000CF90BF90AF909F908F907F906F900895F9
:10220000223009F078CFE6CFCF93DF93EC01462F51
:102210006E857F85888999890E949613882319F491
:1022200020E030E00AC08A89282F30E095E0220FB4
:10223000331F9A95E1F721543D4FC901DF91CF91AA
:1022400008950F931F93CF93DF938C01FC01858139
:102250008823D9F1848187FF35C0C80161E00E94DD
:102260000411EC01009789F1F8018581823040F476
:1022700083899489A589B6898C8F9D8FAE8FBF8FF6
:10228000F8018789908D9B8F8A8F8789908DA18D8A
:10229000B28DCD01AA27BB279D8B8C8BE091BD020F
:1022A000F091BE02309751F0BE016A5E7F4FCE01C1
:1022B00048960995888D998D9B8B8A8BF80184812E
:1022C0008F7784830E945B1301C080E0DF91CF9100
:1022D0001F910F910895CF93DF93EC019C012A5F2A
:1022E0003F4F8B8D9C8D41E050E060E070E00E949C
:1022F000E0148823A1F08F89988DA98DBA8D00975D
:10230000A105B10559F48E819F81A885B9858F8B70
:10231000988FA98FBA8F8C8180688C8381E0DF9140
:10232000CF9108952F923F924F925F927F928F921A
:102330009F92AF92BF92CF92DF92EF92FF920F9354
:102340001F93DF93CF9300D000D000D0CDB7DEB77E
:102350006C01162F072F5E834D83DC0115968C913F
:102360001597813009F070C114968C9181FF6CC172
:102370008EC1F60143895489658976898285938562
:10238000A485B58584179507A607B70731F0C60160
:102390000E945B10882309F457C1812F902F9C0164
:1023A00029012D803E8017C1D6015B96ED91FC91ED
:1023B0005C97DA01C90119E0B695A79597958795BD
:1023C0001A95D1F774807A9478227FEF872E71E086
:1023D000972E82229322772009F04EC08114910417
:1023E00009F04AC0D60116964D915D916D917C9190
:1023F0001997411551056105710581F457968D9125
:102400009D910D90BC91A02D0097A105B10549F1BA
:10241000F60186839783A087B1872EC0CF019E01E6
:102420002F5F3F4F0E946D14882309F414C1298146
:102430003A814B815C81D6015B96ED91FC915C9772
:102440008789803129F088EF9FEFAFEFBFE004C0AC
:1024500088EF9FEFA0E0B0E0281739074A075B0735
:1024600030F0C6010E946B11882331F4EDC0F601F3
:10247000268337834087518780E092E08819990945
:1024800051018215930508F45C01D6015B96ED912C
:10249000FC915C971696ED90FD900D911C9119970B
:1024A0008EEF9FEFAFEFBFEFE80EF91E0A1F1B1F65
:1024B000058404C0EE0CFF1C001F111F0A94D2F704
:1024C00086859785A089B189E80EF91E0A1F1B1F12
:1024D000E70CF11C011D111D90E0A91692E0B90650
:1024E00051F580910B0190910C01A0910D01B091DB
:1024F0000E018E159F05A007B10761F48FEF9FEFC6
:10250000AFEFBFEF80930B0190930C01A0930D01EF
:10251000B0930E018091BF049091C004B801A7014F
:1025200092010E945C0F882309F48EC0A0E0B2E003
:102530004A0E5B1E3EC08114910409F5F601228506
:1025400033854485558583899489A589B68928175B
:1025500039074A075B0798F00E945B13882309F448
:1025600073C0E0920B01F0920C0100930D011093E7
:102570000E018091C10481608093C10408C0C8012C
:10258000B70141E00E949613882309F45DC09401CD
:1025900021543D4FA9014A0D5B1DD201F90102C032
:1025A0008D918193E417F507D9F7E21BF30B4E0EDB
:1025B0005F1E2A183B08950140E050E0F601828535
:1025C0009385A485B585820F931FA41FB51F8287AD
:1025D0009387A487B587D6011A962D913D914D9189
:1025E0005C911D972114310409F0DECE53968D9134
:1025F0009D910D90BC91A02D82179307A407B5075C
:1026000048F4F601238B348B458B568B848180688C
:10261000848311C08091BD029091BE02892B59F034
:102620008D819E81892B39F0D60114968C91149757
:10263000806814968C93F601848183FF0EC0C601D6
:102640000E942111882349F481E090E0D60113967D
:102650009C938E9312971E821D828D819E81269659
:102660000FB6F894DEBF0FBECDBFCF91DF911F91A3
:102670000F91FF90EF90DF90CF90BF90AF909F9021
:102680008F907F905F904F903F902F90089582FDA4
:1026900070CE83CEDF93CF930F92CDB7DEB7698331
:1026A000BE016F5F7F4F41E050E00E9492110F909A
:1026B000CF91DF9108958091C104882399F14091D1
:1026C0000B0150910C0160910D0170910E018091F0
:1026D000BF049091C0042FEB32E00E945C0F88236E
:1026E00019F14091C2045091C3046091C4047091E7
:1026F000C504411551056105710591F08091BF0434
:102700009091C0042FEB32E00E945C0F882361F0AF
:102710001092C2041092C3041092C4041092C50413
:102720001092C10481E0089580E00895DF92EF9255
:10273000FF920F931F937B018C01D42E80910B018C
:1027400090910C01A0910D01B0910E018E159F0585
:10275000A007B107C1F00E945B138823D9F08091D4
:10276000BF049091C004B801A7012FEB32E00E9492
:102770004B10882379F0E0920B01F0920C0100934A
:102780000D0110930E018091C1048D298093C10425
:1027900081E001C080E01F910F91FF90EF90DF90EA
:1027A00008954F925F926F927F928F929F92AF9215
:1027B000BF92CF92DF92EF92FF920F931F93CF932E
:1027C000DF93EC016A017B01280139014230510598
:1027D0006105710508F46FC089859A85AB85BC8554
:1027E0000196A11DB11D84179507A607B70708F428
:1027F00062C02B893C894D895E898F89803129F49B
:1028000099278F2D7E2D6D2D09C0C701B60117E0C8
:1028100096958795779567951A95D1F74B015C0149
:10282000820E931EA41EB51E80910B0190910C0187
:10283000A0910D01B0910E0188169906AA06BB065B
:1028400039F0C501B40140E00E949613882399F144
:102850008F89803149F4F601F070EE0FFF1FE154CB
:10286000FD4F518240820DC0F601EF77F070EE0F00
:10287000FF1FEE0FFF1FE154FD4F40825182628225
:1028800073828091C10481608093C1048A898230FF
:1028900080F08D819E81AF81B885880E991EAA1E19
:1028A000BB1E8092C2049092C304A092C404B09252
:1028B000C50481E001C080E0DF91CF911F910F91AD
:1028C000FF90EF90DF90CF90BF90AF909F908F9050
:1028D0007F906F905F904F900895CF92DF92EF922C
:1028E000FF920F931F93CF93DF93EC017A018B013B
:1028F000690189859A85AB85BC850196A11DB11DAD
:1029000084179507A607B70708F450C02B893C89A0
:102910004D895E898F89803129F49927812F702F05
:102920006F2D09C0C801B701E7E0969587957795A7
:102930006795EA95D1F7260F371F481F591F8091D9
:102940000B0190910C01A0910D01B0910E0128177F
:1029500039074A075B0739F0CA01B90140E00E9414
:102960009613882319F18F89803159F4F701F0709B
:10297000EE0FFF1FE154FD4F80819181A0E0B0E098
:102980000EC0F701EF77F070EE0FFF1FEE0FFF1F85
:10299000E154FD4F80819181A281B381BF70F60126
:1029A00080839183A283B38381E001C080E0DF91C3
:1029B000CF911F910F91FF90EF90DF90CF900895EE
:1029C0002F923F924F925F926F927F928F929F923F
:1029D000AF92BF92CF92DF92EF92FF920F931F932D
:1029E000DF93CF93CDB7DEB72F970FB6F894DEBF46
:1029F0000FBECDBF1C014A875B876C877D873F87F1
:102A00002E87D9010D911D912D913C910115110534
:102A10002105310549F0480159010894811C911C98
:102A2000A11CB11C198610C0FC0180809180A2807D
:102A3000B38019868A859B85AC85BD850197A105E4
:102A4000B10511F491E09987D10119968D919D916D
:102A50000D90BC91A02D0196A11DB11D8D839E836B
:102A6000AF83B887750164014424552432018E0177
:102A70000F5F1F4FF10181859285A385B4854816AC
:102A800059066A067B0608F090C08D819E81AF8151
:102A9000B8858C159D05AE05BF0550F482E0882EE3
:102AA000912CA12CB12CB2E0CB2ED12CE12CF12C0D
:102AB000C101B701A60198010E946D14882309F491
:102AC00074C089819A81AB81BC81A70196012F5F77
:102AD0003F4F4F4F5F4F0097A105B10519F04901D6
:102AE0005A010DC0281939094A095B098A859B8555
:102AF000AC85BD85281739074A075B0759F008944C
:102B0000411C511C611C711C0894C11CD11CE11C8E
:102B1000F11CB0CFC101A601B7010FEF1FEF2FEFDE
:102B20003FE00E94D113882399F43FC0260137016A
:102B300008944108510861087108C101B301A2015C
:102B4000970186010E94D113882379F173016201F4
:102B50008C149D04AE04BF0448F3AE85BF854D912F
:102B60005D916D917C91411551056105710539F0BB
:102B7000C101950184010E94D1138823B1F0EE8533
:102B8000FF8580829182A282B382F985FF2359F06A
:102B90000894811C911CA11CB11CD1018D929D92A5
:102BA000AD92BC92139781E001C080E02F960FB6E2
:102BB000F894DEBF0FBECDBFCF91DF911F910F9173
:102BC000FF90EF90DF90CF90BF90AF909F908F904D
:102BD0007F906F905F904F903F902F9008950E944C
:102BE000790C80E692E00E94A90861E070E080E044
:102BF00090E00E94CF0C8DE061E00E946F0D8EE4AA
:102C000091E040E855E260E070E00E949301089591
:102C10000E94EF1582E10E94370DBC0183E075959B
:102C200067958A95E1F77093C7046093C604809115
:102C3000C8049091C9046817790771F08EE491E097
:102C40004AE050E00E94A4068091C6049091C70417
:102C50009093C9048093C80461E070E080E090E044
:102C60000E94CF0CD7CF629FD001739FF001829F4B
:102C7000E00DF11D649FE00DF11D929FF00D839F0B
:102C8000F00D749FF00D659FF00D9927729FB00DA8
:102C9000E11DF91F639FB00DE11DF91FBD01CF01BB
:102CA00011240895A1E21A2EAA1BBB1BFD010DC021
:102CB000AA1FBB1FEE1FFF1FA217B307E407F507EC
:102CC00020F0A21BB30BE40BF50B661F771F881FC8
:102CD000991F1A9469F760957095809590959B015E
:102CE000AC01BD01CF010895EE0FFF1F0590F491D7
:082CF000E02D0994F894FFCFD8
:102CF80000E1000000000000010101FFFFFFFF00EC
:102D0800000000E50171059401B001A0010D021158
:102D18000200000000B602710558031503080300FD
:102D28000000008E0471054404600450047E040011
:0E2D38000000002F05000000004A1371050086
:00000001FF
