:100000000C9489040C94150E0C94420E0C946F0EF3
:100010000C949C0E0C94B1040C94B1040C94C90E75
:100020000C94B1040C94B1040C94410C0C94C80CC5
:100030000C94B1040C94B1040C94B1040C94B1046C
:100040000C94B1040C94B1040C94B1040C94B1045C
:100050000C94B1040C94B1040C94B1040C94F80EFB
:100060000C94B1040C942E070C9465070C94B10405
:100070000C94B1040C94B1040C94B1040C94B1042C
:100080000C94C0090C94B1040C94B1040C94B10408
:100090000C94B1040C94B1040C94B1040C94B1040C
:1000A0000C94B1040C94B1040C94B104080B00023C
:1000B0000202010009040000010202000005240000
:1000C0001001052401010104240206052406000193
:1000D0000705810310004009040100020A00000026
:1000E00007050202400000070583024000000501E9
:1000F0000902A1010901A1008501050919012903CE
:10010000150025019503750181029501750581038F
:1001100005010930093109381581257F75089503D6
:100120008106C0C005010906A1018502050719E085
:1001300029E71500250175019508810295017508CB
:1001400081039506750815002565050719002965C1
:100150008100C0090402000103000000092101011F
:100160000001226500070584034000010000000033
:10017000000000002A2B2800000000000000000002
:100180000000000000000000000000002C9EB4A051
:10019000A1A2A434A6A7A5AE362D3738271E1F204E
:1001A000212223242526B333B62EB7B89F84858613
:1001B0008788898A8B8C8D8E8F9091929394959657
:1001C0009798999A9B9C9D2F3130A3AD35040506D5
:1001D0000708090A0B0C0D0E0F1011121314151637
:1001E0001718191A1B1C1DAFB1B0B5000403090480
:1001F00041726475696E6F2059756E004172647545
:10020000696E6F204C4C4300120100020000004058
:10021000412341800001010200011201000202009D
:1002200000404123418000010102000100C18081A2
:10023000C100000000240027002A002D003000002B
:10024000000000250028002B002E003100000000D7
:10025000002300260029002C002F000404040404BD
:100260000304050202020204030202020206060659
:10027000060606040402020204040802011040807B
:10028000401020408040800802040180402010027D
:10029000011080102040400000000200080E000005
:1002A000030401000B00000000000000000000003B
:1002B0000000000000070605040100080A0B0C0DF1
:1002C0000900000000003E5B4F5B3E3E6B4F6B3E03
:1002D0001C3E7C3E1C183C7E3C181C577D571C1C49
:1002E0005E7F5E1C00183C1800FFE7C3E7FF0018A4
:1002F000241800FFE7DBE7FF30483A060E2629798D
:100300002926407F050507407F05253F5A3CE73CED
:100310005A7F3E1C1C08081C1C3E7F14227F22149E
:100320005F5F005F5F06097F017F006689956A60F5
:100330006060606094A2FFA29408047E040810200C
:100340007E201008082A1C08081C2A08081E101005
:1003500010100C1E0C1E0C30383E3830060E3E0EAF
:1003600006000000000000005F000000070007001A
:10037000147F147F14242A7F2A1223130864623600
:10038000495620500008070300001C22410000418C
:10039000221C002A1C7F1C2A08083E0808008070C6
:1003A00030000808080808000060600020100804F9
:1003B000023E5149453E00427F400072494949464C
:1003C0002141494D331814127F1027454545393CCA
:1003D0004A494931412111090736494949364649B7
:1003E00049291E00001400000040340000000814D9
:1003F0002241141414141400412214080201590952
:10040000063E415D594E7C1211127C7F49494936A6
:100410003E414141227F4141413E7F494949417F1F
:10042000090909013E414151737F0808087F0041D5
:100430007F41002040413F017F081422417F40401E
:1004400040407F021C027F7F0408107F3E414141F3
:100450003E7F090909063E4151215E7F091929465F
:10046000264949493203017F01033F4040403F1F75
:100470002040201F3F4038403F63140814630304AA
:100480007804036159494D43007F4141410204080A
:100490001020004141417F040201020440404040DD
:1004A00040000307080020545478407F2844443813
:1004B0003844444428384444287F3854545418005D
:1004C000087E090218A4A49C787F080404780044DC
:1004D0007D40002040403D007F1028440000417FC7
:1004E00040007C047804787C080404783844444450
:1004F00038FC1824241818242418FC7C0804040848
:10050000485454542404043F44243C4040207C1C60
:100510002040201C3C4030403C44281028444C9053
:1005200090907C4464544C440008364100000077AD
:100530000000004136080002010204023C26232686
:100540003C1EA1A161123A4040207A3854545559BA
:1005500021555579412154547841215554784020F2
:10056000545579400C1E527212395555555939540B
:1005700054545939555454580000457C41000245A3
:100580007D420001457C40F0292429F0F0282528EF
:10059000F07C545545002054547C547C0A097F4912
:1005A00032494949323248484832324A4848303A5A
:1005B0004141217A3A42402078009DA0A07D3944F3
:1005C0004444393D4040403D3C24FF2424487E497A
:1005D00043662B2FFC2F2BFF0929F620C0887E09AC
:1005E0000320545479410000447D413048484A3248
:1005F000384040227A007A0A0A727D0D19317D2630
:1006000029292F28262929292630484D4020380815
:1006100008080808080808382F10C8ACBA2F102896
:1006200034FA00007B000008142A142222142A1431
:1006300008AA005500AAAA55AA55AA000000FF0062
:10064000101010FF00141414FF001010FF00FF1012
:1006500010F010F0141414FC001414F700FF000044
:10066000FF00FF1414F404FC141417101F10101FC3
:10067000101F1414141F00101010F0000000001FB1
:10068000101010101F10101010F010000000FF10BC
:100690001010101010101010FF10000000FF1400B8
:1006A00000FF00FF00001F10170000FC04F41414EA
:1006B0001710171414F404F40000FF00F7141414B6
:1006C00014141414F700F7141414171410101F1036
:1006D0001F141414F4141010F010F000001F101F59
:1006E0000000001F14000000FC140000F010F010C7
:1006F00010FF10FF141414FF141010101F0000003E
:1007000000F010FFFFFFFFFFF0F0F0F0F0FFFFFF41
:100710000000000000FFFF0F0F0F0F0F3844443898
:10072000447C2A2A3E147E02020606027E027E02D3
:1007300063554941633844443C04407E201E2006F2
:10074000027E020299A5E7A5991C2A492A1C4C722F
:1007500001724C304A4D4D303048784830BC625AB6
:10076000463D3E494949007E0101017E2A2A2A2A46
:100770002A44445F444440514A444040444A514022
:100780000000FF0103E080FF000008086B6B0836E3
:1007900012362436060F090F060000181800000054
:1007A0001010003040FF0101001F01011E00191D43
:1007B0001712003C3C3C3C00000000000F018096FA
:1007C0001180FFB103012C2DB203012C2DB30601C2
:1007D0002C2D012C2DB40107C003A20284C101C538
:1007E000C2020A00C3028A2AC4028AEEC5010E2090
:1007F000003601C83A0105022A04000200812B04D8
:10080000000100A0022A040000007F2B0400000069
:100810009F04E010021C07123732292D29252B399D
:1008200000010310E110031D07062E2C292D2E2E8A
:10083000373F0000021013800A29806413018032C0
:10084000118064260104B1020B14C0020800C1012A
:1008500005C5024130C701C1EC011B3A8155642A2C
:10086000040000007F2B040000009F3601C8B70180
:1008700000F20100E08F282422312B0E53A54216EE
:1008800018121A140332E18F171B1D0E14112CA518
:100890003D09272D252B3C3213800A2980FF1201A8
:1008A00080321180FF3A81050AB1830006030A36BF
:1008B0000108B6021502B40100C08202700AC1012B
:1008C00005C2020102C5823C380AFC021115E01083
:1008D00009160920211B131917151E2B0405020EDA
:1008E000E1900B14081E221D181E1B1A242B06064D
:1008F000020F0A2A04000200812B04000200811367
:10090000800A2980FF001F0525061B0871087D0B42
:10091000A91811241FBECFEFDAE0DEBFCDBF11E072
:10092000A0E0B1E0E8E7F4E302C005900D92AA3A36
:10093000B107D9F713E0AAEAB1E001C01D92A134D2
:10094000B107E1F719E0C2E1D9E004C02297FE0146
:100950000E94361AC630D107C9F70E941F190C949D
:100960003A1A0C940000FB019F01E8944230C4F055
:100970004532B4F44A3029F497FB1EF490958195E2
:100980009F4F642F77270E94201A805D8A330CF0D6
:10099000895D8193CB010097A1F716F45DE2519335
:1009A0001082C9010C94D404DC01FC01672F719101
:1009B0007723E1F7329704C07C916D937083629145
:1009C000AE17BF07C8F308950895FC0124858585F7
:1009D00030E0205C3F4F281B31092F733070C90174
:1009E0000895FC0194858585981719F42FEF3FEF42
:1009F00006C08585E80FF11D8685282F30E0C901E6
:100A00000895DC011C969C911C971D968C911D9756
:100A1000981719F42FEF3FEF10C01D968C911D977A
:100A2000FD01E80FF11D96851D968C911D978F5F36
:100A30008F731D968C93292F30E0C9010895109271
:100A4000AD011092AC0188EE93E0A0E0B0E080939D
:100A5000AE019093AF01A093B001B093B1018AE2CF
:100A600091E09093AB018093AA0108950F931F9397
:100A7000DF93CF930F92CDB7DEB78C01698380915E
:100A80001F01882369F083E0BE016F5F7F4F41E063
:100A900050E00E949C0B1816190614F49C0107C024
:100AA00081E090E0F8019383828320E030E0C90187
:100AB0000F90CF91DF911F910F91089583E00E94D5
:100AC000730B08950F931F93CF93DF938C01FC0159
:100AD0000FC082E00E94590A9C01FFEF8F3F9F07E1
:100AE00099F0F8018485E80FF11D2687F801C48785
:100AF0008485C82FD0E02196CF73D070F80185850A
:100B000090E0C817D90729F7DF91CF911F910F9176
:100B10000895FC0180818E5F808380E86CEA70E03C
:100B200042E450E00E94720A0895FC0181819081A4
:100B3000913A59F4813209F04CC080E068E171E0EB
:100B400047E050E00E94720A42C0913209F041C071
:100B5000803239F488E191E067E070E00E945B0B3D
:100B600036C0823209F035C0828180931F018091A6
:100B7000180190911901A0911A01B0911B01805B9D
:100B80009440A040B04019F580911F0180FD12C033
:100B900087E797E790930108809300082BE088E1AE
:100BA00090E00FB6F894A895809360000FBE209354
:100BB00060000DC088E10FB6F89480936000109239
:100BC00060000FBEA895109201081092000881E005
:100BD000089580E00895FC0191818081813A31F48B
:100BE000913089F080E0933089F40DC0813269F44E
:100BF0009B3021F482818093200105C09A3029F432
:100C000082818093210181E0089580E00895EF9230
:100C1000FF920F931F938C01E62EDC01ED91FC9166
:100C20000480F581E02D0995F82ED801ED91FC9115
:100C30000680F781E02DC8016E2D09958F2D90E07B
:100C40001F910F91FF90EF9008951092F80110926C
:100C5000FC011092FB018CE391E09093FA018093E8
:100C6000F9010895EF92FF920F931F93DF93CF93B3
:100C70000F92CDB7DEB789838B017A0184E0BE0184
:100C80006F5F7F4F41E050E00E949C0B84E4B8010D
:100C9000A7010E949C0B0F90CF91DF911F910F91A4
:100CA000FF90EF90089582E048E050E00E94320605
:100CB0000895FC011682178210861186128613860B
:100CC00014823496BF010E9453060895DC016838EF
:100CD00010F0685829C0E62FF0E067FF13C0E05815
:100CE000F04081E090E002C0880F991FEA95E2F79A
:100CF000809514962C911497282314962C9314976E
:100D000060E012C0E459FE4F6491662319F420E0BC
:100D100030E01DC067FF08C014968C9114978D7F3A
:100D200014968C9314976F77FD0190E0662321F061
:100D30008681861709F416829F5F31969630B1F747
:100D4000CD011496BD010E94530621E030E0C90197
:100D50000895CF93DF93DC01683810F0685825C000
:100D6000E62FF0E067FF12C0E058F04081E090E02D
:100D700002C0880F991FEA95E2F714962C911497F8
:100D8000282B14962C93149760E00FC0E459FE4F63
:100D900064916623D9F167FF08C014968C9114976B
:100DA000826014968C9314976F7716968C91169791
:100DB0008617A9F117968C911797861781F11896C7
:100DC0008C911897861759F119968C911997861757
:100DD00031F11A968C911A97861709F11B968C910E
:100DE0001B978617E1F0ED01E0E0F0E09E2F8E8189
:100DF000882321F4EA0FFB1F668306C09F5F3196AC
:100E00002196E630F10591F7963049F481E090E0C3
:100E100013969C938E93129720E030E007C0CD018B
:100E20001496BD010E94530621E030E0C901DF9114
:100E3000CF91089580E86EEE70E045E650E00E94A4
:100E4000720A0895FC0180818F5F808380E863E5EA
:100E500071E049E150E00E94720A08951F920F92DA
:100E60000FB60F9211242F933F934F938F939F931D
:100E7000EF93FF938091C80082FD19C04091CE008E
:100E800080912302282F30E02F5F3F4F2F73307067
:100E90008091240290E02817390759F0E09123024D
:100EA000F0E0EB5FFD4F42A32093230202C080914C
:100EB000CE00FF91EF919F918F914F913F912F9194
:100EC0000F900FBE0F901F9018951F920F920FB6A4
:100ED0000F9211242F938F939F93EF93FF939091F1
:100EE000250280912602981731F48091C9008F7DE8
:100EF0008093C90010C0E0912602F0E0E959FD4F4F
:100F000020818091260290E001968F7390708093EB
:100F100026022093CE00FF91EF919F918F912F9108
:100F20000F900FBE0F901F901895FC01268D878D96
:100F300030E0205C3F4F281B31092F733070C9010E
:100F40000895FC01968D878D981719F42FEF3FEFC8
:100F500006C0878DE80FF11D82A1282F30E0C9015E
:100F60000895DC015E969C915E975F968C915F97E9
:100F7000981719F42FEF3FEF10C05F968C915F9791
:100F8000FD01E80FF11D92A15F968C915F978F5F35
:100F90008F735F968C93292F30E0C9010895DC018F
:100FA0005D968C915D97882339F05096ED91FC9178
:100FB0005197808186FFF9CF5D961C920895DC01E0
:100FC00090968C919097282F30E02F5F3F4F2F7392
:100FD000307091968C91919790E028173907C9F35A
:100FE00090968C919097FD01E80FF11DEE59FF4FFF
:100FF000608390962C9390975296ED91FC91539725
:10100000208181E090E05B960C905B9702C0880F96
:10101000991F0A94E2F7282B208381E05D968C9338
:101020005D975096ED91FC9151978081806480830B
:1010300081E090E00895109208021092070288EE75
:1010400093E0A0E0B0E08093090290930A02A0939D
:101050000B02B0930C028AE491E090930602809315
:10106000050210922602809126028093250210929A
:10107000240280912402809323028DEC90E09093CF
:101080001202809311028CEC90E0909314028093F2
:10109000130288EC90E0909316028093150289EC7D
:1010A00090E090931802809317028AEC90E090935E
:1010B0001A02809319028EEC90E090931C028093A8
:1010C0001B0284E080931D0283E080931E0287E070
:1010D00080931F0285E08093200281E080932102AB
:1010E00008958AE591E09093A8028093A702109258
:1010F000A9021092AA021092AB021092AC020895BB
:101100008F929F92AF92BF92CF92DF92EF92FF9217
:101110000F931F93CF93DF934C016B017C01AA24A3
:10112000BB24C0E0D0E0C601F70162814AE050E094
:101130000E9483098C01C6016EE20E94EC08080F30
:10114000191FA00EB11E21960894E11CF11CC3309A
:10115000D10549F7C601F40165814AE050E00E94DB
:1011600083099501280F391FC901DF91CF911F9184
:101170000F91FF90EF90DF90CF90BF90AF909F9036
:101180008F900895CF92DF92EF92FF920F931F936B
:10119000CF93DF937C016B018A01C0E0D0E00FC0E8
:1011A000D6016D916D01D701ED91FC910190F08117
:1011B000E02DC7010995C80FD91F01501040011536
:1011C000110571F7CE01DF91CF911F910F91FF9023
:1011D000EF90DF90CF900895DC01ED91FC910190AC
:1011E000F081E02D09950895CF93DF93EC0161150F
:1011F000710519F420E030E00FC0DB010D900020F4
:10120000E9F71197A61BB70BE881F9810280F381FA
:10121000E02DAD0109959C01C901DF91CF910895A1
:101220004F925F927F928F929F92AF92BF92CF9296
:10123000DF92EF92FF920F931F93DF93CF93CDB77F
:10124000DEB7A1970FB6F894DEBF0FBECDBF2C015D
:10125000742ECB01223008F42AE019A231E2C32E09
:10126000D12CCC0EDD1E822E9924AA24BB24672DFE
:10127000752FA50194010E94FE1979018A01C80108
:10128000B701A50194010E94CC19472D461B089473
:10129000C108D1084A3014F4405D01C0495CF60130
:1012A0004083E114F1040105110521F07E2C5F2D2E
:1012B000C801DDCFC201B6010E94F408A1960FB6A5
:1012C000F894DEBF0FBECDBFCF91DF911F910F917C
:1012D000FF90EF90DF90CF90BF90AF909F908F9056
:1012E0007F905F904F900895DC012115310541F406
:1012F000ED91FC910190F081E02D642F0995089506
:101300000E9410090895EF92FF920F931F939A0184
:10131000E62EFF2400E010E0B801A7010E94740946
:101320001F910F91FF90EF9008950E94F408089587
:101330008230B9F0833028F4882351F08130F9F4F9
:101340000AC08430B9F0843090F08530C1F415C003
:1013500010926E00089580916F008D7F80936F00D2
:101360000895809170008D7F809370000895109291
:1013700071000895109272000895109273000895FC
:101380001F920F920FB60F9211242F933F934F93FA
:101390005F936F937F938F939F93AF93BF93EF93DD
:1013A000FF938091AD029091AE02A091AF02B091F7
:1013B000B0020097A105B10551F1E091B102F091A1
:1013C000B20280819091B302892780838091AD021F
:1013D0009091AE02A091AF02B091B002181619061A
:1013E0001A061B060CF58091AD029091AE02A091F9
:1013F000AF02B091B0020197A109B1098093AD028B
:101400009093AE02A093AF02B093B0020DC083E000
:101410000E949809E091B102F091B202908180910E
:10142000B302809589238083FF91EF91BF91AF91A3
:101430009F918F917F916F915F914F913F912F91EC
:101440000F900FBE0F901F901895282F8091B60215
:101450008823C1F057FF1AC015C028989093B50291
:101460008091F1008193E217F307B9F74115510517
:1014700039F08091F200882319F48BE68093E8001C
:10148000AFBF02C04FEF5FEFCA010895AFB7F89446
:1014900027702093E9008091F200282F30E0241774
:1014A00035070CF4A901FB019B01240F311D94E6C3
:1014B000DACFDF93CF930F92CDB7DEB7BE016F5F68
:1014C0007F4F41E050E00E94250A019719F02FEF6D
:1014D0003FEF03C08981282F30E0C9010F90CF91E1
:1014E000DF910895FF920F931F93F82E142F052F6D
:1014F0004091B9025091BA02212F302FC901DC016D
:10150000FB016EEF29C0F7FE02C0949101C09081EB
:101510002091B7023091B80224173507ACF48091BE
:10152000E8008570E1F38091E80082FF03C02FEFAF
:101530003FEF17C09093F100C90101968F7390702F
:10154000892B11F46093E8002F5F3F4F3093B8026E
:101550002093B702119731961097A9F6812F902FFB
:101560009C01C9011F910F91FF9008951F93782F3F
:10157000E92F162F2091B7023091B802A091B9023D
:10158000B091BA022A173B07C4F48091E800857035
:10159000E1F38091E80082FD16C0812F90E0019672
:1015A000880F991F8093F100C90101968F73907085
:1015B000892B19F48EEF8093E8002F5F3F4F309313
:1015C000B8022093B7022091B7023091B8022A17CF
:1015D0003B07A4F48091E8008570E1F38091E80076
:1015E00082FD12C083E08093F100C90101968F73E0
:1015F0009070892B19F48EEF8093E8002F5F3F4F96
:101600003093B8022093B7024091B7025091B802CC
:10161000872F9E2FFC0170E06EEF43C094914A1714
:101620005B07A4F48091E8008570E1F38091E80005
:1016300082FF02C020E00DC09093F100CA01019624
:101640008F739070892B11F46093E8004F5F5F4FA8
:1016500021E04A175B07A4F48091E8008570E1F36C
:101660008091E80082FF02C080E00DC01092F1007E
:10167000CA0101968F739070892B11F46093E80072
:101680004F5F5F4F81E0319690E030E082239323FB
:10169000892B31F45093B8024093B70280E009C01F
:1016A0007F5F711708F4BACF5093B8024093B70226
:1016B00081E01F9108959C018091E80082FFFCCF9A
:1016C000F901260F311D03C08091F1008193E217CB
:1016D000F307D1F7289884E68093B5028BEF8093C7
:1016E000E800CB0108958093E9008091F2008823FF
:1016F00019F08AE38093E800089508951092B602E5
:1017000081E08093D70080EA8093D80082E189BD90
:1017100009B400FEFDCF61E070E080E090E00E943F
:10172000960F80E98093D8008CE08093E2001092BD
:10173000E000559A209A08955F926F927F928F925F
:101740009F92AF92BF92CF92DF92EF92FF920F9350
:101750001F93CF93DF93E82E842E752E8091B602CF
:10176000882371F18B01242F352FC901EC01AAEFD9
:10177000FA2EF7E09F2E9E20E0E45E2E8E2D90E064
:1017800070E2A72EB12CA822B9226AE3662E50E49B
:10179000C52ED12CC822D92258C09FB7F894909258
:1017A000E9008091E80085FD02C020E004C080913E
:1017B000F200252D281B9FBF222361F4FA9419F40F
:1017C0002FEF3FEF4DC061E070E080E090E00E94BD
:1017D000960F3BC0822F90E0C817D9070CF42C2F2E
:1017E000C21BD1094FB7F8949092E900A114B1043B
:1017F00021F406C01092F10021502223D9F719C01C
:10180000E7FC03C0F801922F10C0C801322F06C0B8
:10181000FC010196E491E093F10031503323C1F7CC
:1018200006C081918093F10091509923D1F7020F66
:10183000111D8091E80085FF05C0209729F4C1148F
:10184000D10411F06092E8004FBF209709F0A5CFB6
:101850005D9884E68093B402282D372DC9019C0140
:10186000C901DF91CF911F910F91FF90EF90DF9011
:10187000CF90BF90AF909F908F907F906F905F9030
:1018800008951F920F920FB60F9211242F933F933A
:101890004F935F936F937F938F939F93AF93BF9378
:1018A000EF93FF938091E1001092E100982F83FF66
:1018B0000FC01092E90081E08093EB001092EC00E1
:1018C00082E38093ED001092B60288E08093F000EE
:1018D00092FF34C083E08093E9008091F200882376
:1018E00019F08AE38093E8008FB7F89492E0909320
:1018F000E9009091F2008FBF992321F08AEA91E0EC
:101900000E9462058091B402882351F08091B40254
:1019100081508093B4028091B402882309F45D9AC7
:101920008091B502882351F08091B5028150809357
:10193000B5028091B502882309F4289AFF91EF91AE
:10194000BF91AF919F918F917F916F915F914F91D7
:101950003F912F910F900FBE0F901F9018950F93EE
:101960001F93DF93CF930F92CDB7DEB719828E010D
:101970000F5F1F4FC8010E948905C8010E942207FE
:10198000898190E00F90CF91DF911F910F91089581
:101990001F920F920FB60F921124EF92FF921F9396
:1019A0002F933F934F935F936F937F938F939F9367
:1019B000AF93BF93EF93FF93DF93CF93CDB7DEB792
:1019C0006197DEBFCDBF1092E9008091E80083FFF0
:1019D00013C1FE0131969E01275F3F4F03C08091E6
:1019E000F1008193E217F307D1F7289884E68093FA
:1019F000B50282EF8093E800998197FF05C080913E
:101A0000E80080FFFCCF03C08EEF8093E800292F11
:101A100030E0C90180769070892B09F0C6C08A81B8
:101A2000882329F41092F1001092F100DAC081307D
:101A300009F4D7C0833009F4D4C0853049F48091CB
:101A4000E80080FFFCCF8B8180688093E300C9C0F1
:101A5000863009F080C01C81EF80F8841230C1F517
:101A60001092E9001092B8021092B7021092BA02D6
:101A70001092B9020E94AF0C99E0FE013996DF0185
:101A8000292F1D922A95E9F799871A8791E09E8759
:101A900090E8988B9AEF998B2091B7023091B80219
:101AA000275F3F4F3C872B878D871092E90010926C
:101AB000B8021092B702F092BA02E092B90280E046
:101AC000BF0149E050E00E94720A0E94AF0C89C039
:101AD0001092E9001092B8021092B702F092BA0286
:101AE000E092B902123241F482E290E00E941A07B9
:101AF000892B09F47AC075C0113079F488E0E816B2
:101B0000F10419F481E08093BB028091BB02882329
:101B100009F06FC0E8E0F2E017C0133009F065C0CB
:101B20008B81882319F4ECEEF1E00EC0823019F4B9
:101B300080EF91E005C0813009F057C08CEF91E053
:101B40006BE00E94B60A4BC0449180E8BF0150E0B0
:101B50000E94720A46C0873009F447C0883021F4D9
:101B600081E08093F1003DC08930D9F52370307059
:101B7000232BD9F5EDE2F2E091E031E026E39093FA
:101B8000E9003093EB0084918093EC002093ED000A
:101B90009F5F3196953099F78EE78093EA00109217
:101BA000EA008B818093B6021CC08F8198851092C9
:101BB000E9001092B8021092B7029093BA02809393
:101BC000B9028D81882329F4CE0101960E949505E2
:101BD00006C0823051F4CE0101960E94EB058823A5
:101BE00021F08EEF8093E80007C081E28093EB0044
:101BF00003C0EAE1F2E0A8CF6196DEBFCDBFCF918E
:101C0000DF91FF91EF91BF91AF919F918F917F9164
:101C10006F915F914F913F912F911F91FF90EF90A6
:101C20000F900FBE0F901F9018951F920F920FB636
:101C30000F9211242F933F934F935F936F937F9352
:101C40008F939F93AF93BF93EF93FF938091BD02C8
:101C50009091BE02892B29F0E091BD02F091BE0265
:101C60000995FF91EF91BF91AF919F918F917F91D6
:101C70006F915F914F913F912F910F900FBE0F90F9
:101C80001F9018951F920F920FB60F9211242F9349
:101C90003F934F935F936F937F938F939F93AF93F4
:101CA000BF93EF93FF938091BF029091C002892B65
:101CB00029F0E091BF02F091C0020995FF91EF91E8
:101CC000BF91AF919F918F917F916F915F914F9154
:101CD0003F912F910F900FBE0F901F9018951F925C
:101CE0000F920FB60F9211242F933F934F935F9350
:101CF0006F937F938F939F93AF93BF93EF93FF93D4
:101D00008091C1029091C202892B29F0E091C10219
:101D1000F091C2020995FF91EF91BF91AF919F9110
:101D20008F917F916F915F914F913F912F910F9084
:101D30000FBE0F901F9018951F920F920FB60F9223
:101D400011242F933F934F935F936F937F938F93C0
:101D50009F93AF93BF93EF93FF938091C3029091B2
:101D6000C402892B29F0E091C302F091C4020995C5
:101D7000FF91EF91BF91AF919F918F917F916F9163
:101D80005F914F913F912F910F900FBE0F901F9039
:101D900018951F920F920FB60F9211242F933F9315
:101DA0004F935F936F937F938F939F93AF93BF9363
:101DB000EF93FF938091C5029091C602892B29F081
:101DC000E091C502F091C6020995FF91EF91BF9194
:101DD000AF919F918F917F916F915F914F913F91C3
:101DE0002F910F900FBE0F901F9018950895089592
:101DF0001F920F920FB60F9211242F933F938F9340
:101E00009F93AF93BF938091CB029091CC02A0910E
:101E1000CD02B091CE023091CF020196A11DB11D2D
:101E2000232F2D5F2D3720F02D570196A11DB11DB9
:101E30002093CF028093CB029093CC02A093CD024B
:101E4000B093CE028091C7029091C802A091C902BE
:101E5000B091CA020196A11DB11D8093C702909353
:101E6000C802A093C902B093CA02BF91AF919F91DB
:101E70008F913F912F910F900FBE0F901F9018954B
:101E8000789484B5826084BD84B5816084BD85B555
:101E9000826085BD85B5816085BDEEE6F0E080811C
:101EA00081608083E1E8F0E010828081826080833D
:101EB000808181608083E0E8F0E0808181608083C0
:101EC000E1E9F0E0808182608083808181608083AD
:101ED000E0E9F0E0808181608083E1ECF0E08081E6
:101EE0008460808380818260808380818160808340
:101EF000E3ECF0E0808181608083E0ECF0E08081C1
:101F000082608083E2ECF0E0808181608083EAE798
:101F1000F0E0808184608083808182608083808122
:101F2000816080838081806880830895EF92FF9232
:101F30000F931F93CF93DF937B018C013FB7F894EE
:101F40008091C7029091C802A091C902B091CA02C3
:101F500026B5A89B05C02F3F19F00196A11DB11D04
:101F60003FBFBA2FA92F982F8827820F911DA11D3F
:101F7000B11D52E0880F991FAA1FBB1F5A95D1F7B8
:101F8000EC0130C00E94F60E3FB7F8948091C70272
:101F90009091C802A091C902B091CA0226B5A89B2F
:101FA00005C02F3F19F00196A11DB11D3FBFBA2FEB
:101FB000A92F982F8827820F911DA11DB11D32E0F6
:101FC000880F991FAA1FBB1F3A95D1F78C1B9D0B39
:101FD000885E9340B8F20894E108F10801091109FC
:101FE000C851DC4FE114F1040105110559F6DF91E8
:101FF000CF911F910F91FF90EF900895CF93DF93B2
:10200000482F50E0CA0187589D4FFC013491455A32
:102010005D4FFA018491882369F190E0880F991F40
:10202000FC01EF5CFD4FA591B491FC01E15CFD4F1B
:10203000C591D491662351F42FB7F8948C91932FC6
:10204000909589238C93888189230BC0623061F439
:102050002FB7F8948C91932F909589238C93888136
:10206000832B88832FBF06C09FB7F8948C91832B56
:102070008C939FBFDF91CF910895883071F18930A3
:1020800068F4823031F1833020F4813009F042C0AD
:102090001DC0833089F08430E9F512C08B3059F1CE
:1020A0008C3028F48930E9F08A30A1F51EC08C30DC
:1020B00031F18E3079F529C0809180008F7703C08F
:1020C000809180008F7D80938000089584B58F7704
:1020D00002C084B58F7D84BD0895809190008F7774
:1020E00007C0809190008F7D03C080919000877F12
:1020F0008093900008958091C0008F7703C08091F5
:10210000C0008F7D8093C00008958091C200877FBA
:102110008093C2000895FF920F931F93F62E482FCD
:1021200050E0CA0189569D4FFC012491CA0187588D
:102130009D4FFC011491455A5D4FFA010491002313
:10214000C9F0222319F0822F0E943D10E02FF0E009
:10215000EE0FFF1FE15CFD4FA591B4919FB7F8947E
:10216000FF2021F48C911095812302C08C91812B4A
:102170008C939FBF1F910F91FF900895882319F4AE
:102180008CB5806202C08CB58F7D8CBD08959CB5E6
:10219000937F982B9CBD08952CB5382F33702C7FDE
:1021A000322B3CBD2DB590E09595879595958795FB
:1021B00081702E7F822B8DBD089581E161E00E94A8
:1021C0008B1081E161E00E94FE0F8CB580618CBDB7
:1021D0008CB580648CBD8FE061E00E94FE0F80E1D1
:1021E00061E00E94FE0F08950F931F93182F092F8F
:1021F0000E948318812F902F61E00E943C171F914D
:102200000F9108950F931F938C010E94881880E608
:1022100091E0F8019183808380EA90E09187808744
:1022200080E890E0938782871F910F910895FC01C9
:10223000138212828AE791E091838083758364839D
:10224000578346837187608753874287158A15862F
:1022500014861786168621E0248B8FEF9FEF938BD1
:10226000828B918B808B268B08952F923F924F9279
:102270005F926F927F928F929F92AF92BF92CF9216
:10228000DF92EF92FF920F931F93DF93CF9300D0D3
:1022900000D0CDB7DEB73C017C836B836A01590166
:1022A000FA82E982222433249801241B350B37FF5C
:1022B00003C0309521953F4FC5014B815C81841B44
:1022C000950B97FF03C0909581959F4F82179307B9
:1022D0005CF481E0282E312CC601CB80DC809C830D
:1022E0008B83C80185015C018B819C81A816B9068E
:1022F00044F4C501AB80BC809C838B83C8018601FC
:102300006C012501AB81BC814A1A5B0A7801EC188B
:10231000FD08F7FE04C0F094E194F108F394C016B0
:10232000D10624F088248A94982C03C0B1E08B2E27
:10233000912CC20162E070E00E94EB198B0125C074
:10234000D301ED91FC912114310441F00480F58119
:10235000E02DC301B6014B815C8107C00480F5818B
:10236000E02DC3016B817C81A60129813A81099509
:102370000E191F0917FF04C0C80CD91C040D151D28
:10238000EB81FC813196FC83EB834B815C81A4164D
:10239000B506B4F60F900F900F900F90CF91DF918C
:1023A0001F910F91FF90EF90DF90CF90BF90AF9073
:1023B0009F908F907F906F905F904F903F902F9065
:1023C00008954F925F926F927F928F929F92AF92F9
:1023D000BF92CF92DF92EF92FF920F931F936C0107
:1023E0005B014A0139012801DC01ED91FC91028475
:1023F000F385E02D87010995D601ED91FC91A401AB
:1024000041505040440D551D0284F385E02DC60116
:10241000B50193010995D601ED91FC910084F185F8
:10242000E02DC601B501A40192010995D601ED91F7
:10243000FC910894A108B108A60CB71C0084F18592
:10244000E02DC601B501A401920109951F910F91DC
:10245000FF90EF90DF90CF90BF90AF909F908F90C4
:102460007F906F905F904F900895CF92DF92EF92A0
:10247000FF920F931F93DC016B017801ED91FC91AA
:102480008A0101501040020F131F0680F781E02DD2
:10249000960109951F910F91FF90EF90DF90CF90DB
:1024A0000895CF92DF92EF92FF920F931F93DC017A
:1024B0006A01C9017801ED91FC9111979B012150AE
:1024C0003040280F391F0680F781E02DCD018601AD
:1024D00009951F910F91FF90EF90DF90CF90089595
:1024E0006F927F928F929F92AF92BF92CF92DF9224
:1024F000EF92FF920F931F93CF93DF935C013A010A
:1025000069014801EB01C60ED71E0DC0D501ED9142
:10251000FC910084F185E02DC501BE01A301940169
:10252000870109952196CC15DD0584F3DF91CF91C4
:102530001F910F91FF90EF90DF90CF90BF90AF90E1
:102540009F908F907F906F900895EF92FF920F93DE
:102550001F93FC017B01A081B1812085318502851B
:1025600013851E960D90BC91A02D60E070E040E0B8
:1025700050E0FD0109951F910F91FF90EF90089594
:102580002F923F924F925F926F927F928F929F9283
:10259000AF92BF92CF92DF92EF92FF920F931F9371
:1025A000DF93CF93CDB7DEB72F970FB6F894DEBF8A
:1025B0000FBECDBF5C015E834D8318870F83FA8603
:1025C000E986CB86DC0118968D919C911997681746
:1025D00079070CF0A4C01A968D919C911B9748170F
:1025E00059070CF09CC0EC2DF0E0FF87EE87CF017F
:1025F000880F991F8E0F9F1F880F991F860F971F97
:10260000181619060CF08BC0CF01F3E0880F991F44
:10261000FA95E1F7840F951F181619060CF07FC084
:1026200085E0289FA00111245A8349832B011B01B7
:102630001C825C81553011F480E005C0E981FA818B
:10264000EF53FD4F84912C863D866D807E80430143
:102650001B82C82EDD2480FF1CC0D501ED91FC91AA
:10266000BB85B13049F40480F581E02DC501B2018C
:10267000A3012F81388522C00684F785E02DC5018E
:102680006C857D85A4012E853F858901EF80F884C6
:1026900023C0E985FA852F813885E217F307E9F031
:1026A000D501ED91FC91BB85B13051F40480F581E9
:1026B000E02DC501B201A30129853A8509950DC018
:1026C0000684F785E02DC5016C857D85A4012E85E6
:1026D0003F858901E984FA840995EB81EF5FEB83FB
:1026E0002E853F85820E931E0894611C711CE83074
:1026F00021F0D594C7948C2DACCF3C813F5F3C83B7
:102700004E855F85240E351E0894411C511C89811D
:102710009A8101969A838983363009F08ACF2F9661
:102720000FB6F894DEBF0FBECDBFCF91DF911F91E2
:102730000F91FF90EF90DF90CF90BF90AF909F9060
:102740008F907F906F905F904F903F902F90089563
:10275000CF92EF92FF920F931F93CF93DF93EC01F1
:10276000262F6A3061F42C8930E003E0220F331FFA
:102770000A95E1F78E859F85820F931F37C06D30D4
:10278000C9F16C857D854E855F8508891989EA8840
:10279000FB88CC880E94C0122C8986E0289FB0015B
:1027A00011248C859D85680F791F7D876C878E89A4
:1027B000882301F1422F50E08AEF9FEF9C01429F56
:1027C000C001439F900D529F900D1124288539859B
:1027D000820F931F861797076CF413E0440F551F61
:1027E0001A95E1F78E859F85840F951F9F878E87A9
:1027F0001D861C8681E090E0DF91CF911F910F91A3
:10280000FF90EF90CF900895FC01662309F461E0FA
:10281000648B0895089550E04C7F507033E0440F6E
:10282000551F3A95E1F730E093E0359527959A9555
:10283000E1F7422B532B70E0687F7070762F66278C
:10284000462B572BCA010895DC01ED91FC910088BD
:10285000F189E02D099508950F931F938C01DC01F8
:10286000ED91FC910488F589E02D0995BC01C80122
:102870000E9424141F910F9108950F931F938C01B0
:10288000DC01ED91FC910488F589E02D099521E0AA
:10289000F801218F908F878B918B808B938B828B0C
:1028A0001F910F910895FC01818D882371F0168A84
:1028B0008789908D918B808B938B828B55874487F2
:1028C00037872687CF010E9495090895DC015E961F
:1028D0008C915E97882331F06EBD0DB407FEFDCF5D
:1028E0008EB5089530E840E050E070E0832F90E02E
:1028F000862397235F96ED91FC9190979C962C915F
:102900009C97892B21F08081822B808304C0808159
:102910002095282320839196ED91FC9192978081B8
:102920009D969C919D97892B80839196ED91FC912A
:10293000929790819D968C919D9780958923808315
:1029400036954F5F5F4F4830510581F608950F93DC
:102950001F938C01DC019596ED91FC9196979081E7
:102960009F968C919F978095892380839396ED9174
:10297000FC91949790819E968C9180958923808379
:10298000C8010E946614D8019396ED91FC9194972A
:1029900080819E969C91892B80831F910F91089531
:1029A0000F931F938C01DC019596ED91FC91969706
:1029B00080819F969C919F97892B80839396ED9120
:1029C000FC91949790819E968C9180958923808329
:1029D000C8010E946614D8019396ED91FC919497DA
:1029E00080819E969C91892B80831F910F910895E1
:1029F000CF92DF92EF92FF920F931F937C01162FDD
:102A0000C42ED22E6AE20E94A714C70160E00E9481
:102A1000D014F70160A9610FC7010E94D014C7014B
:102A200060E00E94D014F70160A96D0DC7010E94FB
:102A3000D014C7016BE20E94A714C70160E00E9496
:102A4000D014F70161A96C0DC7010E94D014C70111
:102A500060E00E94D014F70161A9600FC7010E94D5
:102A6000D014C7016CE20E94A7141F910F91FF9030
:102A7000EF90DF90CF900895EF92FF920F93CF9356
:102A8000DF93EC01790177FD46C088859985681749
:102A900079070CF040C057FD3EC08A859B854817DA
:102AA0005907CCF5262F2F5F042F0F5FCE010E9410
:102AB000F814EDA1FEA180819FA5892B8083EBA155
:102AC000FCA190818EA58095892380838D8D823095
:102AD000A1F49701232F3327269526952695C70124
:102AE000982F8827990F990F990F40EE57E0E4220D
:102AF000F522E82AF92AE22AF32ACE016F2D0E9454
:102B00006614CE016E2D0E946614EBA1FCA180819B
:102B10009EA5892B8083DF91CF910F91FF90EF903D
:102B20000895CF92DF92EF92FF920F931F93CF936E
:102B3000DF937C01FB016901E801DC0118968D91AE
:102B40009C911997681779070CF060C01A962D911F
:102B50003C911B97421753070CF058C0C601840FD5
:102B6000951F281739071CF46901C41AD50A042FC8
:102B700001500C0DC7016E2F2E2F0E94F814F70183
:102B8000858D823091F49E01232F3327269526953B
:102B90002695CE01982F8827990F990F990FC07EFF
:102BA000D770C82BD92BC22BD32B8E01D70195966A
:102BB000ED91FC91969780819F969C919F97892B90
:102BC00080839396ED91FC91949790819E968C9141
:102BD00080958923808308C0C701612F0E946614F5
:102BE000C701602F0E9466140894C108D108BFEF86
:102BF000CB16BFEFDB0681F7D7019396ED91FC91E1
:102C0000949780819E969C91892B8083DF91CF91B0
:102C10001F910F91FF90EF90DF90CF900895CF928A
:102C2000DF92EF92FF920F931F93CF93DF937C017C
:102C3000FA016901E801DC0118962D913C91199780
:102C4000621773070CF060C01A968D919C911B97C8
:102C5000481759070CF058C0C601860F971F281750
:102C600039071CF46901C61AD70A262F21502C0DEA
:102C7000C7014E2F0E2F0E94F814F701858D823068
:102C800091F49E01232F3327269526952695CE0174
:102C9000982F8827990F990F990FC07ED770C82B4E
:102CA000D92BC22BD32B8E01D7019596ED91FC9198
:102CB000969780819F969C919F97892B808393966E
:102CC000ED91FC91949790819E968C9180958923AB
:102CD000808308C0C701612F0E946614C701602F5E
:102CE0000E9466140894C108D108BFEFCB16BFEF4D
:102CF000DB0681F7D7019396ED91FC919497808143
:102D00009E969C91892B8083DF91CF911F910F918B
:102D1000FF90EF90DF90CF900895EF92FF920F9386
:102D20001F93FC017B01A081B18120853185028543
:102D300013851E960D90BC91A02D60E070E040E0E0
:102D400050E0FD0109951F910F91FF90EF900895BC
:102D50008F929F92AF92BF92CF92DF92EF92FF92AB
:102D60000F931F93CF93DF936C0149015801E70143
:102D7000DC0118962D913C911997621773070CF09E
:102D80006EC01A96ED91FC911B974E175F070CF0E1
:102D900066C0C401860F971F281739071CF4490124
:102DA000861A970AC501840F951FE817F9071CF4C6
:102DB0005F01A41AB50AF601858D823091F49E0157
:102DC000232F3327269526952695CE01982F8827E1
:102DD000990F990F990FC07ED770C82BD92BC22B92
:102DE000D32B262F2150280D042F01500A0DC60188
:102DF0000E94F8147E01D6019596ED91FC9196976C
:102E000080819F969C919F97892B80839396ED91CB
:102E1000FC91949790819E968C91809589238083D4
:102E200085010EC0C6016F2D0E946614C6016E2D6D
:102E30000E94661421971C161D06A4F30150104031
:102E40001016110614F4E401F6CFD6019396ED9115
:102E5000FC91949780819E969C91892B8083DF9131
:102E6000CF911F910F91FF90EF90DF90CF90BF9087
:102E7000AF909F908F9008951F93CF93DF93EC01B5
:102E8000162F66E30E94A71413701D8B113051F0AA
:102E9000113028F0123049F01330F1F411C0CE0196
:102EA00068EC05C0CE0168EA0DC0CE0168E00E9462
:102EB000D01480E890E09987888780EA90E00AC083
:102EC000CE0168E60E94D01480EA90E09987888756
:102ED00080E890E09B878A87DF91CF911F910895CA
:102EE000662311F460E201C061E20E94A714089514
:102EF000AF92BF92CF92DF92EF92FF920F931F9308
:102F0000CF93DF935C01FB01EB012196D49031C09C
:102F10008E010F5F1F4FFE016491C5010E94A7142F
:102F200078010894E11CF11CF801C4900C2D0F7776
:102F3000E701102F08C0FE012196E491C5016E2F14
:102F40000E94D01411501123B1F7E701C00FD11D19
:102F5000C7FE0EC0FE018491682F70E06F3F7105BF
:102F600011F464EF71E0219680E090E00E94960FEA
:102F7000DA94DD2069F6DF91CF911F910F91FF90D8
:102F8000EF90DF90CF90BF90AF9008950F931F9375
:102F9000CF93DF93EC018B0119AA18AA88A561E0F1
:102FA0000E94FE0F8FA161E00E94FE0FEFA12E2F65
:102FB00030E0F901E55AFD4FE491F0E0EE0FFF1F1C
:102FC000E15CFD4F859194919CA38BA327583D4FC5
:102FD000F90184918EA7E8A52E2F30E0F901E55A7A
:102FE000FD4FE491F0E0EE0FFF1FE15CFD4F859196
:102FF00094919EA38DA327583D4FF90184918FA7EB
:103000008E8D882361F00E94DD1080E00E94CC103C
:1030100081E00E94BE1080E00E94C7103DC08BA5D9
:1030200061E00E94FE0F8AA561E00E94FE0FEBA501
:103030008E2F90E0FC01E55AFD4FE491F0E0EE0F99
:10304000FF1FE15CFD4FA591B491BAA3A9A38758D6
:103050009D4FFC0144914DA7EAA52E2F30E0F901C8
:10306000E55AFD4FE491F0E0EE0FFF1FE15CFD4FEC
:103070008591949198A38F8F27583D4FF9018491A2
:103080008CA78C91409548234C93EF8DF8A19081AB
:103090008CA5809589238083EBA1FCA190818EA5CE
:1030A00080958923808389A5882309F161E00E94A6
:1030B000FE0F89A561E00E948B1064EF71E080E053
:1030C00090E00E94960F89A560E00E948B1064EF4B
:1030D00071E080E090E00E94960F89A561E00E9477
:1030E0008B1064EF71E080E090E00E94960F011574
:1030F000110521F0CE01B8010E947817DF91CF9120
:103100001F910F9108956CE378E00E94C61708950F
:10311000DF92EF92FF920F931F938C01F62EE42E15
:10312000D22E60E870E040EA50E00E94171184E976
:1031300091E0F80191838083F7A2E0A6D1A681E017
:10314000868F13A612A61F910F91FF90EF90DF902C
:10315000089580ED92E06AE049E028E00E940211C3
:1031600082E093E067E046E025E00E9402110895C6
:10317000EF92FF920F931F930E94400F8CEB92E00F
:103180000E947E0B61E070E080E090E00E94960F6C
:103190008DE061E00E94FE0F8AEA91E040E855E28E
:1031A00060E070E00E94E40400ED12E0C8010E94BB
:1031B000F41082E0E82E83E0F82EC7010E94F4109C
:1031C000C80160E040E020E00E942C14C70160E0EC
:1031D00040E020E00E942C14C80160E04FEF20E0A6
:1031E0000E943D14C80162E00E940414C80160E01E
:1031F00071E040E050E020E030E00E945314C8014C
:1032000068E00E940414C7016FEF40E020E00E94D4
:103210003D14C70162E00E940414C7016CE071E034
:1032200040E050E020E030E00E945314C70168E025
:103230000E9404141F910F91FF90EF900895DF9268
:10324000EF92FF920F931F930E94B81897EEE92E0A
:1032500093E0F92E012D112DDD24D39480ED92E021
:1032600060E040E020E00E943D1482E093E060E0F6
:1032700040E020E00E943D1480ED92E068E373E0BE
:1032800040E050E02EE130E00E94531482E093E0F1
:103290006CE373E040E050E02EE130E00E94531414
:1032A0008091220190912301A0912401B0912501E8
:1032B0000196A11DB11D8093220190932301A0933B
:1032C0002401B0932501885E9340A040B04044F0B3
:1032D00010922201109223011092240110922501D4
:1032E0008091340390913503A0913603B091370358
:1032F0000197A109B1098093340390933503A093FA
:103300003603B0933703B7FF08C0E0923403F0925E
:103310003503009336031093370380912201909177
:10332000230168E373E04AE050E00E94B304809117
:103330003403909135036CE373E04AE050E00E945F
:10334000B304609140036D25609340038DE00E94BB
:103350008B1080ED92E060E044E62FEF0E943D1478
:1033600082E093E06FEF4FEF20E00E943D1480ED8C
:1033700092E068E373E040E050E02EE130E00E942C
:10338000531482E093E06CE373E040E050E02EE100
:1033900030E00E94531462CF629FD001739FF0010E
:1033A000829FE00DF11D649FE00DF11D929FF00DD5
:1033B000839FF00D749FF00D659FF00D9927729F0C
:1033C000B00DE11DF91F639FB00DE11DF91FBD0197
:1033D000CF011124089597FB092E07260AD077FD07
:1033E00004D02ED006D000201AF4709561957F4F3E
:1033F0000895F6F7909581959F4F0895A1E21A2EB2
:10340000AA1BBB1BFD010DC0AA1FBB1FEE1FFF1F88
:10341000A217B307E407F50720F0A21BB30BE40BD8
:10342000F50B661F771F881F991F1A9469F760951F
:103430007095809590959B01AC01BD01CF010895D9
:10344000AA1BBB1B51E107C0AA1FBB1FA617B707CA
:1034500010F0A61BB70B881F991F5A95A9F78095E6
:103460009095BC01CD010895EE0FFF1F0590F491DA
:08347000E02D0994F894FFCF50
:1034780041666669636865757220310041666669F0
:10348800636865757220320000E1000000000000EA
:103498000101E7030000000000003605C208E5044A
:1034A8000105F1045E056205000000000706C20878
:1034B800A9066606590600000000DF07C20895073E
:1034C800B107A107CF070000000080080000000036
:1034D800A813C2083C15351191150F16E111A8164D
:1034E8008D1670170B1400000000A813C208F70E01
:1034F800351135125112E1117012A5120A140B146C
:1035080000000000A813C2083C15351191150F16CC
:0A351800E111A8168D1670170B14B0
:00000001FF
