:100000000C9469010C94C20A0C94EF0A0C941C0B1A
:100010000C94490B0C9491010C9491010C94760B67
:100020000C9491010C9491010C94ED080C947409BA
:100030000C9491010C9491010C9491010C949101F8
:100040000C9491010C9491010C9491010C949101E8
:100050000C9491010C9491010C9491010C94A40BBB
:100060000C9491010C94DD030C9414040C949101F4
:100070000C9491010C9491010C9491010C949101B8
:100080000C946C060C9491010C9491010C949101C8
:100090000C9491010C9491010C9491010C94910198
:1000A0000C9491010C9491010C949101080B0002A5
:1000B0000202010009040000010202000005240000
:1000C0001001052401010104240206052406000193
:1000D0000705810310004009040100020A00000026
:1000E00007050202400000070583024000000501E9
:1000F0000902A1010901A1008501050919012903CE
:10010000150025019503750181029501750581038F
:1001100005010930093109381581257F75089503D6
:100120008106C0C005010906A1018502050719E085
:1001300029E71500250175019508810295017508CB
:1001400081039506750815002565050719002965C1
:100150008100C0090402000103000000092101011F
:100160000001226500070584034000010000000033
:10017000000000002A2B2800000000000000000002
:100180000000000000000000000000002C9EB4A051
:10019000A1A2A434A6A7A5AE362D3738271E1F204E
:1001A000212223242526B333B62EB7B89F84858613
:1001B0008788898A8B8C8D8E8F9091929394959657
:1001C0009798999A9B9C9D2F3130A3AD35040506D5
:1001D0000708090A0B0C0D0E0F1011121314151637
:1001E0001718191A1B1C1DAFB1B0B5000403090480
:1001F00041726475696E6F204C656F6E6172646FD9
:100200000041726475696E6F204C4C43001201000E
:10021000020000004041233680000101020001126B
:10022000010002020000404123368000010102006B
:100230000100C18081C100000000240027002A00C5
:100240002D00300000000000250028002B002E00AB
:100250003100000000002300260029002C002F00A0
:10026000040404040403040502020202040302025B
:100270000202060606060606040402020204040838
:10028000020110408040102040804080080204019C
:100290008040201002011080102040400000000229
:1002A00000080E0000030401000B00000000000025
:1002B0000000000000000000000007060504010027
:1002C000080A0B0C0D09CE01D402CA042005290826
:1002D000390D11241FBECFEFDAE0DEBFCDBF11E034
:1002E000A0E0B1E0E8EBFAE202C005900D92AC3478
:1002F000B107D9F714E0ACE4B1E001C01D92A43C11
:10030000B107E1F712E0C2EDD2E004C02297FE018E
:100310000E945615C63CD107C9F70E940E150C94D1
:100320005A150C9400000895FC012485858530E061
:10033000205C3F4F281B31092F733070C90108958D
:10034000FC0194858585981719F42FEF3FEF06C0BF
:100350008585E80FF11D8685282F30E0C9010895B5
:10036000DC011C969C911C971D968C911D979817EB
:1003700019F42FEF3FEF10C01D968C911D97FD01D2
:10038000E80FF11D96851D968C911D978F5F8F73D9
:100390001D968C93292F30E0C901089510924F01CA
:1003A00010924E0188EE93E0A0E0B0E080935001FF
:1003B00090935101A0935201B093530182E191E0D7
:1003C00090934D0180934C0108950F931F93DF93F9
:1003D000CF930F92CDB7DEB78C016983809107016F
:1003E000882369F083E0BE016F5F7F4F41E050E0FA
:1003F0000E9448081816190614F49C0107C081E0F1
:1004000090E0F8019383828320E030E0C9010F90EF
:10041000CF91DF911F910F91089583E00E941F08F3
:1004200008950F931F93CF93DF938C01FC010FC0AE
:1004300082E00E9405079C01FFEF8F3F9F0799F024
:10044000F8018485E80FF11D2687F801C4878485AB
:10045000C82FD0E02196CF73D070F801858590E049
:10046000C817D90729F7DF91CF911F910F910895F0
:10047000FC0180818E5F808380E86CEA70E042E45A
:1004800050E00E941E070895FC0181819081913AFD
:1004900059F4813209F04CC080E060E071E047E03F
:1004A00050E00E941E0742C0913209F041C08032E4
:1004B00039F480E091E067E070E00E94070836C000
:1004C000823209F035C0828180930701809100015A
:1004D00090910101A0910201B0910301805B9440D1
:1004E000A040B04019F58091070180FD12C087E758
:1004F00097E790930108809300082BE088E190E053
:100500000FB6F894A895809360000FBE209360000A
:100510000DC088E10FB6F8948093600010926000DF
:100520000FBEA895109201081092000881E008956E
:1005300080E00895FC0191818081813A31F491300D
:1005400089F080E0933089F40DC0813269F49B30EA
:1005500021F482818093080105C09A3029F48281B8
:100560008093090181E0089580E00895EF92FF9261
:100570000F931F938C01E62EDC01ED91FC9104801A
:10058000F581E02D0995F82ED801ED91FC910680BA
:10059000F781E02DC8016E2D09958F2D90E01F91F8
:1005A0000F91FF90EF90089510929A0110929E0182
:1005B00010929D0184E291E090939C0180939B01B5
:1005C0000895EF92FF920F931F93DF93CF930F92B3
:1005D000CDB7DEB789838B017A0184E0BE016F5FFE
:1005E0007F4F41E050E00E94480884E4B801A70131
:1005F0000E9448080F90CF91DF911F910F91FF90BB
:10060000EF90089582E048E050E00E94E1020895F2
:10061000FC011682178210861186128613861482B8
:100620003496BF010E9402030895DC01683810F07F
:10063000685829C0E62FF0E067FF13C0E058F0408B
:1006400081E090E002C0880F991FEA95E2F780955B
:1006500014962C911497282314962C93149760E0E9
:1006600012C0E459FE4F6491662319F420E030E093
:100670001DC067FF08C014968C9114978D7F149647
:100680008C9314976F77FD0190E0662321F08681AB
:10069000861709F416829F5F31969630B1F7CD0127
:1006A0001496BD010E94020321E030E0C9010895C3
:1006B000CF93DF93DC01683810F0685825C0E62F2F
:1006C000F0E067FF12C0E058F04081E090E002C027
:1006D000880F991FEA95E2F714962C911497282B0E
:1006E00014962C93149760E00FC0E459FE4F649168
:1006F0006623D9F167FF08C014968C911497826025
:1007000014968C9314976F7716968C91169786177C
:10071000A9F117968C911797861781F118968C91ED
:100720001897861759F119968C911997861731F1F8
:100730001A968C911A97861709F11B968C911B9724
:100740008617E1F0ED01E0E0F0E09E2F8E81882336
:1007500021F4EA0FFB1F668306C09F5F3196219646
:10076000E630F10591F7963049F481E090E0139678
:100770009C938E93129720E030E007C0CD01149631
:10078000BD010E94020321E030E0C901DF91CF9159
:10079000089580E86EEE70E045E650E00E941E0786
:1007A0000895FC0180818F5F808380E863E571E0BC
:1007B00049E150E00E941E0708951F920F920FB664
:1007C0000F9211242F933F934F938F939F93EF9307
:1007D000FF938091C80082FD19C04091CE008091A6
:1007E000C501282F30E02F5F3F4F2F73307080916D
:1007F000C60190E02817390759F0E091C501F0E0F3
:10080000E955FE4F42A32093C50102C08091CE005E
:10081000FF91EF919F918F914F913F912F910F9069
:100820000FBE0F901F9018951F920F920FB60F9248
:1008300011242F938F939F93EF93FF939091C70170
:100840008091C801981731F48091C9008F7D809301
:10085000C90010C0E091C801F0E0E75FFD4F2081C2
:100860008091C80190E001968F7390708093C801C9
:100870002093CE00FF91EF919F918F912F910F9038
:100880000FBE0F901F901895FC01268D878D30E0CC
:10089000205C3F4F281B31092F733070C901089528
:1008A000FC01968D878D981719F42FEF3FEF06C046
:1008B000878DE80FF11D82A1282F30E0C90108952E
:1008C000DC015E969C915E975F968C915F9798177E
:1008D00019F42FEF3FEF10C05F968C915F97FD01E9
:1008E000E80FF11D92A15F968C915F978F5F8F73D8
:1008F0005F968C93292F30E0C9010895DC015D9645
:100900008C915D97882339F05096ED91FC91519729
:10091000808186FFF9CF5D961C920895DC01909648
:100920008C919097282F30E02F5F3F4F2F733070BE
:1009300091968C91919790E028173907C9F390967A
:100940008C919097FD01E80FF11DEE59FF4F6083E8
:1009500090962C9390975296ED91FC91539720810D
:1009600081E090E05B960C905B9702C0880F991F26
:100970000A94E2F7282B208381E05D968C935D97A3
:100980005096ED91FC91519780818064808381E045
:1009900090E008951092AA011092A90188EE93E0C8
:1009A000A0E0B0E08093AB019093AC01A093AD01C7
:1009B000B093AE0182E391E09093A8018093A701E8
:1009C0001092C8018091C8018093C7011092C6019E
:1009D0008091C6018093C5018DEC90E09093B401A5
:1009E0008093B3018CEC90E09093B6018093B501B5
:1009F00088EC90E09093B8018093B70189EC90E087
:100A00009093BA018093B9018AEC90E09093BC0175
:100A10008093BB018EEC90E09093BE018093BD016A
:100A200084E08093BF0183E08093C00187E08093DE
:100A3000C10185E08093C20181E08093C3010895E4
:100A400082E491E090934A028093490210924B0213
:100A500010924C0210924D0210924E0208958F9205
:100A60009F92AF92BF92CF92DF92EF92FF920F933D
:100A70001F93CF93DF934C016B017C01AA24BB240D
:100A8000C0E0D0E0C601F70162814AE050E00E9478
:100A900032068C01C6016EE20E949B05080F191FE9
:100AA000A00EB11E21960894E11CF11CC330D105A3
:100AB00049F7C601F40165814AE050E00E94320620
:100AC0009501280F391FC901DF91CF911F910F9117
:100AD000FF90EF90DF90CF90BF90AF909F908F905E
:100AE0000895CF92DF92EF92FF920F931F93CF93CF
:100AF000DF937C016B018A01C0E0D0E00FC0D6011A
:100B00006D916D01D701ED91FC910190F081E02D87
:100B1000C7010995C80FD91F0150104001151105D3
:100B200071F7CE01DF91CF911F910F91FF90EF9060
:100B3000DF90CF900895DC01ED91FC910190F08160
:100B4000E02D09950895CF93DF93EC0161157105B0
:100B500019F420E030E00FC0DB010D900020E9F730
:100B60001197A61BB70BE881F9810280F381E02D74
:100B7000AD0109959C01C901DF91CF9108954F9274
:100B80005F927F928F929F92AF92BF92CF92DF92AD
:100B9000EF92FF920F931F93DF93CF93CDB7DEB702
:100BA000A1970FB6F894DEBF0FBECDBF2C01742EF7
:100BB000CB01223008F42AE019A231E2C32ED12C55
:100BC000CC0EDD1E822E9924AA24BB24672D752FFE
:100BD000A50194010E94321579018A01C801B7016B
:100BE000A50194010E941315472D461B0894C108C6
:100BF000D1084A3014F4405D01C0495CF6014083DD
:100C0000E114F1040105110521F07E2C5F2DC801CE
:100C1000DDCFC201B6010E94A305A1960FB6F894DC
:100C2000DEBF0FBECDBFCF91DF911F910F91FF901F
:100C3000EF90DF90CF90BF90AF909F908F907F907C
:100C40005F904F900895DC012115310541F4ED913D
:100C5000FC910190F081E02D642F099508950E9488
:100C6000BF050895EF92FF920F931F939A01E62E0E
:100C7000FF2400E010E0B801A7010E9423061F91A5
:100C80000F91FF90EF9008958230B9F0833028F4EF
:100C9000882351F08130F9F40AC08430B9F08430EF
:100CA00090F08530C1F415C010926E0008958091C7
:100CB0006F008D7F80936F000895809170008D7F0D
:100CC0008093700008951092710008951092720040
:100CD00008951092730008951F920F920FB60F920D
:100CE00011242F933F934F935F936F937F938F9331
:100CF0009F93AF93BF93EF93FF9380914F02909197
:100D00005002A0915102B09152020097A105B10585
:100D100051F1E0915302F09154028081909155027B
:100D20008927808380914F0290915002A0915102B7
:100D3000B0915202181619061A061B060CF580917E
:100D40004F0290915002A0915102B091520201972E
:100D5000A109B10980934F0290935002A0935102D0
:100D6000B09352020DC083E00E944406E09153020A
:100D7000F09154029081809155028095892380835F
:100D8000FF91EF91BF91AF919F918F917F916F9163
:100D90005F914F913F912F910F900FBE0F901F9039
:100DA0001895282F809158028823C1F057FF1AC048
:100DB00015C02898909357028091F1008193E21713
:100DC000F307B9F74115510539F08091F2008823F6
:100DD00019F48BE68093E800AFBF02C04FEF5FEFDE
:100DE000CA010895AFB7F89427702093E900809165
:100DF000F200282F30E0241735070CF4A901FB017D
:100E00009B01240F311D94E6DACFDF93CF930F922D
:100E1000CDB7DEB7BE016F5F7F4F41E050E00E946B
:100E2000D106019719F02FEF3FEF03C08981282FDA
:100E300030E0C9010F90CF91DF910895FF920F9399
:100E40001F93F82E142F052F40915B0250915C02E6
:100E5000212F302FC901DC01FB016EEF29C0F7FE05
:100E600002C0949101C090812091590230915A02A0
:100E700024173507ACF48091E8008570E1F3809188
:100E8000E80082FF03C02FEF3FEF17C09093F100FF
:100E9000C90101968F739070892B11F46093E8005B
:100EA0002F5F3F4F30935A0220935902119731968A
:100EB0001097A9F6812F902F9C01C9011F910F91C6
:100EC000FF9008951F93782FE92F162F2091590234
:100ED00030915A02A0915B02B0915C022A173B0745
:100EE000C4F48091E8008570E1F38091E80082FD10
:100EF00016C0812F90E00196880F991F8093F10012
:100F0000C90101968F739070892B19F48EEF80932D
:100F1000E8002F5F3F4F30935A02209359022091EF
:100F2000590230915A022A173B07A4F48091E80035
:100F30008570E1F38091E80082FD12C083E0809328
:100F4000F100C90101968F739070892B19F48EEF0F
:100F50008093E8002F5F3F4F30935A02209359024D
:100F60004091590250915A02872F9E2FFC0170E048
:100F70006EEF43C094914A175B07A4F48091E80098
:100F80008570E1F38091E80082FF02C020E00DC08F
:100F90009093F100CA0101968F739070892B11F420
:100FA0006093E8004F5F5F4F21E04A175B07A4F4AE
:100FB0008091E8008570E1F38091E80082FF02C033
:100FC00080E00DC01092F100CA0101968F739070FD
:100FD000892B11F46093E8004F5F5F4F81E03196F9
:100FE00090E030E082239323892B31F450935A020E
:100FF0004093590280E009C07F5F711708F4BACFAF
:1010000050935A024093590281E01F9108959C0128
:101010008091E80082FFFCCFF901260F311D03C04B
:101020008091F1008193E217F307D1F7289884E6C5
:10103000809357028BEF8093E800CB010895809353
:10104000E9008091F200882319F08AE38093E80098
:10105000089508951092580281E08093D70080EAA5
:101060008093D80082E189BD09B400FEFDCF61E024
:1010700070E080E090E00E94500C80E98093D800FE
:101080008CE08093E2001092E000559A209A089537
:101090005F926F927F928F929F92AF92BF92CF9208
:1010A000DF92EF92FF920F931F93CF93DF93E82E7F
:1010B000842E752E80915802882371F18B01242F84
:1010C000352FC901EC01AAEFFA2EF7E09F2E9E20E2
:1010D000E0E45E2E8E2D90E070E2A72EB12CA822C7
:1010E000B9226AE3662E50E4C52ED12CC822D9223B
:1010F00058C09FB7F8949092E9008091E80085FD70
:1011000002C020E004C08091F200252D281B9FBF63
:10111000222361F4FA9419F42FEF3FEF4DC061E000
:1011200070E080E090E00E94500C3BC0822F90E085
:10113000C817D9070CF42C2FC21BD1094FB7F8944C
:101140009092E900A114B10421F406C01092F100BC
:1011500021502223D9F719C0E7FC03C0F801922FD0
:1011600010C0C801322F06C0FC010196E491E09343
:10117000F10031503323C1F706C081918093F10013
:1011800091509923D1F7020F111D8091E80085FF3E
:1011900005C0209729F4C114D10411F06092E80031
:1011A0004FBF209709F0A5CF5D9884E68093560243
:1011B000282D372DC9019C01C901DF91CF911F91C5
:1011C0000F91FF90EF90DF90CF90BF90AF909F90E6
:1011D0008F907F906F905F9008951F920F920FB63F
:1011E0000F9211242F933F934F935F936F937F93AD
:1011F0008F939F93AF93BF93EF93FF938091E10001
:101200001092E100982F83FF0FC01092E90081E057
:101210008093EB001092EC0082E38093ED0010923B
:10122000580288E08093F00092FF34C083E08093FE
:10123000E9008091F200882319F08AE38093E800A6
:101240008FB7F89492E09093E9009091F2008FBFED
:10125000992321F08CE491E00E94110280915602C2
:10126000882351F0809156028150809356028091DC
:101270005602882309F45D9A80915702882351F021
:1012800080915702815080935702809157028823A2
:1012900009F4289AFF91EF91BF91AF919F918F919F
:1012A0007F916F915F914F913F912F910F900FBE62
:1012B0000F901F9018950F931F93DF93CF930F926A
:1012C000CDB7DEB719828E010F5F1F4FC8010E9494
:1012D0003802C8010E94D103898190E00F90CF911C
:1012E000DF911F910F9108951F920F920FB60F92E9
:1012F0001124EF92FF921F932F933F934F935F938D
:101300006F937F938F939F93AF93BF93EF93FF93CD
:10131000DF93CF93CDB7DEB76197DEBFCDBF10921D
:10132000E9008091E80083FF14C1FE0131969E011F
:10133000275F3F4F03C08091F1008193E217F307CD
:10134000D1F7289884E68093570282EF8093E800D3
:10135000998197FF05C08091E80080FFFCCF03C012
:101360008EEF8093E800292F30E0C90180769070DD
:10137000892B09F0C7C08A81882329F41092F100D3
:101380001092F100DBC0813009F4D8C0833009F439
:10139000D5C0853049F48091E80080FFFCCF8B8177
:1013A00080688093E300CAC0863009F081C01C8148
:1013B000EF80F8841230C1F51092E90010925A02C1
:1013C0001092590210925C0210925B020E945B091B
:1013D00099E0FE013996DF01292F1D922A95E9F740
:1013E00099871A8791E09E8790E8988B9AEF998B5E
:1013F0002091590230915A02275F3F4F3C872B873B
:101400008D871092E90010925A0210925902F092C0
:101410005C02E0925B0280E0BF0149E050E00E9484
:101420001E070E945B098AC01092E90010925A02BE
:1014300010925902F0925C02E0925B02123241F487
:1014400082E290E00E94C903892B09F47BC076C038
:10145000113079F488E0E816F10419F481E0809302
:101460005D0280915D02882309F070C0EDE0F2E03A
:1014700018C0133009F066C08B81882319F4ECEE94
:10148000F1E00FC0823021F480EF91E060E106C00E
:10149000813009F057C081E092E06BE00E94620762
:1014A0004BC0449180E8BF0150E00E941E0746C037
:1014B000873009F447C0883021F481E08093F1003F
:1014C0003DC08930D9F523703070232BD9F5E2E384
:1014D000F2E091E031E026E39093E9003093EB00F5
:1014E00084918093EC002093ED009F5F31969530BE
:1014F00099F78EE78093EA001092EA008B8180933F
:1015000058021CC08F8198851092E90010925A02EF
:101510001092590290935C0280935B028D81882324
:1015200029F4CE0101960E94440206C0823051F493
:10153000CE0101960E949A02882321F08EEF8093BB
:10154000E80007C081E28093EB0003C0EFE1F2E026
:10155000A8CF6196DEBFCDBFCF91DF91FF91EF9114
:10156000BF91AF919F918F917F916F915F914F91BB
:101570003F912F911F91FF90EF900F900FBE0F9012
:101580001F9018951F920F920FB60F9211242F9350
:101590003F934F935F936F937F938F939F93AF93FB
:1015A000BF93EF93FF9380915F0290916002892B2C
:1015B00029F0E0915F02F09160020995FF91EF91AF
:1015C000BF91AF919F918F917F916F915F914F915B
:1015D0003F912F910F900FBE0F901F9018951F9263
:1015E0000F920FB60F9211242F933F934F935F9357
:1015F0006F937F938F939F93AF93BF93EF93FF93DB
:101600008091610290916202892B29F0E091610240
:10161000F09162020995FF91EF91BF91AF919F9177
:101620008F917F916F915F914F913F912F910F908B
:101630000FBE0F901F9018951F920F920FB60F922A
:1016400011242F933F934F935F936F937F938F93C7
:101650009F93AF93BF93EF93FF9380916302909119
:101660006402892B29F0E0916302F09164020995EC
:10167000FF91EF91BF91AF919F918F917F916F916A
:101680005F914F913F912F910F900FBE0F901F9040
:1016900018951F920F920FB60F9211242F933F931C
:1016A0004F935F936F937F938F939F93AF93BF936A
:1016B000EF93FF938091650290916602892B29F048
:1016C000E0916502F09166020995FF91EF91BF915B
:1016D000AF919F918F917F916F915F914F913F91CA
:1016E0002F910F900FBE0F901F9018951F920F9281
:1016F0000FB60F9211242F933F934F935F936F93E5
:101700007F938F939F93AF93BF93EF93FF938091BA
:10171000670290916802892B29F0E0916702F091AD
:1017200068020995FF91EF91BF91AF919F918F91C1
:101730007F916F915F914F913F912F910F900FBECD
:101740000F901F90189508951F920F920FB60F9249
:1017500011242F933F938F939F93AF93BF938091C7
:101760006D0290916E02A0916F02B0917002309163
:1017700071020196A11DB11D232F2D5F2D3720F081
:101780002D570196A11DB11D2093710280936D020A
:1017900090936E02A0936F02B093700280916902E1
:1017A00090916A02A0916B02B0916C020196A11D0A
:1017B000B11D8093690290936A02A0936B02B0936B
:1017C0006C02BF91AF919F918F913F912F910F909C
:1017D0000FBE0F901F9018958FB7F89420916D024F
:1017E00030916E0240916F02509170028FBFB9012B
:1017F000CA010895789484B5826084BD84B58160FF
:1018000084BD85B5826085BD85B5816085BDEEE608
:10181000F0E0808181608083E1E8F0E010828081E7
:1018200082608083808181608083E0E8F0E0808155
:1018300081608083E1E9F0E0808182608083808143
:1018400081608083E0E9F0E0808181608083E1EC69
:10185000F0E08081846080838081826080838081E9
:1018600081608083E3ECF0E0808181608083E0EC44
:10187000F0E0808182608083E2ECF0E08081816032
:101880008083EAE7F0E080818460808380818260E9
:1018900080838081816080838081806880830895D7
:1018A000EF92FF920F931F93CF93DF937B018C01F5
:1018B0003FB7F8948091690290916A02A0916B02FF
:1018C000B0916C0226B5A89B05C02F3F19F0019678
:1018D000A11DB11D3FBFBA2FA92F982F8827820FB6
:1018E000911DA11DB11D52E0880F991FAA1FBB1F9A
:1018F0005A95D1F7EC0130C00E94A30B3FB7F89482
:101900008091690290916A02A0916B02B0916C0281
:1019100026B5A89B05C02F3F19F00196A11DB11D4A
:101920003FBFBA2FA92F982F8827820F911DA11D85
:10193000B11D32E0880F991FAA1FBB1F3A95D1F73E
:101940008C1B9D0B885E9340B8F20894E108F10867
:1019500001091109C851DC4FE114F1040105110519
:1019600059F6DF91CF911F910F91FF90EF9008955D
:10197000883071F1893068F4823031F1833020F49D
:10198000813009F042C01DC0833089F08430E9F510
:1019900012C08B3059F18C3028F48930E9F08A304C
:1019A000A1F51EC08C3031F18E3079F529C08091BF
:1019B00080008F7703C0809180008F7D80938000AE
:1019C000089584B58F7702C084B58F7D84BD089556
:1019D000809190008F7707C0809190008F7D03C029
:1019E00080919000877F8093900008958091C0003F
:1019F0008F7703C08091C0008F7D8093C0000895D1
:101A00008091C200877F8093C2000895FF920F9358
:101A10001F93F62E482F50E0CA0184569D4FFC01BB
:101A20002491CA0182589D4FFC011491405A5D4F88
:101A3000FA0104910023C9F0222319F0822F0E9499
:101A4000B80CE02FF0E0EE0FFF1FEC5BFD4FA5910F
:101A5000B4919FB7F894FF2021F48C9110958123C5
:101A600002C08C91812B8C939FBF1F910F91FF908F
:101A70000895109277021092780210927B021092D1
:101A80007D0282E090E0A0E0B0E080937E0290933F
:101A90007F02A0938002B09381021092950210926F
:101AA0009F0210929E0288E491E090939D028093A1
:101AB0009C021092A1020895FF920F931F93CF935F
:101AC000DF938B010E94EC0BEB01FF24FA94FEBC28
:101AD0000DB407FEFDCF8EB58F3F11F481E008C035
:101AE0000E94EC0B6C1B7D0B6017710780F380E08C
:101AF000DF91CF911F910F91FF900895FC01848198
:101B000060E00E94060D0895FC01848161E00E945E
:101B1000060D0895DC016EBD0DB407FEFDCF8EB538
:101B200020E030E0FA01E20FF31F80818EBD0DB49A
:101B300007FEFDCF8EB52F5F3F4F82E02030380784
:101B400089F78FEF8EBD0DB407FEFDCF8EB58FEFF9
:101B50008EBD0DB407FEFDCF8EB58FEF8EBD0DB4DB
:101B600007FEFDCF8EB51A968C931A978F7185302C
:101B700011F481E0089581E115968C931597CD01BC
:101B80000E94840D80E00895FF920F931F93CF93DE
:101B9000DF93EC010E94EC0B8B01FF24FA9409C047
:101BA0000E94EC0B601B710B6D52714010F08FE0C6
:101BB0000DC0FEBC0DB407FEFDCF8EB58A878F3FEA
:101BC00079F38E3F11F481E006C08DE08D83CE0164
:101BD0000E94840D80E0DF91CF911F910F91FF90C3
:101BE0000895CF93DF93EC018E818823B1F02F818C
:101BF00038854FEF05C04EBD0DB407FEFDCF8EB545
:101C00002F5F3F4FC901019782509240A0F3388760
:101C10002F83CE010E94840D1E82DF91CF91089503
:101C2000DF92EF92FF920F931F93CF93DF93EC011C
:101C3000D62E79018A010E94F10DCE010E947E0DFF
:101C4000CE016CE271E00E945C0D8D2D80648EBD32
:101C50000DB407FEFDCF8EB528E130E0D801C701F5
:101C6000022E04C0B695A795979587950A94D2F74A
:101C70008EBD0DB407FEFDCF8EB5285030408FEFDE
:101C8000283F380759F7DD2011F485E906C088E0C0
:101C9000D81611F487E801C08FEF8EBD0DB407FE92
:101CA000FDCF8EB590E02FEF2EBD0DB407FEFDCF1A
:101CB0008EB587FF02C09150B9F78A87DF91CF9127
:101CC0001F910F91FF90EF90DF900895CF92DF92D8
:101CD000EF92FF920F931F93CF93DF93EC017A0162
:101CE0008B016901411551056105710511F482E10E
:101CF00037C08B85833039F099E0EE0CFF1C001F54
:101D0000111F9A95D1F7CE0168E1A80197010E94B1
:101D1000100E882311F084E023C0CE016EEFA601DF
:101D20000E948A0D8823E9F0CE0168E572E00E94E6
:101D30005C0D882311F485E113C0CE016DE020E035
:101D400030E040E050E00E94100E882341F48FEF15
:101D50008EBD0DB407FEFDCF8EB5882379F084E1EA
:101D60008D83CE010E94840D80E0DF91CF911F9181
:101D70000F91FF90EF90DF90CF900895CE010E94D9
:101D8000840D81E0F2CF8F929F92AF92BF92CF925B
:101D9000DF92EF92FF920F931F93CF93DF93EC01AB
:101DA0005A016B0149010115110509F470C0C80100
:101DB000820F931F8150924008F064C08E81882367
:101DC00071F088819981AA81BB81481759076A07F8
:101DD0007B0729F48F8198858816990610F5A882CB
:101DE000B982CA82DB828B85833039F059E0AA0C34
:101DF000BB1CCC1CDD1C5A95D1F7CE0161E1A601BC
:101E000095010E94100E882319F083E08D833AC05B
:101E1000CE010E94C40D8823A9F118861F8281E09B
:101E20008E838F8198852FEF06C02EBD0DB407FEDF
:101E3000FDCF3EB5019688159905B8F398878F8335
:101E400020E030E09FEF0BC09EBD0DB407FEFDCF3C
:101E50008EB5F701E20FF31F80832F5F3F4F2017EE
:101E6000310790F32F813885200F311F38872F835A
:101E70008985882319F02050324048F0CE010E9415
:101E8000F10D05C0CE010E94840D80E001C081E00B
:101E9000DF91CF911F910F91FF90EF90DF90CF9046
:101EA000BF90AF909F908F900895EF92FF920F9305
:101EB0001F93790120E030E000E012E00E94C30EA1
:101EC0001F910F91FF90EF9008956F927F928F92E4
:101ED0009F92AF92BF92CF92DF92EF92FF920F93B9
:101EE0001F93CF93DF93EC017A018B012D81222385
:101EF00009F480C08B899C89AD89BE8984179507B8
:101F0000A607B70708F476C085C0E114F1040105FF
:101F1000110549F41E821F82188619861A861B86AF
:101F20001C861D8665C02A853B854C855D85EB8DAD
:101F3000FC8D858590E0099621503040404050400E
:101F400039014A01082E04C09694879477946794C7
:101F50000A94D2F72F5F3F4F4F4F5F4F0894E1082D
:101F6000F108010911095701680104C0D694C7940A
:101F7000B794A7948A95D2F70894E11CF11C011D2F
:101F8000111DA614B704C804D90428F02115310581
:101F90004105510549F48F89988DA98DBA8D8E839D
:101FA0009F83A887B98716C0A618B708C808D9089C
:101FB00011C04E815F81688579858B8D9C8D9401E0
:101FC0000E9477130894A108B108C108D10888239A
:101FD00031F410C086E0882E912C8C0E9D1EA11429
:101FE000B104C104D10429F7EA86FB860C871D875A
:101FF00081E001C080E0DF91CF911F910F91FF90B0
:10200000EF90DF90CF90BF90AF909F908F907F9098
:102010006F900895223009F078CFE6CFCF93DF9309
:10202000EC01462F6E857F85888999890E94A012D0
:10203000882319F420E030E00AC08A89282F30E094
:1020400095E0220F331F9A95E1F723543D4FC901C4
:10205000DF91CF9108950F931F93CF93DF938C015E
:10206000FC0185818823D9F1848187FF35C0C801AF
:1020700061E00E940E10EC01009789F1F801858162
:10208000823040F483899489A589B6898C8F9D8F8D
:10209000AE8FBF8FF8018789908D9B8F8A8F87893C
:1020A000908DA18DB28DCD01AA27BB279D8B8C8BE6
:1020B000E091BB02F091BC02309751F0BE016A5E24
:1020C0007F4FCE0148960995888D998D9B8B8A8B81
:1020D000F80184818F7784830E94651201C080E0BB
:1020E000DF91CF911F910F910895CF93DF93EC0172
:1020F0009C012A5F3F4F8B8D9C8D41E050E060E05A
:1021000070E00E94EA138823A1F08F89988DA98D31
:10211000BA8D0097A105B10559F48E819F81A885DC
:10212000B9858F8B988FA98FBA8F8C8180688C83AB
:1021300081E0DF91CF9108952F923F924F925F926D
:102140007F928F929F92AF92BF92CF92DF92EF9247
:10215000FF920F931F93DF93CF9300D000D000D056
:10216000CDB7DEB76C01162F072F5E834D83DC01E0
:1021700015968C911597813009F070C114968C9149
:1021800081FF6CC18EC1F6014389548965897689C6
:1021900082859385A485B58584179507A607B7071B
:1021A00031F0C6010E94650F882309F457C1812FC1
:1021B000902F9C0129012D803E8017C1D6015B968E
:1021C000ED91FC915C97DA01C90119E0B695A795EC
:1021D000979587951A95D1F774807A9478227FEF36
:1021E000872E71E0972E82229322772009F04EC02D
:1021F0008114910409F04AC0D60116964D915D9163
:102200006D917C911997411551056105710581F416
:1022100057968D919D910D90BC91A02D0097A10591
:10222000B10549F1F60186839783A087B1872EC057
:10223000CF019E012F5F3F4F0E947713882309F43F
:1022400014C129813A814B815C81D6015B96ED9165
:10225000FC915C978789803129F088EF9FEFAFEF81
:10226000BFE004C088EF9FEFA0E0B0E02817390777
:102270004A075B0730F0C6010E947510882331F4CD
:10228000EDC0F601268337834087518780E092E0D6
:102290008819990951018215930508F45C01D6014A
:1022A0005B96ED91FC915C971696ED90FD900D91EB
:1022B0001C9119978EEF9FEFAFEFBFEFE80EF91E5D
:1022C0000A1F1B1F058404C0EE0CFF1C001F111FFA
:1022D0000A94D2F786859785A089B189E80EF91E00
:1022E0000A1F1B1FE70CF11C011D111D90E0A91610
:1022F00092E0B90651F580910A0190910B01A091ED
:102300000C01B0910D018E159F05A007B10761F476
:102310008FEF9FEFAFEFBFEF80930A0190930B0118
:10232000A0930C01B0930D018091BD049091BE0467
:10233000B801A70192010E94660E882309F48EC09D
:10234000A0E0B2E04A0E5B1E3EC08114910409F584
:10235000F601228533854485558583899489A5892D
:10236000B689281739074A075B0798F00E9465125B
:10237000882309F473C0E0920A01F0920B010093E4
:102380000C0110930D018091BF0481608093BF0404
:1023900008C0C801B70141E00E94A012882309F4D7
:1023A0005DC0940123543D4FA9014A0D5B1DD2012C
:1023B000F90102C08D918193E417F507D9F7E21B6B
:1023C000F30B4E0E5F1E2A183B08950140E050E0CB
:1023D000F60182859385A485B585820F931FA41F7E
:1023E000B51F82879387A487B587D6011A962D914A
:1023F0003D914D915C911D972114310409F0DECE81
:1024000053968D919D910D90BC91A02D82179307AD
:10241000A407B50748F4F601238B348B458B568B04
:1024200084818068848311C08091BB029091BC023A
:10243000892B59F08D819E81892B39F0D601149614
:102440008C911497806814968C93F601848183FF95
:102450000EC0C6010E942B10882349F481E090E051
:10246000D60113969C938E9312971E821D828D81A6
:102470009E8126960FB6F894DEBF0FBECDBFCF91DA
:10248000DF911F910F91FF90EF90DF90CF90BF9061
:10249000AF909F908F907F905F904F903F902F9044
:1024A000089582FD70CE83CEDF93CF930F92CDB788
:1024B000DEB76983BE016F5F7F4F41E050E00E944D
:1024C0009C100F90CF91DF9108958091BF048823D5
:1024D00099F140910A0150910B0160910C017091AA
:1024E0000D018091BD049091BE042DEB32E00E945D
:1024F000660E882319F14091C0045091C104609187
:10250000C2047091C304411551056105710591F034
:102510008091BD049091BE042DEB32E00E94660EC6
:10252000882361F01092C0041092C1041092C2047A
:102530001092C3041092BF0481E0089580E00895D2
:10254000DF92EF92FF920F931F937B018C01D42EA9
:1025500080910A0190910B01A0910C01B0910D01A5
:102560008E159F05A007B107C1F00E946512882350
:10257000D9F08091BD049091BE04B801A7012DEB64
:1025800032E00E94550F882379F0E0920A01F09220
:102590000B0100930C0110930D018091BF048D2954
:1025A0008093BF0481E001C080E01F910F91FF90F4
:1025B000EF90DF9008954F925F926F927F928F928B
:1025C0009F92AF92BF92CF92DF92EF92FF920F93C2
:1025D0001F93CF93DF93EC016A017B01280139013E
:1025E000423051056105710508F46FC089859A85EF
:1025F000AB85BC850196A11DB11D84179507A60763
:10260000B70708F462C02B893C894D895E898F89A0
:10261000803129F499278F2D7E2D6D2D09C0C7019A
:10262000B60117E096958795779567951A95D1F736
:102630004B015C01820E931EA41EB51E80910A01FF
:1026400090910B01A0910C01B0910D018816990693
:10265000AA06BB0639F0C501B40140E00E94A012F1
:10266000882399F18F89803149F4F601F070EE0FDB
:10267000FF1FE354FD4F518240820DC0F601EF77FA
:10268000F070EE0FFF1FEE0FFF1FE354FD4F40826F
:102690005182628273828091BF0481608093BF0403
:1026A0008A89823080F08D819E81AF81B885880EC5
:1026B000991EAA1EBB1E8092C0049092C104A092D3
:1026C000C204B092C30481E001C080E0DF91CF91E9
:1026D0001F910F91FF90EF90DF90CF90BF90AF9040
:1026E0009F908F907F906F905F904F900895CF92C2
:1026F000DF92EF92FF920F931F93CF93DF93EC0142
:102700007A018B01690189859A85AB85BC85019623
:10271000A11DB11D84179507A607B70708F450C07F
:102720002B893C894D895E898F89803129F49927CD
:10273000812F702F6F2D09C0C801B701E7E0969572
:10274000879577956795EA95D1F7260F371F481F2C
:10275000591F80910A0190910B01A0910C01B09139
:102760000D01281739074A075B0739F0CA01B9017B
:1027700040E00E94A012882319F18F89803159F41A
:10278000F701F070EE0FFF1FE354FD4F8081918140
:10279000A0E0B0E00EC0F701EF77F070EE0FFF1F82
:1027A000EE0FFF1FE354FD4F80819181A281B38121
:1027B000BF70F60180839183A283B38381E001C05F
:1027C00080E0DF91CF911F910F91FF90EF90DF900C
:1027D000CF9008952F923F924F925F926F927F9287
:1027E0008F929F92AF92BF92CF92DF92EF92FF9221
:1027F0000F931F93DF93CF93CDB7DEB72F970FB60D
:10280000F894DEBF0FBECDBF1C014A875B876C8783
:102810007D873F872E87D9010D911D912D913C9188
:10282000011511052105310549F0480159010894A8
:10283000811C911CA11CB11C198610C0FC01808058
:102840009180A280B38019868A859B85AC85BD85E1
:102850000197A105B10511F491E09987D10119966D
:102860008D919D910D90BC91A02D0196A11DB11D42
:102870008D839E83AF83B8877501640144245524FA
:1028800032018E010F5F1F4FF10181859285A38573
:10289000B485481659066A067B0608F090C08D81FB
:1028A0009E81AF81B8858C159D05AE05BF0550F49E
:1028B00082E0882E912CA12CB12CB2E0CB2ED12C11
:1028C000E12CF12CC101B701A60198010E947713F8
:1028D000882309F474C089819A81AB81BC81A701E6
:1028E00096012F5F3F4F4F4F5F4F0097A105B105F6
:1028F00019F049015A010DC0281939094A095B0923
:102900008A859B85AC85BD85281739074A075B07F3
:1029100059F00894411C511C611C711C0894C11C85
:10292000D11CE11CF11CB0CFC101A601B7010FEF12
:102930001FEF2FEF3FE00E94DB12882399F43FC086
:102940002601370108944108510861087108C10146
:10295000B301A201970186010E94DB12882379F15D
:10296000730162018C149D04AE04BF0448F3AE856C
:10297000BF854D915D916D917C914115510561052A
:10298000710539F0C101950184010E94DB12882391
:10299000B1F0EE85FF8580829182A282B382F985B3
:1029A000FF2359F00894811C911CA11CB11CD1017A
:1029B0008D929D92AD92BC92139781E001C080E010
:1029C0002F960FB6F894DEBF0FBECDBFCF91DF912B
:1029D0001F910F91FF90EF90DF90CF90BF90AF903D
:1029E0009F908F907F906F905F904F903F902F902F
:1029F00008950E94FA0B8EE592E00E942A0861E099
:102A000070E080E090E00E94500C8CE491E040E89F
:102A100055E260E070E00E94930108950E94F9146D
:102A200081E090E00895629FD001739FF001829F42
:102A3000E00DF11D649FE00DF11D929FF00D839F4D
:102A4000F00D749FF00D659FF00D9927729FB00DEA
:102A5000E11DF91F639FB00DE11DF91FBD01CF01FD
:102A600011240895A1E21A2EAA1BBB1BFD010DC063
:102A7000AA1FBB1FEE1FFF1FA217B307E407F5072E
:102A800020F0A21BB30BE40BF50B661F771F881F0A
:102A9000991F1A9469F760957095809590959B01A0
:102AA000AC01BD01CF010895EE0FFF1F0590F49119
:082AB000E02D0994F894FFCF1A
:102AB80000E10000000000000101FFFFFFFF00002F
:102AC8000000E50171059401B001A0010D02110299
:102AD80000000000B6027105580315030803000042
:102AE80000008E0471054404600450047E04000054
:0C2AF80000002F050000000054127105C2
:00000001FF
