:100000000C948B040C94C8160C94F5160C942217BF
:100010000C944F170C94B3040C94B3040C947C17F9
:100020000C94B3040C94B3040C94F3140C947A154C
:100030000C94B3040C94B3040C94B3040C94B30464
:100040000C94B3040C94B3040C94B3040C94B30454
:100050000C94B3040C94B3040C94B3040C94AB1739
:100060000C94B3040C94860E0C94BD0E0C94B30443
:100070000C94B3040C94B3040C94B3040C94B30424
:100080000C9472120C94B3040C94B3040C94B30447
:100090000C94B3040C94B3040C94B3040C94B30404
:1000A0000C94B3040C94B3040C94B304080B000236
:1000B0000202010009040000010202000005240000
:1000C0001001052401010104240206052406000193
:1000D0000705810310004009040100020A00000026
:1000E00007050202400000070583024000000501E9
:1000F0000902A1010901A1008501050919012903CE
:10010000150025019503750181029501750581038F
:1001100005010930093109381581257F75089503D6
:100120008106C0C005010906A1018502050719E085
:1001300029E71500250175019508810295017508CB
:1001400081039506750815002565050719002965C1
:100150008100C0090402000103000000092101011F
:100160000001226500070584034000010000000033
:10017000000000002A2B2800000000000000000002
:100180000000000000000000000000002C9EB4A051
:10019000A1A2A434A6A7A5AE362D3738271E1F204E
:1001A000212223242526B333B62EB7B89F84858613
:1001B0008788898A8B8C8D8E8F9091929394959657
:1001C0009798999A9B9C9D2F3130A3AD35040506D5
:1001D0000708090A0B0C0D0E0F1011121314151637
:1001E0001718191A1B1C1DAFB1B0B5000403090480
:1001F00041726475696E6F204C656F6E6172646FD9
:100200000041726475696E6F204C4C43001201000E
:10021000020000004041233680000101020001126B
:10022000010002020000404123368000010102006B
:100230000100C18081C100000000240027002A00C5
:100240002D00300000000000250028002B002E00AB
:100250003100000000002300260029002C002F00A0
:10026000040404040403040502020202040302025B
:100270000202060606060606040402020204040838
:10028000020110408040102040804080080204019C
:100290008040201002011080102040400000000229
:1002A00000080E0000030401000B00000000000025
:1002B0000000000000000000000007060504010027
:1002C000080A0B0C0D0900000000003E5B4F5B3E6E
:1002D0003E6B4F6B3E1C3E7C3E1C183C7E3C181C0B
:1002E000577D571C1C5E7F5E1C00183C1800FFE702
:1002F000C3E7FF0018241800FFE7DBE7FF30483AA8
:10030000060E2629792926407F050507407F052509
:100310003F5A3CE73C5A7F3E1C1C08081C1C3E7F91
:1003200014227F22145F5F005F5F06097F017F0058
:100330006689956A606060606094A2FFA294080478
:100340007E040810207E201008082A1C08081C2A99
:1003500008081E101010100C1E0C1E0C30383E38F1
:1003600030060E3E0E06000000000000005F000098
:100370000007000700147F147F14242A7F2A122309
:100380001308646236495620500008070300001C19
:100390002241000041221C002A1C7F1C2A08083E22
:1003A0000808008070300008080808080000606035
:1003B0000020100804023E5149453E00427F4000A3
:1003C00072494949462141494D331814127F10277B
:1003D000454545393C4A49493141211109073649CA
:1003E000494936464949291E00001400000040349E
:1003F00000000008142241141414141400412214A3
:100400000802015909063E415D594E7C1211127CC9
:100410007F494949363E414141227F4141413E7F2A
:10042000494949417F090909013E414151737F080A
:1004300008087F00417F41002040413F017F0814B0
:1004400022417F404040407F021C027F7F04081011
:100450007F3E4141413E7F090909063E4151215EEF
:100460007F09192946264949493203017F01033F83
:100470004040403F1F2040201F3F4038403F631412
:1004800008146303047804036159494D43007F4114
:1004900041410204081020004141417F0402010251
:1004A0000440404040400003070800205454784076
:1004B0007F284444383844444428384444287F380A
:1004C0005454541800087E090218A4A49C787F088C
:1004D00004047800447D40002040403D007F102807
:1004E000440000417F40007C047804787C080404C8
:1004F000783844444438FC1824241818242418FC60
:100500007C08040408485454542404043F44243C04
:100510004040207C1C2040201C3C4030403C442873
:100520001028444C9090907C4464544C440008360D
:10053000410000007700000041360800020102047B
:10054000023C2623263C1EA1A161123A4040207A9B
:1005500038545455592155557941215454784121E5
:100560005554784020545579400C1E52721239551A
:100570005555593954545459395554545800004517
:100580007C410002457D420001457C40F029242940
:10059000F0F0282528F07C545545002054547C5414
:1005A0007C0A097F49324949493232484848323247
:1005B0004A4848303A4141217A3A42402078009DE9
:1005C000A0A07D39444444393D4040403D3C24FF97
:1005D0002424487E4943662B2FFC2F2BFF0929F644
:1005E00020C0887E090320545479410000447D4195
:1005F0003048484A32384040227A007A0A0A727DEE
:100600000D19317D2629292F282629292926304808
:100610004D4020380808080808080808382F10C876
:10062000ACBA2F102834FA00007B000008142A14FA
:100630002222142A1408AA005500AAAA55AA55AACB
:10064000000000FF00101010FF00141414FF001031
:1006500010FF00FF1010F010F0141414FC0014141C
:10066000F700FF0000FF00FF1414F404FC1414173B
:10067000101F10101F101F1414141F00101010F062
:10068000000000001F101010101F10101010F010AC
:10069000000000FF101010101010101010FF1000BC
:1006A0000000FF140000FF00FF00001F10170000F3
:1006B000FC04F414141710171414F404F40000FFCD
:1006C00000F714141414141414F700F71414141766
:1006D0001410101F101F141414F4141010F010F044
:1006E00000001F101F0000001F14000000FC140079
:1006F00000F010F01010FF10FF141414FF1410106D
:10070000101F00000000F010FFFFFFFFFFF0F0F0EF
:10071000F0F0FFFFFF0000000000FFFF0F0F0F0FC2
:100720000F38444438447C2A2A3E147E02020606CE
:10073000027E027E0263554941633844443C0440D2
:100740007E201E2006027E020299A5E7A5991C2A9A
:10075000492A1C4C7201724C304A4D4D3030487859
:100760004830BC625A463D3E494949007E0101017C
:100770007E2A2A2A2A2A44445F444440514A44405B
:1007800040444A51400000FF0103E080FF000008A0
:10079000086B6B083612362436060F090F06000068
:1007A00018180000001010003040FF0101001F0168
:1007B000011E00191D1712003C3C3C3C00000000CB
:1007C000000F0180961180FFB103012C2DB20301AF
:1007D0002C2DB306012C2D012C2DB40107C003A232
:1007E0000284C101C5C2020A00C3028A2AC4028A65
:1007F000EEC5010E20003601C83A0105022A0400A8
:100800000200812B04000100A0022A040000007FE6
:100810002B040000009F04E010021C07123732294D
:100820002D29252B3900010310E110031D07062E89
:100830002C292D2E2E373F0000021013800A29800C
:100840006413018032118064260104B1020B14C0CC
:10085000020800C10105C5024130C701C1EC011BFE
:100860003A8155642A040000007F2B040000009F99
:100870003601C8B70100F20100E08F282422312B95
:100880000E53A5421618121A140332E18F171B1DBE
:100890000E14112CA53D09272D252B3C3213800A5F
:1008A0002980FF120180321180FF3A81050AB1834D
:1008B0000006030A360108B6021502B40100C08220
:1008C00002700AC10105C2020102C5823C380AFC5D
:1008D000021115E01009160920211B131917151E06
:1008E0002B0405020EE1900B14081E221D181E1B7E
:1008F0001A242B0606020F0A2A04000200812B0488
:100900000002008113800A2980FF770C7D0D730F90
:10091000C90F2F14ED1911241FBECFEFDAE0DEBF8F
:10092000CDBF13E0A0E0B1E0EAE6FFE502C005902C
:100930000D92A833B107D9F716E0A8E3B3E001C0E0
:100940001D92A03BB107E1F719E0C6E1D9E004C070
:100950002297FE010E943B2FCA30D107C9F70E949F
:10096000142E0C94B32F0C940000EF92FF920F936F
:100970001F937B018C0120E030E040E05FE40E94A7
:10098000610888238CF0C801B70120E030E040E026
:100990005FE40E942D060E947A099B01AC01205061
:1009A00030404040504806C0C801B7010E947A0953
:1009B0009B01AC01B901CA011F910F91FF90EF900B
:1009C0000895A0E0B0E0E7EEF4E00C94022FDC0123
:1009D0002B01FA019C91923008F439C1EB01888116
:1009E000823008F433C1943069F4843009F02FC1A7
:1009F00011969C9111978981981709F428C1A4E94F
:100A0000B1E025C1843009F421C18230A9F49230CB
:100A100009F01DC19A01AD0188E0EA010990AE011B
:100A2000E90109929E018150C1F7E2018981119685
:100A30009C918923818308C1923009F407C11296E1
:100A40002D903C901397EB018A819B811496AD9079
:100A5000BD90CD90DC901797EC80FD800E811F81BA
:100A60009101281B390BB90137FF04C0662777278E
:100A7000621B730B603271050CF061C01216130615
:100A80006CF537014801062E04C09694879477943C
:100A900067940A94D2F721E030E040E050E004C0CF
:100AA000220F331F441F551F6A95D2F72150304043
:100AB000404050402E213F21402351232115310534
:100AC0004105510521F021E030E040E050E079019E
:100AD0008A01E628F728082919293CC0232BD1F1DF
:100AE000260E371E35014601062E04C096948794C3
:100AF000779467940A94D2F721E030E040E050E028
:100B000004C0220F331F441F551F6A95D2F721508E
:100B10003040404050402A213B214C215D2121158D
:100B200031054105510521F021E030E040E050E081
:100B300059016A01A628B728C828D9280BC08215F0
:100B400093052CF01C01AA24BB24650103C0EE24EC
:100B5000FF24870111969C91D20111968C919817D0
:100B600009F445C0992339F0A80197012A193B09D6
:100B70004C095D0906C0A60195012E193F09400BDD
:100B8000510B57FD08C011823382228224833583A2
:100B9000468357831DC081E0818333822282882768
:100BA0009927DC01821B930BA40BB50B84839583DF
:100BB000A683B7830DC0220F331F441F551F248304
:100BC0003583468357838281938101979383828300
:100BD0002481358146815781DA01C9010197A10934
:100BE000B1098F5F9F4FAF4FBF4328F30BC0918375
:100BF00033822282EA0CFB1C0C1D1D1DE482F5824F
:100C00000683178383E08083248135814681578161
:100C100057FF1AC0C901AA2797FDA095BA2F817066
:100C20009070A070B0705695479537952795822B98
:100C3000932BA42BB52B84839583A683B7838281C2
:100C40009381019693838283DF0101C0D201CD019C
:100C5000CDB7DEB7E2E10C941E2FA0E2B0E0E3E3F3
:100C6000F6E00C940E2F69837A838B839C832D830B
:100C70003E834F835887E9E0EE2EF12CEC0EFD1EEB
:100C8000CE010196B7010E946B0B8E010F5E1F4FC4
:100C9000CE010596B8010E946B0B8A8991E08927E5
:100CA0008A8BC701B801AE01475E5F4F0E94E10425
:100CB0000E94960AA096E6E00C942A2FA0E2B0E0EB
:100CC000E4E6F6E00C940E2F69837A838B839C8391
:100CD0002D833E834F835887F9E0EF2EF12CEC0EE5
:100CE000FD1ECE010196B7010E946B0B8E010F5EB7
:100CF0001F4FCE010596B8010E946B0BC701B801CA
:100D0000AE01475E5F4F0E94E1040E94960AA096E2
:100D1000E6E00C942A2FA0E2B0E0E1E9F6E00C94C2
:100D2000022F69837A838B839C832D833E834F8339
:100D30005887CE010196BE01675F7F4F0E946B0B03
:100D4000CE010596BE016F5E7F4F0E946B0B9985A9
:100D5000923088F089898230C8F0943019F482305A
:100D600051F404C0843029F4923081F484E991E094
:100D7000C6C0923049F420E09A858A89981321E010
:100D80002A87CE010996BBC0823049F420E09A85BB
:100D90008A89981321E02A8BCE014196B0C02D8418
:100DA0003E844F8458886D887E888F88988CEE2486
:100DB000FF248701AA24BB24650140E050E060E0E5
:100DC00070E0E0E0F0E0C10181709070892BE9F003
:100DD000E60CF71C081D191D9A01AB012A0D3B1DDD
:100DE0004C1D5D1D80E090E0A0E0B0E0E614F7044B
:100DF0000805190520F481E090E0A0E0B0E0BA0118
:100E0000A901480F591F6A1F7B1FAA0CBB1CCC1CD1
:100E1000DD1C97FE08C081E090E0A0E0B0E0A82AC9
:100E2000B92ACA2ADB2A3196E032F10549F0660C6C
:100E3000771C881C991C5694479437942794C3CFE9
:100E4000FA85EA892B893C898B859C85280F391F77
:100E50002E5F3F4F17C0CA0181709070892B61F0DF
:100E600016950795F794E79480E090E0A0E0B0E84D
:100E7000E82AF92A0A2B1B2B7695679557954795F3
:100E80002F5F3F4F77FDE7CF0CC0440F551F661F04
:100E9000771F17FD4160EE0CFF1C001F111F215032
:100EA0003040403090E0590790E0690790E47907BE
:100EB00060F32B8F3C8FDB01CA018F779070A0709D
:100EC000B07080349105A105B10561F447FD0AC0F9
:100ED000E114F1040105110529F0405C5F4F6F4FEB
:100EE0007F4F40781A8EFE1711F081E08A8F4D8F68
:100EF0005E8F6F8F78A383E0898FCE0149960E9421
:100F0000960AA096E2E10C941E2FA8E1B0E0EBE86F
:100F1000F7E00C940A2F69837A838B839C832D835B
:100F20003E834F835887B9E0EB2EF12CEC0EFD1E6B
:100F3000CE010196B7010E946B0B8E010F5E1F4F11
:100F4000CE010596B8010E946B0B2985223008F46A
:100F50007EC03989323010F4B8017CC08A859A8904
:100F600089278A87243011F0223031F4231709F0C1
:100F70006EC064E971E06EC0343039F41D861E869F
:100F80001F86188A1C861B8604C0323021F484E038
:100F90008987B7015FC02B853C858B899C89281B7D
:100FA000390B3C872B87ED84FE840F851889AD882B
:100FB000BE88CF88D88CEA14FB040C051D0540F4CC
:100FC000EE0CFF1C001F111F215030403C872B8767
:100FD00020E030E040E050E080E090E0A0E0B0E4CD
:100FE00060E070E0EA14FB040C051D0540F0282BBE
:100FF000392B4A2B5B2BEA18FB080C091D09B69507
:10100000A79597958795EE0CFF1C001F111F6F5F2A
:101010007F4F6F31710531F7DA01C9018F77907019
:10102000A070B07080349105A105B10561F427FD71
:101030000AC0E114F1040105110529F0205C3F4FBD
:101040004F4F5F4F20782D873E874F87588BBE01CB
:10105000675F7F4FCB010E94960A6896EAE00C9486
:10106000262FA8E1B0E0E7E3F8E00C940E2F6983A7
:101070007A838B839C832D833E834F83588789E0BB
:10108000E82EF12CEC0EFD1ECE010196B7010E9458
:101090006B0B8E010F5E1F4FCE010596B8010E94AB
:1010A0006B0B8985823040F08989823028F0C70136
:1010B000B8010E94E30B01C08FEF6896E6E00C9444
:1010C0002A2FA8E1B0E0E7E6F8E00C940E2F698340
:1010D0007A838B839C832D833E834F83588789E05B
:1010E000E82EF12CEC0EFD1ECE010196B7010E94F8
:1010F0006B0B8E010F5E1F4FCE010596B8010E944B
:101100006B0B8985823040F08989823028F0C701D5
:10111000B8010E94E30B01C08FEF6896E6E00C94E3
:101120002A2FA8E1B0E0E7E9F8E00C940E2F6983DC
:101130007A838B839C832D833E834F83588789E0FA
:10114000E82EF12CEC0EFD1ECE010196B7010E9497
:101150006B0B8E010F5E1F4FCE010596B8010E94EA
:101160006B0B8985823040F08989823028F0C70175
:10117000B8010E94E30B01C081E06896E6E00C94A0
:101180002A2FA8E1B0E0E7ECF8E00C940E2F698379
:101190007A838B839C832D833E834F83588789E09A
:1011A000E82EF12CEC0EFD1ECE010196B7010E9437
:1011B0006B0B8E010F5E1F4FCE010596B8010E948A
:1011C0006B0B8985823040F08989823028F0C70115
:1011D000B8010E94E30B01C081E06896E6E00C9440
:1011E0002A2FA8E1B0E0E7EFF8E00C94122F698312
:1011F0007A838B839C832D833E834F835887CE01D4
:101200000196BE01675F7F4F0E946B0BCE01059672
:10121000BE016F5E7F4F0E946B0B8985823028F084
:1012200020E030E08989823010F421E030E0822F24
:101230006896E2E00C942E2FA8E0B0E0E2E2F9E03C
:101240000C940B2F9B01AC0183E08983DA01C90167
:101250008827B7FD83959927AA27BB27B82E211584
:1012600031054105510519F482E089833AC088238C
:10127000A9F0203080E0380780E0480780E8580770
:1012800029F460E070E080E09FEC30C0EE24FF24A1
:101290008701E21AF30A040B150B02C079018A01D7
:1012A0008EE1C82ED12CDC82CB82ED82FE820F83B0
:1012B0001887C801B7010E94470A01971816190636
:1012C00084F4082E04C0EE0CFF1C001F111F0A94AA
:1012D000D2F7ED82FE820F831887C81AD90ADC8202
:1012E000CB82BA82CE0101960E94960A2896E9E046
:1012F0000C94272FACE0B0E0E0E8F9E00C94122F5A
:1013000069837A838B839C83CE010196BE016B5FD8
:101310007F4F0E946B0B8D81823061F1823050F1E2
:10132000843021F48E81882351F12EC02F8138859D
:1013300037FD20C06E812F3131051CF06623F9F096
:1013400023C08EE190E0821B930B29853A854B8563
:101350005C8504C056954795379527958A95D2F7B1
:101360006623B1F050954095309521953F4F4F4FF2
:101370005F4F0EC020E030E040E050E009C02FEFAA
:101380003FEF4FEF5FE704C020E030E040E050E87F
:10139000B901CA012C96E2E00C942E2FA8E0B0E02F
:1013A000E4EDF9E00C940A2F7B018C0161157105C5
:1013B0008105910519F482E0898360C083E0898307
:1013C0008EE1C82ED12CDC82CB82ED82FE820F838F
:1013D0001887C801B7010E94470AFC013197F7FF3F
:1013E0003BC0222733272E1B3F0B57016801022EDB
:1013F00004C0D694C794B794A7940A94D2F740E057
:1014000050E060E070E081E090E0A0E0B0E004C077
:10141000880F991FAA1FBB1F2A95D2F70197A10910
:10142000B1098E219F21A023B1230097A105B10509
:1014300021F041E050E060E070E04A295B296C292E
:101440007D294D835E836F8378878EE190E08E1BCC
:101450009F0B9C838B8312C0309781F00E2E04C0AB
:10146000EE0CFF1C001F111F0A94D2F7ED82FE82C2
:101470000F831887CE1ADF0ADC82CB821A82CE0154
:1014800001960E94960A2896EAE00C94262FEF9285
:10149000FF920F931F937B018C0180E0E81680E0A0
:1014A000F80681E0080780E0180788F48FEFE81657
:1014B000F1040105110531F028F088E090E0A0E08A
:1014C000B0E017C080E090E0A0E0B0E012C080E0A3
:1014D000E81680E0F80680E0080781E0180728F0A9
:1014E00088E190E0A0E0B0E004C080E190E0A0E0FE
:1014F000B0E020E230E040E050E0281B390B4A0B1E
:101500005B0B04C016950795F794E7948A95D2F77C
:10151000F701E456FE4F8081281B3109410951092A
:10152000C9011F910F91FF90EF900895DF92EF9204
:10153000FF920F931F93FC01E480F58006811781D1
:10154000D1808081823048F480E090E0A0E1B0E07A
:10155000E82AF92A0A2B1B2BA5C0843009F49FC066
:10156000823021F4EE24FF24870105C0E114F10448
:101570000105110519F4E0E0F0E096C06281738185
:101580009FEF623879070CF05BC022E83FEF261B23
:10159000370B2A3131052CF020E030E040E050E0FC
:1015A0002AC0B801A701022E04C076956795579509
:1015B00047950A94D2F781E090E0A0E0B0E004C043
:1015C000880F991FAA1FBB1F2A95D2F70197A1095F
:1015D000B1098E219F21A023B1230097A105B10558
:1015E00021F081E090E0A0E0B0E09A01AB01282B6F
:1015F000392B4A2B5B2BDA01C9018F779070A070D1
:10160000B07080349105A105B10539F427FF09C0F8
:10161000205C3F4F4F4F5F4F04C0215C3F4F4F4F07
:101620005F4FE0E0F0E02030A0E03A07A0E04A079A
:10163000A0E45A0710F0E1E0F0E079018A0127C048
:101640006038710564F5FB01E158FF4FD801C7010F
:101650008F779070A070B07080349105A105B105AE
:1016600039F4E7FE0DC080E490E0A0E0B0E004C0F3
:101670008FE390E0A0E0B0E0E80EF91E0A1F1B1F08
:1016800017FF05C016950795F794E794319687E004
:1016900016950795F794E7948A95D1F705C0EE243F
:1016A000FF248701EFEFF0E06E2F679566276795BF
:1016B000902F9F77D794DD24D7948E2F8695492F2E
:1016C000462B582F5D29B701CA011F910F91FF903A
:1016D000EF90DF900895FC01DB0140815181228170
:1016E000622F6F7770E0221F2227221F9381892F9C
:1016F000880F822B282F30E0991F9927991F119668
:101700009C93119721153105A9F5411551056105E6
:10171000710511F482E037C082E89FEF13969C9325
:101720008E9312979A01AB0167E0220F331F441F7B
:10173000551F6A95D1F783E08C930DC0220F331F9C
:10174000441F551F12968D919C91139701971396E4
:101750009C938E931297203080E0380780E04807F2
:1017600080E4580758F314962D933D934D935C9362
:10177000179708952F3F310579F4411551056105FB
:10178000710519F484E08C93089564FF03C081E02F
:101790008C9312C01C9210C02F57304013963C936C
:1017A0002E93129783E08C9387E0440F551F661F9A
:1017B000771F8A95D1F7706414964D935D936D935E
:1017C0007C93179708951F93DC01FB019C91923045
:1017D00008F447C08081823008F443C0943051F44B
:1017E00011961C91843099F58181682F70E0611BFE
:1017F00071093FC0843021F0923031F48230B9F168
:101800008181882389F12DC011961C911197823016
:10181000F1F081811817D9F412962D913C9113970C
:10182000828193818217930794F028173907BCF0BF
:1018300014968D919D910D90BC91A02D24813581A0
:1018400046815781281739074A075B0718F4112387
:1018500041F00AC082179307A407B50740F411238B
:1018600019F061E070E005C06FEF7FEF02C060E04B
:1018700070E0CB011F9108950895FC0124858585B2
:1018800030E0205C3F4F281B31092F733070C901B5
:101890000895FC0194858585981719F42FEF3FEF83
:1018A00006C08585E80FF11D8685282F30E0C90127
:1018B0000895DC011C969C911C971D968C911D9798
:1018C000981719F42FEF3FEF10C01D968C911D97BC
:1018D000FD01E80FF11D96851D968C911D978F5F78
:1018E0008F731D968C93292F30E0C90108951092B3
:1018F0003B0310923A0388EE93E0A0E0B0E08093BF
:101900003C0390933D03A0933E03B0933F038FEAC3
:1019100092E0909339038093380308950F931F93B7
:10192000DF93CF930F92CDB7DEB78C01698380919F
:10193000A302882369F083E0BE016F5F7F4F41E01F
:1019400050E00E944E141816190614F49C0107C0AA
:1019500081E090E0F8019383828320E030E0C901C8
:101960000F90CF91DF911F910F91089583E00E9416
:10197000251408950F931F93CF93DF938C01FC01DF
:101980000FC082E00E940B139C01FFEF8F3F9F0767
:1019900099F0F8018485E80FF11D2687F801C487C6
:1019A0008485C82FD0E02196CF73D070F80185854B
:1019B00090E0C817D90729F7DF91CF911F910F91B8
:1019C0000895FC0180818E5F808380E86CEA70E07E
:1019D00042E450E00E9424130895FC01818190812B
:1019E000913A59F4813209F04CC080E06CE972E020
:1019F00047E050E00E94241342C0913209F041C0F8
:101A0000803239F48CE992E067E070E00E940D14B6
:101A100036C0823209F035C082818093A302809162
:101A20009C0290919D02A0919E02B0919F02805BCA
:101A30009440A040B04019F58091A30280FD12C0EF
:101A400087E797E790930108809300082BE088E1EF
:101A500090E00FB6F894A895809360000FBE209395
:101A600060000DC088E10FB6F8948093600010927A
:101A700060000FBEA895109201081092000881E046
:101A8000089580E00895FC0191818081813A31F4CC
:101A9000913089F080E0933089F40DC0813269F48F
:101AA0009B3021F482818093A40205C09A3029F4EE
:101AB00082818093A50281E0089580E00895EF92ED
:101AC000FF920F931F938C01E62EDC01ED91FC91A8
:101AD0000480F581E02D0995F82ED801ED91FC9157
:101AE0000680F781E02DC8016E2D09958F2D90E0BD
:101AF0001F910F91FF90EF9008951092860310921E
:101B00008A031092890381EC92E09093880380937A
:101B100087030895EF92FF920F931F93DF93CF9364
:101B20000F92CDB7DEB789838B017A0184E0BE01C5
:101B30006F5F7F4F41E050E00E944E1484E4B80193
:101B4000A7010E944E140F90CF91DF911F910F912A
:101B5000FF90EF90089582E048E050E00E948A0DE7
:101B60000895FC011682178210861186128613864C
:101B700014823496BF010E94AB0D0895DC016838D1
:101B800010F0685829C0E62FF0E067FF13C0E05856
:101B9000F04081E090E002C0880F991FEA95E2F7DB
:101BA000809514962C911497282314962C931497AF
:101BB00060E012C0E459FE4F6491662319F420E0FE
:101BC00030E01DC067FF08C014968C9114978D7F7C
:101BD00014968C9314976F77FD0190E0662321F0A3
:101BE0008681861709F416829F5F31969630B1F789
:101BF000CD011496BD010E94AB0D21E030E0C9017A
:101C00000895CF93DF93DC01683810F0685825C041
:101C1000E62FF0E067FF12C0E058F04081E090E06E
:101C200002C0880F991FEA95E2F714962C91149739
:101C3000282B14962C93149760E00FC0E459FE4FA4
:101C400064916623D9F167FF08C014968C911497AC
:101C5000826014968C9314976F7716968C911697D2
:101C60008617A9F117968C911797861781F1189608
:101C70008C911897861759F119968C911997861798
:101C800031F11A968C911A97861709F11B968C914F
:101C90001B978617E1F0ED01E0E0F0E09E2F8E81CA
:101CA000882321F4EA0FFB1F668306C09F5F3196ED
:101CB0002196E630F10591F7963049F481E090E005
:101CC00013969C938E93129720E030E007C0CD01CD
:101CD0001496BD010E94AB0D21E030E0C901DF91F7
:101CE000CF91089580E86EEE70E045E650E00E94E6
:101CF00024130895FC0180818F5F808380E863E571
:101D000071E049E150E00E94241308951F920F9260
:101D10000FB60F9211242F933F934F938F939F935E
:101D2000EF93FF938091C80082FD19C04091CE00CF
:101D30008091B103282F30E02F5F3F4F2F73307019
:101D40008091B20390E02817390759F0E091B10370
:101D5000F0E0ED56FC4F42A32093B10302C0809106
:101D6000CE00FF91EF919F918F914F913F912F91D5
:101D70000F900FBE0F901F9018951F920F920FB6E5
:101D80000F9211242F938F939F93EF93FF93909132
:101D9000B3038091B403981731F48091C9008F7D0B
:101DA0008093C90010C0E091B403F0E0EB50FC4F09
:101DB00020818091B40390E001968F73907080939E
:101DC000B4032093CE00FF91EF919F918F912F91BB
:101DD0000F900FBE0F901F901895FC01268D878DD8
:101DE00030E0205C3F4F281B31092F733070C90150
:101DF0000895FC01968D878D981719F42FEF3FEF0A
:101E000006C0878DE80FF11D82A1282F30E0C9019F
:101E10000895DC015E969C915E975F968C915F972A
:101E2000981719F42FEF3FEF10C05F968C915F97D2
:101E3000FD01E80FF11D92A15F968C915F978F5F76
:101E40008F735F968C93292F30E0C9010895DC01D0
:101E50005D968C915D97882339F05096ED91FC91B9
:101E60005197808186FFF9CF5D961C920895DC0121
:101E700090968C919097282F30E02F5F3F4F2F73D3
:101E8000307091968C91919790E028173907C9F39B
:101E900090968C919097FD01E80FF11DEE59FF4F40
:101EA000608390962C9390975296ED91FC91539766
:101EB000208181E090E05B960C905B9702C0880FD8
:101EC000991F0A94E2F7282B208381E05D968C937A
:101ED0005D975096ED91FC9151978081806480834D
:101EE00081E090E00895109296031092950388EE99
:101EF00093E0A0E0B0E08093970390939803A093C1
:101F00009903B0939A038FEC92E09093940380939B
:101F100093031092B4038091B4038093B30310929F
:101F2000B2038091B2038093B1038DEC90E0909363
:101F3000A00380939F038CEC90E09093A203809386
:101F4000A10388EC90E09093A4038093A30389EC11
:101F500090E09093A6038093A5038AEC90E0909381
:101F6000A8038093A7038EEC90E09093AA0380933C
:101F7000A90384E08093AB0383E08093AC0387E004
:101F80008093AD0385E08093AE0381E08093AF033F
:101F900008958FED92E0909336048093350410926B
:101FA0003704109238041092390410923A040895BC
:101FB0008F929F92AF92BF92CF92DF92EF92FF9259
:101FC0000F931F93CF93DF934C016B017C01AA24E5
:101FD000BB24C0E0D0E0C601F70162814AE050E0D6
:101FE0000E94FB108C01C6016EE20E944410080F93
:101FF000191FA00EB11E21960894E11CF11CC330DC
:10200000D10549F7C601F40165814AE050E00E941C
:10201000FB109501280F391FC901DF91CF911F9146
:102020000F91FF90EF90DF90CF90BF90AF909F9077
:102030008F900895CF92DF92EF92FF920F931F93AC
:10204000CF93DF937C016B018A01C0E0D0E00FC029
:10205000D6016D916D01D701ED91FC910190F08158
:10206000E02DC7010995C80FD91F01501040011577
:10207000110571F7CE01DF91CF911F910F91FF9064
:10208000EF90DF90CF900895DC01ED91FC910190ED
:10209000F081E02D09950895EF92FF920F931F9321
:1020A0008C01DC01ED91FC910190F081E02D6DE05F
:1020B00009957C01D801ED91FC910190F081E02D12
:1020C000C8016AE009959C012E0D3F1DC9011F91B1
:1020D0000F91FF90EF900895CF93DF93EC0161157E
:1020E000710519F420E030E00FC0DB010D900020F5
:1020F000E9F71197A61BB70BE881F9810280F381FC
:10210000E02DAD0109959C01C901DF91CF910895A2
:102110004F925F927F928F929F92AF92BF92CF9297
:10212000DF92EF92FF920F931F93DF93CF93CDB780
:10213000DEB7A1970FB6F894DEBF0FBECDBF2C015E
:10214000742ECB01223008F42AE019A231E2C32E0A
:10215000D12CCC0EDD1E822E9924AA24BB24672DFF
:10216000752FA50194010E94CC2E79018A01C80126
:10217000B701A50194010E949A2E472D461B089491
:10218000C108D1084A3014F4405D01C0495CF60131
:102190004083E114F1040105110521F07E2C5F2D2F
:1021A000C801DDCFC201B6010E946C10A1960FB626
:1021B000F894DEBF0FBECDBFCF91DF911F910F917D
:1021C000FF90EF90DF90CF90BF90AF909F908F9057
:1021D0007F905F904F900895DC012115310541F407
:1021E000ED91FC910190F081E02D642F0995089507
:1021F0000E9488100895EF92FF920F931F939A0107
:10220000E62EFF2400E010E0B801A7010E94EC10C8
:102210001F910F91FF90EF900895CF92DF92EF9270
:10222000FF920F931F93CF93DF93EC016A017B0121
:102230002115310541F4E881F9810190F081E02D0B
:10224000642F09951FC02A303105D1F477FF17C0DC
:10225000E881F9810190F081E02D6DE209958C0112
:1022600044275527BA014C195D096E097F09CE0133
:102270002AE00E9488109801280F391F04C02AE024
:102280000E9488109C01C901DF91CF911F910F918D
:10229000FF90EF90DF90CF900895EF92FF920F9311
:1022A0001F937B019A010027F7FC0095102FB801BE
:1022B000A7010E940D111F910F91FF90EF900895BB
:1022C0000E946C1008957F928F929F92AF92BF925E
:1022D000CF92DF92EF92FF920F931F93CF93DF93F2
:1022E0004C017A018B01722ECB01BA01A801970132
:1022F0000E94F108882321F0C40160E071E021C050
:10230000C0E0D0E057016801E894D7F8C601B501F4
:102310002FEF3FEF4FE75FE70E94F108882351F46A
:10232000C601B5012FEF3FEF4FE75FE70E94C108FD
:10233000181614F0C1E0D0E0219739F0C40164E030
:1023400071E00E946C10EC0193C0C801B7012FEF3F
:102350003FEF4FE75FE40E943108181654F0C801C0
:10236000B7012FEF3FEF4FE75FEC0E949108882302
:1023700024F4C40168E071E0E4CFC801B70120E0B3
:1023800030E040E050E00E94910887FD03C0C0E0CB
:10239000D0E00EC0D401ED91FC910190F081E02DD0
:1023A000C4016DE20995EC0117FB109517F9109522
:1023B00020E030E040E05FE3DD240BC0CA01B9015A
:1023C00020E030E040E251E40E9485079B01AC012F
:1023D000D394D71498F3C801B7010E945E065B013D
:1023E0006C010E94B5047B018C01C401B801A701F6
:1023F0002AE030E00E94EC10C80FD91F772039F096
:10240000C4016CE071E00E946C10C80FD91FC801B4
:10241000B7010E94CE099B01AC01C601B5010E9423
:102420002D0624C020E030E040E251E40E948B06FB
:102430007B018C010E947A095B016C01CC24B7FC02
:10244000C094DC2CC401B601A5012AE030E00E9452
:102450000D11C80FD91FC601B5010E941C099B01AF
:10246000AC01C801B7010E942D067A947720D1F6FD
:10247000CE01DF91CF911F910F91FF90EF90DF90F0
:10248000CF90BF90AF909F908F907F9008950E94C3
:10249000631108958230B9F0833028F4882351F015
:1024A0008130F9F40AC08430B9F0843090F085307E
:1024B000C1F415C010926E00089580916F008D7F59
:1024C00080936F000895809170008D7F80937000DD
:1024D000089510927100089510927200089510925C
:1024E000730008951F920F920FB60F9211242F932D
:1024F0003F934F935F936F937F938F939F93AF938C
:10250000BF93EF93FF9380913B0490913C04A09183
:102510003D04B0913E040097A105B10551F1E09151
:102520003F04F09140048081909141048927808389
:1025300080913B0490913C04A0913D04B0913E04F5
:10254000181619061A061B060CF580913B0490918B
:102550003C04A0913D04B0913E040197A109B1094A
:1025600080933B0490933C04A0933D04B0933E04BD
:102570000DC083E00E944A12E0913F04F0914004B4
:10258000908180914104809589238083FF91EF9110
:10259000BF91AF919F918F917F916F915F914F917B
:1025A0003F912F910F900FBE0F901F901895282FDD
:1025B000809144048823C1F057FF1AC015C02898A1
:1025C000909343048091F1008193E217F307B9F7E8
:1025D0004115510539F08091F200882319F48BE6FA
:1025E0008093E800AFBF02C04FEF5FEFCA010895CC
:1025F000AFB7F89427702093E9008091F200282F5C
:1026000030E0241735070CF4A901FB019B01240FCE
:10261000311D94E6DACFDF93CF930F92CDB7DEB7BB
:10262000BE016F5F7F4F41E050E00E94D7120197DB
:1026300019F02FEF3FEF03C08981282F30E0C90147
:102640000F90CF91DF910895FF920F931F93F82E73
:10265000142F052F4091470450914804212F302F0B
:10266000C901DC01FB016EEF29C0F7FE02C09491A5
:1026700001C090812091450430914604241735070C
:10268000ACF48091E8008570E1F38091E80082FF6E
:1026900003C02FEF3FEF17C09093F100C9010196DF
:1026A0008F739070892B11F46093E8002F5F3F4F78
:1026B0003093460420934504119731961097A9F65C
:1026C000812F902F9C01C9011F910F91FF900895B8
:1026D0001F93782FE92F162F20914504309146043F
:1026E000A0914704B09148042A173B07C4F4809195
:1026F000E8008570E1F38091E80082FD16C0812F2B
:1027000090E00196880F991F8093F100C90101960E
:102710008F739070892B19F48EEF8093E8002F5FF0
:102720003F4F309346042093450420914504309157
:1027300046042A173B07A4F48091E8008570E1F372
:102740008091E80082FD12C083E08093F100C9010E
:1027500001968F739070892B19F48EEF8093E800A7
:102760002F5F3F4F3093460420934504409145042A
:1027700050914604872F9E2FFC0170E06EEF43C0FE
:1027800094914A175B07A4F48091E8008570E1F307
:102790008091E80082FF02C020E00DC09093F1001C
:1027A000CA0101968F739070892B11F46093E80031
:1027B0004F5F5F4F21E04A175B07A4F48091E80068
:1027C0008570E1F38091E80082FF02C080E00DC0D7
:1027D0001092F100CA0101968F739070892B11F449
:1027E0006093E8004F5F5F4F81E0319690E030E00A
:1027F00082239323892B31F450934604409345045C
:1028000080E009C07F5F711708F4BACF5093460487
:102810004093450481E01F9108959C018091E80058
:1028200082FFFCCFF901260F311D03C08091F1001A
:102830008193E217F307D1F7289884E68093430445
:102840008BEF8093E800CB0108958093E90080919D
:10285000F200882319F08AE38093E8000895089530
:102860001092440481E08093D70080EA8093D800DE
:1028700082E189BD09B400FEFDCF61E070E080E037
:1028800090E00E94571880E98093D8008CE08093F4
:10289000E2001092E000559A209A08955F926F929C
:1028A0007F928F929F92AF92BF92CF92DF92EF92E0
:1028B000FF920F931F93CF93DF93E82E842E752EF4
:1028C00080914404882371F18B01242F352FC90195
:1028D000EC01AAEFFA2EF7E09F2E9E20E0E45E2E98
:1028E0008E2D90E070E2A72EB12CA822B9226AE3C7
:1028F000662E50E4C52ED12CC822D92258C09FB7CD
:10290000F8949092E9008091E80085FD02C020E0F3
:1029100004C08091F200252D281B9FBF222361F463
:10292000FA9419F42FEF3FEF4DC061E070E080E0C2
:1029300090E00E9457183BC0822F90E0C817D9073B
:102940000CF42C2FC21BD1094FB7F8949092E900D8
:10295000A114B10421F406C01092F10021502223E9
:10296000D9F719C0E7FC03C0F801922F10C0C801C5
:10297000322F06C0FC010196E491E093F100315042
:102980003323C1F706C081918093F10091509923C0
:10299000D1F7020F111D8091E80085FF05C0209737
:1029A00029F4C114D10411F06092E8004FBF2097C0
:1029B00009F0A5CF5D9884E680934204282D372D39
:1029C000C9019C01C901DF91CF911F910F91FF9027
:1029D000EF90DF90CF90BF90AF909F908F907F90BF
:1029E0006F905F9008951F920F920FB60F9211246F
:1029F0002F933F934F935F936F937F938F939F9307
:102A0000AF93BF93EF93FF938091E1001092E100A9
:102A1000982F83FF0FC01092E90081E08093EB00B4
:102A20001092EC0082E38093ED001092440488E061
:102A30008093F00092FF34C083E08093E90080919E
:102A4000F200882319F08AE38093E8008FB7F894A6
:102A500092E09093E9009091F2008FBF992321F0CA
:102A600088E393E00E94BA0C80914204882351F0DD
:102A700080914204815080934204809142048823D3
:102A800009F45D9A80914304882351F080914304B6
:102A900081508093430480914304882309F4289A49
:102AA000FF91EF91BF91AF919F918F917F916F9126
:102AB0005F914F913F912F910F900FBE0F901F90FC
:102AC00018950F931F93DF93CF930F92CDB7DEB777
:102AD00019828E010F5F1F4FC8010E94E10CC801CF
:102AE0000E947A0E898190E00F90CF91DF911F9123
:102AF0000F9108951F920F920FB60F921124EF922B
:102B0000FF921F932F933F934F935F936F937F9306
:102B10008F939F93AF93BF93EF93FF93DF93CF93E5
:102B2000CDB7DEB76197DEBFCDBF1092E9008091CF
:102B3000E80083FF14C1FE0131969E01275F3F4FDD
:102B400003C08091F1008193E217F307D1F7289831
:102B500084E68093430482EF8093E800998197FF95
:102B600005C08091E80080FFFCCF03C08EEF80930A
:102B7000E800292F30E0C90180769070892B09F098
:102B8000C7C08A81882329F41092F1001092F100C5
:102B9000DBC0813009F4D8C0833009F4D5C085305A
:102BA00049F48091E80080FFFCCF8B81806880939E
:102BB000E300CAC0863009F081C01C81EF80F88430
:102BC0001230C1F51092E9001092460410924504AB
:102BD00010924804109247040E94611599E0FE018A
:102BE0003996DF01292F1D922A95E9F799871A87CF
:102BF00091E09E8790E8988B9AEF998B20914504FD
:102C000030914604275F3F4F3C872B878D8710927A
:102C1000E9001092460410924504F0924804E092B4
:102C2000470480E0BF0149E050E00E9424130E9465
:102C300061158AC01092E900109246041092450472
:102C4000F0924804E0924704123241F482E290E0AC
:102C50000E94720E892B09F47BC076C0113079F482
:102C600088E0E816F10419F481E08093490480912A
:102C70004904882309F070C0EDE0F2E018C0133079
:102C800009F066C08B81882319F4ECEEF1E00FC0E7
:102C9000823021F480EF91E060E106C0813009F0DC
:102CA00057C081E092E06BE00E9468134BC04491F2
:102CB00080E8BF0150E00E94241346C0873009F429
:102CC00047C0883021F481E08093F1003DC0893015
:102CD000D9F523703070232BD9F5E2E3F2E091E0CF
:102CE00031E026E39093E9003093EB0084918093E8
:102CF000EC002093ED009F5F3196953099F78EE7B9
:102D00008093EA001092EA008B81809344041CC0F7
:102D10008F8198851092E900109246041092450424
:102D200090934804809347048D81882329F4CE0131
:102D300001960E94ED0C06C0823051F4CE0101963E
:102D40000E94430D882321F08EEF8093E80007C096
:102D500081E28093EB0003C0EFE1F2E0A8CF61963F
:102D6000DEBFCDBFCF91DF91FF91EF91BF91AF91CA
:102D70009F918F917F916F915F914F913F912F9193
:102D80001F91FF90EF900F900FBE0F901F9018951E
:102D90001F920F920FB60F9211242F933F934F93D0
:102DA0005F936F937F938F939F93AF93BF93EF93B3
:102DB000FF9380914B0490914C04892B29F0E09172
:102DC0004B04F0914C040995FF91EF91BF91AF91A5
:102DD0009F918F917F916F915F914F913F912F9133
:102DE0000F900FBE0F901F9018951F920F920FB665
:102DF0000F9211242F933F934F935F936F937F9381
:102E00008F939F93AF93BF93EF93FF9380914D0464
:102E100090914E04892B29F0E0914D04F0914E04DD
:102E20000995FF91EF91BF91AF919F918F917F9104
:102E30006F915F914F913F912F910F900FBE0F9027
:102E40001F9018951F920F920FB60F9211242F9377
:102E50003F934F935F936F937F938F939F93AF9322
:102E6000BF93EF93FF9380914F0490915004892B6F
:102E700029F0E0914F04F09150040995FF91EF91F2
:102E8000BF91AF919F918F917F916F915F914F9182
:102E90003F912F910F900FBE0F901F9018951F928A
:102EA0000F920FB60F9211242F933F934F935F937E
:102EB0006F937F938F939F93AF93BF93EF93FF9302
:102EC0008091510490915204892B29F0E091510492
:102ED000F09152040995FF91EF91BF91AF919F91AD
:102EE0008F917F916F915F914F913F912F910F90B3
:102EF0000FBE0F901F9018951F920F920FB60F9252
:102F000011242F933F934F935F936F937F938F93EE
:102F10009F93AF93BF93EF93FF938091530490914E
:102F20005404892B29F0E0915304F091540409953D
:102F3000FF91EF91BF91AF919F918F917F916F9191
:102F40005F914F913F912F910F900FBE0F901F9067
:102F50001895089508951F920F920FB60F9211249D
:102F60002F933F938F939F93AF93BF938091590477
:102F700090915A04A0915B04B0915C0430915D047F
:102F80000196A11DB11D232F2D5F2D3720F02D5748
:102F90000196A11DB11D20935D0480935904909367
:102FA0005A04A0935B04B0935C0480915504909103
:102FB0005604A0915704B09158040196A11DB11D6B
:102FC0008093550490935604A0935704B0935804EB
:102FD000BF91AF919F918F913F912F910F900FBE15
:102FE0000F901F9018958FB7F89420915904309145
:102FF0005A0440915B0450915C048FBFB901CA012F
:103000000895789484B5826084BD84B5816084BD60
:1030100085B5826085BD85B5816085BDEEE6F0E051
:10302000808181608083E1E8F0E0108280818260AD
:103030008083808181608083E0E8F0E0808181602E
:103040008083E1E9F0E0808182608083808181601B
:103050008083E0E9F0E0808181608083E1ECF0E052
:1030600080818460808380818260808380818160B0
:103070008083E3ECF0E0808181608083E0ECF0E02D
:10308000808182608083E2ECF0E0808181608083D7
:10309000EAE7F0E0808184608083808182608083C1
:1030A0008081816080838081806880830895EF9231
:1030B000FF920F931F93CF93DF937B018C013FB758
:1030C000F8948091550490915604A0915704B091C2
:1030D000580426B5A89B05C02F3F19F00196A11DE5
:1030E000B11D3FBFBA2FA92F982F8827820F911D9E
:1030F000A11DB11D52E0880F991FAA1FBB1F5A9531
:10310000D1F7EC0130C00E94A9173FB7F894809125
:10311000550490915604A0915704B091580426B5D7
:10312000A89B05C02F3F19F00196A11DB11D3FBFFF
:10313000BA2FA92F982F8827820F911DA11DB11D8D
:1031400032E0880F991FAA1FBB1F3A95D1F78C1B3D
:103150009D0B885E9340B8F20894E108F1080109DC
:103160001109C851DC4FE114F1040105110559F6AC
:10317000DF91CF911F910F91FF90EF9008958231D1
:1031800008F08251E82FF0E0E654FD4FE4912091E1
:103190007B008E2F86958695869590E08170907045
:1031A00035E0880F991F3A95E1F72F7D282B209362
:1031B0007B00E7708091A6028295880F880F807C43
:1031C0008E2B80937C0080917A00806480937A00BB
:1031D00080917A0086FDFCCF2091780040917900A3
:1031E000942F80E030E0282B392BC9010895CF932C
:1031F000DF93482F50E0CA0182589D4FFC01349163
:10320000405A5D4FFA018491882369F190E0880F5C
:10321000991FFC01EA5CFD4FA591B491FC01EC5BA8
:10322000FD4FC591D491662351F42FB7F8948C913A
:10323000932F909589238C93888189230BC06230CA
:1032400061F42FB7F8948C91932F909589238C93E8
:103250008881832B88832FBF06C09FB7F8948C91F9
:10326000832B8C939FBFDF91CF910895883071F1AC
:10327000893068F4823031F1833020F4813009F0F4
:1032800042C01DC0833089F08430E9F512C08B3014
:1032900059F18C3028F48930E9F08A30A1F51EC04C
:1032A0008C3031F18E3079F529C0809180008F7794
:1032B00003C0809180008F7D80938000089584B545
:1032C0008F7702C084B58F7D84BD08958091900072
:1032D0008F7707C0809190008F7D03C08091900010
:1032E000877F8093900008958091C0008F7703C0FE
:1032F0008091C0008F7D8093C00008958091C200AE
:10330000877F8093C2000895FF920F931F93F62E3C
:10331000482F50E0CA0184569D4FFC012491CA01F8
:1033200082589D4FFC011491405A5D4FFA0104915F
:103330000023C9F0222319F0822F0E943619E02FB2
:10334000F0E0EE0FFF1FEC5BFD4FA591B4919FB72E
:10335000F894FF2021F48C911095812302C08C9168
:10336000812B8C939FBF1F910F91FF90089588230D
:1033700019F48CB5806202C08CB58F7D8CBD089528
:103380009CB5937F982B9CBD08952CB5382F337036
:103390002C7F322B3CBD2DB590E09595879595956A
:1033A000879581702E7F822B8DBD089581E161E02C
:1033B0000E94841981E161E00E94F7188CB5806158
:1033C0008CBD8CB580648CBD8FE061E00E94F718E5
:1033D00080E161E00E94F718089510926304109252
:1033E0006404109267041092690482E090E0A0E007
:1033F000B0E080936A0490936B04A0936C04B09344
:103400006D041092810410928B0410928A0485EE50
:1034100092E0909389048093880410928D0408951B
:103420000F931F93CF93DF93EC01462F61E00E942F
:10343000731C8823D1F08E01045F1F4FC801BE01A9
:1034400041E00E94FA20882339F4C801BE0140E01F
:103450000E94FA20882349F0CE018A96B8010E9482
:10346000431E882319F081E001C080E0DF91CF91F5
:103470001F910F910895FF920F931F93CF93DF93A6
:103480008B010E94F317EB01FF24FA94FEBC0DB4EC
:1034900007FEFDCF8EB58F3F11F481E008C00E947A
:1034A000F3176C1B7D0B6017710780F380E0DF91D1
:1034B000CF911F910F91FF900895FC01673020F08C
:1034C00086E1858380E008956330B9F0643028F4A4
:1034D000613069F0623070F407C06530A1F065308A
:1034E00078F06630A9F412C084E090E011C080E06A
:1034F00090E00EC085E090E00BC081E090E008C055
:1035000086E090E005C082E090E002C083E090E0B9
:103510000E94C51981E00895FC01848160E00E9449
:1035200084190895FC01848161E00E948419089542
:10353000DC016EBD0DB407FEFDCF8EB520E030E09E
:10354000FA01E20FF31F80818EBD0DB407FEFDCF9F
:103550008EB52F5F3F4F82E02030380789F78FEF1D
:103560008EBD0DB407FEFDCF8EB58FEF8EBD0DB4B1
:1035700007FEFDCF8EB58FEF8EBD0DB407FEFDCFDC
:103580008EB51A968C931A978F71853011F481E05D
:10359000089581E115968C931597CD010E94921A9A
:1035A00080E00895FF920F931F93CF93DF93EC0178
:1035B0000E94F3178B01FF24FA9409C00E94F317AD
:1035C000601B710B6D52714010F08FE00DC0FEBC9E
:1035D0000DB407FEFDCF8EB58A878F3F79F38E3FFE
:1035E00011F481E006C08DE08D83CE010E94921A15
:1035F00080E0DF91CF911F910F91FF900895CF93BD
:10360000DF93EC018E818823B1F02F8138854FEF55
:1036100005C04EBD0DB407FEFDCF8EB52F5F3F4FE9
:10362000C901019782509240A0F338872F83CE01C1
:103630000E94921A1E82DF91CF910895DF92EF923D
:10364000FF920F931F93CF93DF93EC01D62E790156
:103650008A010E94FF1ACE010E948C1ACE016CE2F0
:1036600071E00E943B1A8D2D80648EBD0DB407FE63
:10367000FDCF8EB528E130E0D801C701022E04C08D
:10368000B695A795979587950A94D2F78EBD0DB4F8
:1036900007FEFDCF8EB5285030408FEF283F38070A
:1036A00059F7DD2011F485E906C088E0D81611F439
:1036B00087E801C08FEF8EBD0DB407FEFDCF8EB53C
:1036C00090E02FEF2EBD0DB407FEFDCF8EB587FF26
:1036D00002C09150B9F78A87DF91CF911F910F9166
:1036E000FF90EF90DF900895CF92DF92EF92FF92DC
:1036F0000F931F93CF93DF93EC017A018B01690144
:10370000411551056105710511F482E137C08B85C2
:10371000833039F099E0EE0CFF1C001F111F9A95C1
:10372000D1F7CE0168E1A80197010E941E1B8823F2
:1037300011F084E023C0CE016EEFA6010E94981A1A
:103740008823E9F0CE0168E572E00E943B1A8823E5
:1037500011F485E113C0CE016DE020E030E040E0DF
:1037600050E00E941E1B882341F48FEF8EBD0DB4E4
:1037700007FEFDCF8EB5882379F084E18D83CE01DD
:103780000E94921A80E0DF91CF911F910F91FF90DC
:10379000EF90DF90CF900895CE010E94921A81E0C1
:1037A000F2CF8F929F92AF92BF92CF92DF92EF9221
:1037B000FF920F931F93CF93DF93EC015A016B019C
:1037C00049010115110509F470C0C801820F931F4A
:1037D0008150924008F064C08E81882371F0888106
:1037E0009981AA81BB81481759076A077B0729F489
:1037F0008F8198858816990610F5A882B982CA82A9
:10380000DB828B85833039F059E0AA0CBB1CCC1CC1
:10381000DD1C5A95D1F7CE0161E1A60195010E9408
:103820001E1B882319F083E08D833AC0CE010E94CD
:10383000D21A8823A9F118861F8281E08E838F8196
:1038400098852FEF06C02EBD0DB407FEFDCF3EB507
:10385000019688159905B8F398878F8320E030E0AA
:103860009FEF0BC09EBD0DB407FEFDCF8EB5F701D7
:10387000E20FF31F80832F5F3F4F2017310790F334
:103880002F813885200F311F38872F838985882322
:1038900019F02050324048F0CE010E94FF1A05C0B6
:1038A000CE010E94921A80E001C081E0DF91CF91A9
:1038B0001F910F91FF90EF90DF90CF90BF90AF904E
:1038C0009F908F900895EF92FF920F931F9379012D
:1038D00020E030E000E012E00E94D11B1F910F9128
:1038E000FF90EF900895BF92CF92DF92EF92FF92F8
:1038F0000F931F93CF93DF93EC01B62E1B8619868F
:103900001E821D824C830E94F3176B018C8161E043
:103910000E94F718CE010E94921A0E94D61983E0E5
:103920000E94C51980E09FEF9EBD0DB407FEFDCF3C
:103930002EB58F5F8A30C1F7CE010E948C1A09C064
:103940000E94F3176C197D09615D774010F081E0EA
:103950005EC0CE0160E020E030E040E050E00E9438
:103960001E1B182F8A87813059F7CE0168E02AEA9A
:1039700031E040E050E00E941E1B82FF02C01B8726
:1039800011C080E02FEF2EBD0DB407FEFDCF9EB518
:103990008F5F8430C1F79A879A3A11F082E037C07E
:1039A00082E08B878B85823021F0EE24FF24870113
:1039B0000FC0E12CF12C012D60E4162F09C00E94EC
:1039C000F3176C197D09615D774010F088E01FC026
:1039D000CE0167E320E030E040E050E00E941E1B93
:1039E000CE0169E2A80197010E941E1B8A878823E5
:1039F00031F78B85823031F5CE016AE320E030E08B
:103A000040E050E00E941E1B882339F086E08D8341
:103A1000CE010E94921A80E01CC08FEF8EBD0DB4C3
:103A200007FEFDCF8EB5807C803C11F483E08B8750
:103A300080E09FEF9EBD0DB407FEFDCF2EB58F5FDA
:103A40008330C1F7CE010E94921ACE016B2D0E94E5
:103A50005D1ADF91CF911F910F91FF90EF90DF9052
:103A6000CF90BF9008956F927F928F929F92AF9266
:103A7000BF92CF92DF92EF92FF920F931F93CF935B
:103A8000DF93EC017A018B012D81222309F480C0A0
:103A90008B899C89AD89BE8984179507A607B707CE
:103AA00008F476C085C0E114F1040105110549F45C
:103AB0001E821F82188619861A861B861C861D8602
:103AC00065C02A853B854C855D85EB8DFC8D8585A4
:103AD00090E00996215030404040504039014A0161
:103AE000082E04C096948794779467940A94D2F72A
:103AF0002F5F3F4F4F4F5F4F0894E108F1080109D6
:103B000011095701680104C0D694C794B794A794CB
:103B10008A95D2F70894E11CF11C011D111DA61411
:103B2000B704C804D90428F0211531054105510511
:103B300049F48F89988DA98DBA8D8E839F83A8872C
:103B4000B98716C0A618B708C808D90811C04E8191
:103B50005F81688579858B8D9C8D94010E94DB2225
:103B60000894A108B108C108D108882331F410C015
:103B700086E0882E912C8C0E9D1EA114B104C104E8
:103B8000D10429F7EA86FB860C871D8781E001C0F6
:103B900080E0DF91CF911F910F91FF90EF90DF9028
:103BA000CF90BF90AF909F908F907F906F9008952F
:103BB000223009F078CFE6CFCF93DF93EC01462F88
:103BC0006E857F85888999890E94BF20882319F492
:103BD00020E030E00AC08A89282F30E095E0220FEB
:103BE000331F9A95E1F727553B4FC901DF91CF91DC
:103BF00008950F931F93CF93DF938C01FC01858170
:103C00008823D9F1848187FF35C0C80161E00E9413
:103C1000DC1DEC01009789F1F8018581823040F4C8
:103C200083899489A589B6898C8F9D8FAE8FBF8F2C
:103C3000F8018789908D9B8F8A8F8789908DA18DC0
:103C4000B28DCD01AA27BB279D8B8C8BE091A70459
:103C5000F091A804309751F0BE016A5E7F4FCE010B
:103C600048960995888D998D9B8B8A8BF801848164
:103C70008F7784830E94842001C080E0DF91CF9100
:103C80001F910F9108950F931F93CF93DF93EC0132
:103C90008B018D81882309F041C0FB018789803128
:103CA000B1F482E08D831F8A188E198E1A8E808D52
:103CB000918DA0E0B0E045E0880F991FAA1FBB1FBF
:103CC0004A95D1F78B8B9C8BAD8BBE8B15C0803208
:103CD00029F583E08D83FB01428D538D648D758DB5
:103CE0004F8B588F698F7A8F9E012D5E3F4FC80191
:103CF0000E944E23882391F01C8F0B8F81E08C83D0
:103D00001E821F82188619861A861B861C861D86AF
:103D10001E861F86188A198A1A8A01C080E0DF91E0
:103D2000CF911F910F910895CF93DF93EC019C01E8
:103D30002A5F3F4F8B8D9C8D41E050E060E070E04A
:103D40000E94BD238823A1F08F89988DA98DBA8DFB
:103D50000097A105B10559F48E819F81A885B98589
:103D60008F8B988FA98FBA8F8C8180688C8381E02C
:103D7000DF91CF9108952F923F924F925F927F9261
:103D80008F929F92AF92BF92CF92DF92EF92FF926B
:103D90000F931F93DF93CF9300D000D000D0CDB707
:103DA000DEB76C01162F072F5E834D83DC0115965D
:103DB0008C911597813009F070C114968C9181FF18
:103DC0006CC18EC1F60143895489658976898285E3
:103DD0009385A485B58584179507A607B70731F0A5
:103DE000C6010E94331D882309F457C1812F902FEB
:103DF0009C0129012D803E8017C1D6015B96ED9173
:103E0000FC915C97DA01C90119E0B695A7959795E1
:103E100087951A95D1F774807A9478227FEF872E50
:103E200071E0972E82229322772009F04EC08114F0
:103E3000910409F04AC0D60116964D915D916D919D
:103E40007C911997411551056105710581F45796CB
:103E50008D919D910D90BC91A02D0097A105B1056C
:103E600049F1F60186839783A087B1872EC0CF01E1
:103E70009E012F5F3F4F0E94DB22882309F414C16B
:103E800029813A814B815C81D6015B96ED91FC9151
:103E90005C978789803129F088EF9FEFAFEFBFE013
:103EA00004C088EF9FEFA0E0B0E0281739074A0769
:103EB0005B0730F0C6010E94941E882331F4EDC0E8
:103EC000F601268337834087518780E092E0881986
:103ED000990951018215930508F45C01D6015B969E
:103EE000ED91FC915C971696ED90FD900D911C91D3
:103EF00019978EEF9FEFAFEFBFEFE80EF91E0A1F85
:103F00001B1F058404C0EE0CFF1C001F111F0A9428
:103F1000D2F786859785A089B189E80EF91E0A1F18
:103F20001B1FE70CF11C011D111D90E0A91692E06A
:103F3000B90651F58091A7029091A802A091A9021B
:103F4000B091AA028E159F05A007B10761F48FEF0B
:103F50009FEFAFEFBFEF8093A7029093A802A093CB
:103F6000A902B093AA028091A9069091AA06B8016D
:103F7000A70192010E94741B882309F48EC0A0E05F
:103F8000B2E04A0E5B1E3EC08114910409F5F601B1
:103F9000228533854485558583899489A589B68989
:103FA000281739074A075B0798F00E948420882366
:103FB00009F473C0E092A702F092A8020093A9024C
:103FC0001093AA028091AB0681608093AB0608C073
:103FD000C801B70141E00E94BF20882309F45DC0F9
:103FE000940127553B4FA9014A0D5B1DD201F901F0
:103FF00002C08D918193E417F507D9F7E21BF30B0B
:104000004E0E5F1E2A183B08950140E050E0F60175
:1040100082859385A485B585820F931FA41FB51F44
:1040200082879387A487B587D6011A962D913D91F3
:104030004D915C911D972114310409F0DECE539609
:104040008D919D910D90BC91A02D82179307A4078F
:10405000B50748F4F601238B348B458B568B84814E
:104060008068848311C08091A7049091A804892B53
:1040700059F08D819E81892B39F0D60114968C914F
:104080001497806814968C93F601848183FF0EC088
:10409000C6010E94F91D882349F481E090E0D60111
:1040A00013969C938E9312971E821D828D819E8102
:1040B00026960FB6F894DEBF0FBECDBFCF91DF912D
:1040C0001F910F91FF90EF90DF90CF90BF90AF9036
:1040D0009F908F907F905F904F903F902F9008958A
:1040E00082FD70CE83CEDF93CF930F92CDB7DEB734
:1040F0006983BE016F5F7F4F41E050E00E94BB1EAD
:104100000F90CF91DF9108958091AB06882399F1AC
:104110004091A7025091A8026091A9027091AA0251
:104120008091A9069091AA0629EA34E00E94741BA6
:10413000882319F14091AC065091AD066091AE060E
:104140007091AF06411551056105710591F080919F
:10415000A9069091AA0629EA34E00E94741B8823DC
:1041600061F01092AC061092AD061092AE0610925D
:10417000AF061092AB0681E0089580E00895DF92CB
:10418000EF92FF920F931F937B018C01D42E8091AD
:10419000A7029091A802A091A902B091AA028E153F
:1041A0009F05A007B107C1F00E9484208823D9F0A1
:1041B0008091A9069091AA06B801A70129EA34E0E6
:1041C0000E94631C882379F0E092A702F092A80273
:1041D0000093A9021093AA028091AB068D298093C7
:1041E000AB0681E001C080E01F910F91FF90EF903E
:1041F000DF9008958F929F92AF92BF92CF92DF92FD
:10420000EF92FF920F931F93CF93DF936C01142FC4
:104210007093AA066093A906442321F48824992464
:10422000540140C0453008F01CC160E070E080E0FF
:1042300090E040E00E94BF20882309F412C1C12F02
:10424000D0E02197FE0174E0EE0FFF1F7A95E1F7B1
:10425000E755FB4FE254FE4F8081EE5BF14090E06A
:104260008F779070892B09F0FCC0E653FE4F808158
:104270009181A281B38184369105A105B10508F42D
:10428000F0C064E0CC0FDD1F6A95E1F7C159D94F4A
:1042900088809980AA80BB8081149104A104B10414
:1042A00009F4DFC0C501B40140E00E94BF208823AB
:1042B00009F4D7C08091B4049091B5048050924025
:1042C00009F0CFC02091B904222309F4CAC080911B
:1042D000B7049091B804892B09F4C3C08091B60447
:1042E000882309F4BEC0F601228B8091B604848332
:1042F000158661E070E007C04F5FF60145874150C9
:10430000483008F0AEC0F6014585848190E09B01FD
:10431000042E02C0220F331F0A94E2F7821793077C
:1043200059F72091BF043091C0042115310519F0CF
:1043300040E050E008C02091CD043091CE0440917F
:10434000CF045091D004F6012583368347835087EC
:10435000E090B704F090B80400E010E0E80CF91C1D
:104360000A1D1B1DE38AF48A058B168B8091BA0403
:104370009091BB04918F808F6091B90470E080E0D0
:1043800090E00E949A2E6E0D7F1D801F911FF601F6
:10439000628F738F848F958F2091BA043091BB0404
:1043A00055E0220F331F5A95E1F721503E4F232F3E
:1043B0003327269540E050E0260F371F481F591F2E
:1043C00026873787408B518B8091BC049091BD0428
:1043D000009719F0A0E0B0E008C08091C904909166
:1043E000CA04A091CB04B091CC0485017401E21AF7
:1043F000F30A040B150BA8019701280F391F4A1F58
:104400005B1FF601058404C056954795379527959F
:104410000A94D2F72187328743875487253FFFE0EC
:104420003F07F0E04F07F0E05F0710F48CE006C0B4
:10443000255F3F4F4040504028F480E1F601878BD4
:1044400081E010C08091D5049091D604A091D7044A
:10445000B091D804F601828F938FA48FB58F80E23C
:10446000EECF80E0DF91CF911F910F91FF90EF9001
:10447000DF90CF90BF90AF909F908F9008954F9214
:104480005F926F927F928F929F92AF92BF92CF92E4
:10449000DF92EF92FF920F931F93CF93DF93EC0184
:1044A0006A017B012801390142305105610571051E
:1044B00008F46FC089859A85AB85BC850196A11DDE
:1044C000B11D84179507A607B70708F462C02B89AA
:1044D0003C894D895E898F89803129F499278F2DF8
:1044E0007E2D6D2D09C0C701B60117E09695879501
:1044F000779567951A95D1F74B015C01820E931E53
:10450000A41EB51E8091A7029091A802A091A902B5
:10451000B091AA0288169906AA06BB0639F0C50111
:10452000B40140E00E94BF20882399F18F89803137
:1045300049F4F601F070EE0FFF1FE755FB4F518273
:1045400040820DC0F601EF77F070EE0FFF1FEE0F07
:10455000FF1FE755FB4F4082518262827382809138
:10456000AB0681608093AB068A89823080F08D81B2
:104570009E81AF81B885880E991EAA1EBB1E8092AF
:10458000AC069092AD06A092AE06B092AF0681E066
:1045900001C080E0DF91CF911F910F91FF90EF90CC
:1045A000DF90CF90BF90AF909F908F907F906F9053
:1045B0005F904F900895CF92DF92EF92FF920F930A
:1045C0001F93CF93DF93EC017A018B0169018985F9
:1045D0009A85AB85BC850196A11DB11D84179507F1
:1045E000A607B70708F450C02B893C894D895E891E
:1045F0008F89803129F49927812F702F6F2D09C061
:10460000C801B701E7E09695879577956795EA9594
:10461000D1F7260F371F481F591F8091A70290918D
:10462000A802A091A902B091AA02281739074A0747
:104630005B0739F0CA01B90140E00E94BF2088231E
:1046400019F18F89803159F4F701F070EE0FFF1FD7
:10465000E755FB4F80819181A0E0B0E00EC0F701EB
:10466000EF77F070EE0FFF1FEE0FFF1FE755FB4FC8
:1046700080819181A281B381BF70F6018083918393
:10468000A283B38381E001C080E0DF91CF911F91CD
:104690000F91FF90EF90DF90CF9008954F925F922F
:1046A0006F927F928F929F92AF92BF92CF92DF9242
:1046B000EF92FF920F931F93DF93CF9300D000D020
:1046C000CDB7DEB76C0149835A836B837C83390194
:1046D000EE24FF2487012E010894411C511C812CDB
:1046E000A2E09A2EA12CB12C49815A816B817C8148
:1046F000C60192010E94DB22882351F1D501C40139
:10470000F601058404C0880F991FAA1FBB1F0A94D5
:10471000D2F7E80EF91E0A1F1B1F29813A814B812F
:104720005C818789803129F088EF9FEFAFEFBFE090
:1047300004C088EF9FEFA0E0B0E0281739074A07D0
:104740005B0790F2F301E082F1820283138381E040
:104750000F900F900F900F90CF91DF911F910F91BD
:10476000FF90EF90DF90CF90BF90AF909F908F9091
:104770007F906F905F904F9008952F923F924F924D
:104780005F926F927F928F929F92AF92BF92CF92E1
:10479000DF92EF92FF920F931F93DF93CF93CDB7EA
:1047A000DEB72F970FB6F894DEBF0FBECDBF1C014A
:1047B0004A875B876C877D873F872E87D9010D915C
:1047C0001D912D913C91011511052105310549F0EF
:1047D000480159010894811C911CA11CB11C198627
:1047E00010C0FC0180809180A280B38019868A85E8
:1047F0009B85AC85BD850197A105B10511F491E0BC
:104800009987D10119968D919D910D90BC91A02D04
:104810000196A11DB11D8D839E83AF83B88775015D
:1048200064014424552432018E010F5F1F4FF101B2
:1048300081859285A385B485481659066A067B064C
:1048400008F090C08D819E81AF81B8858C159D0543
:10485000AE05BF0550F482E0882E912CA12CB12C1E
:10486000B2E0CB2ED12CE12CF12CC101B701A60175
:1048700098010E94DB22882309F474C089819A81FF
:10488000AB81BC81A70196012F5F3F4F4F4F5F4F18
:104890000097A105B10519F049015A010DC0281969
:1048A00039094A095B098A859B85AC85BD8528172E
:1048B00039074A075B0759F00894411C511C611CD9
:1048C000711C0894C11CD11CE11CF11CB0CFC101AA
:1048D000A601B7010FEF1FEF2FEF3FE00E943F222D
:1048E000882399F43FC026013701089441085108F4
:1048F00061087108C101B301A201970186010E94FC
:104900003F22882379F1730162018C149D04AE0467
:10491000BF0448F3AE85BF854D915D916D917C914B
:10492000411551056105710539F0C10195018401F9
:104930000E943F228823B1F0EE85FF85808291821C
:10494000A282B382F985FF2359F00894811C911C3F
:10495000A11CB11CD1018D929D92AD92BC92139776
:1049600081E001C080E02F960FB6F894DEBF0FBE45
:10497000CDBFCF91DF911F910F91FF90EF90DF900E
:10498000CF90BF90AF909F908F907F906F905F90EF
:104990004F903F902F9008950F931F93182F092F3A
:1049A0000E942C2C812F902F61E00E94E52A1F91FC
:1049B0000F9108950F931F938C010E94312C8DEE5F
:1049C00092E0F8019183808380EA90E0918780876C
:1049D00080E890E0938782871F910F910895FC01F2
:1049E0001382128287E093E09183808375836483CE
:1049F000578346837187608753874287158A158658
:104A000014861786168621E0248B8FEF9FEF938BF9
:104A1000828B918B808B268B08952F923F924F92A1
:104A20005F926F927F928F929F92AF92BF92CF923E
:104A3000DF92EF92FF920F931F93DF93CF9300D0FB
:104A400000D0CDB7DEB73C017C836B836A0159018E
:104A5000FA82E982222433249801241B350B37FF84
:104A600003C0309521953F4FC5014B815C81841B6C
:104A7000950B97FF03C0909581959F4F82179307E1
:104A80005CF481E0282E312CC601CB80DC809C8335
:104A90008B83C80185015C018B819C81A816B906B6
:104AA00044F4C501AB80BC809C838B83C801860124
:104AB0006C012501AB81BC814A1A5B0A7801EC18B4
:104AC000FD08F7FE04C0F094E194F108F394C016D9
:104AD000D10624F088248A94982C03C0B1E08B2E50
:104AE000912CC20162E070E00E94B92E8B0125C0BA
:104AF000D301ED91FC912114310441F00480F58142
:104B0000E02DC301B6014B815C8107C00480F581B3
:104B1000E02DC3016B817C81A60129813A81099531
:104B20000E191F0917FF04C0C80CD91C040D151D50
:104B3000EB81FC813196FC83EB834B815C81A41675
:104B4000B506B4F60F900F900F900F90CF91DF91B4
:104B50001F910F91FF90EF90DF90CF90BF90AF909B
:104B60009F908F907F906F905F904F903F902F908D
:104B700008954F925F926F927F928F929F92AF9221
:104B8000BF92CF92DF92EF92FF920F931F936C012F
:104B90005B014A0139012801DC01ED91FC9102849D
:104BA000F385E02D87010995D601ED91FC91A401D3
:104BB00041505040440D551D0284F385E02DC6013F
:104BC000B50193010995D601ED91FC910084F18521
:104BD000E02DC601B501A40192010995D601ED9120
:104BE000FC910894A108B108A60CB71C0084F185BB
:104BF000E02DC601B501A401920109951F910F9105
:104C0000FF90EF90DF90CF90BF90AF909F908F90EC
:104C10007F906F905F904F900895CF92DF92EF92C8
:104C2000FF920F931F93DC016B017801ED91FC91D2
:104C30008A0101501040020F131F0680F781E02DFA
:104C4000960109951F910F91FF90EF90DF90CF9003
:104C50000895CF92DF92EF92FF920F931F93DC01A2
:104C60006A01C9017801ED91FC9111979B012150D6
:104C70003040280F391F0680F781E02DCD018601D5
:104C800009951F910F91FF90EF90DF90CF900895BD
:104C90006F927F928F929F92AF92BF92CF92DF924C
:104CA000EF92FF920F931F93CF93DF935C013A0132
:104CB00069014801EB01C60ED71E0DC0D501ED916B
:104CC000FC910084F185E02DC501BE01A301940192
:104CD000870109952196CC15DD0584F3DF91CF91ED
:104CE0001F910F91FF90EF90DF90CF90BF90AF900A
:104CF0009F908F907F906F900895EF92FF920F9307
:104D00001F93FC017B01A081B18120853185028543
:104D100013851E960D90BC91A02D60E070E040E0E0
:104D200050E0FD0109951F910F91FF90EF900895BC
:104D30002F923F924F925F926F927F928F929F92AB
:104D4000AF92BF92CF92DF92EF92FF920F931F9399
:104D5000DF93CF93CDB7DEB72F970FB6F894DEBFB2
:104D60000FBECDBF5C015E834D8318870F83FA862B
:104D7000E986CB86DC0118968D919C91199768176E
:104D800079070CF0A4C01A968D919C911B97481737
:104D900059070CF09CC0EC2DF0E0FF87EE87CF01A7
:104DA000880F991F8E0F9F1F880F991F860F971FBF
:104DB000181619060CF08BC0CF01F3E0880F991F6D
:104DC000FA95E1F7840F951F181619060CF07FC0AD
:104DD00085E0289FA00111245A8349832B011B01E0
:104DE0001C825C81553011F480E005C0E981FA81B4
:104DF000EA53FD4F84912C863D866D807E80430171
:104E00001B82C82EDD2480FF1CC0D501ED91FC91D2
:104E1000BB85B13049F40480F581E02DC501B201B4
:104E2000A3012F81388522C00684F785E02DC501B6
:104E30006C857D85A4012E853F858901EF80F884EE
:104E400023C0E985FA852F813885E217F307E9F059
:104E5000D501ED91FC91BB85B13051F40480F58111
:104E6000E02DC501B201A30129853A8509950DC040
:104E70000684F785E02DC5016C857D85A4012E850E
:104E80003F858901E984FA840995EB81EF5FEB8323
:104E90002E853F85820E931E0894611C711CE8309C
:104EA00021F0D594C7948C2DACCF3C813F5F3C83DF
:104EB0004E855F85240E351E0894411C511C898146
:104EC0009A8101969A838983363009F08ACF2F968A
:104ED0000FB6F894DEBF0FBECDBFCF91DF911F910B
:104EE0000F91FF90EF90DF90CF90BF90AF909F9089
:104EF0008F907F906F905F904F903F902F9008958C
:104F0000CF92EF92FF920F931F93CF93DF93EC0119
:104F1000262F6A3061F42C8930E003E0220F331F22
:104F20000A95E1F78E859F85820F931F37C06D30FC
:104F3000C9F16C857D854E855F8508891989EA8868
:104F4000FB88CC880E9498262C8986E0289FB00197
:104F500011248C859D85680F791F7D876C878E89CC
:104F6000882301F1422F50E08AEF9FEF9C01429F7E
:104F7000C001439F900D529F900D112428853985C3
:104F8000820F931F861797076CF413E0440F551F89
:104F90001A95E1F78E859F85840F951F9F878E87D1
:104FA0001D861C8681E090E0DF91CF911F910F91CB
:104FB000FF90EF90CF900895089550E04C7F50708F
:104FC00033E0440F551F3A95E1F730E093E0359513
:104FD00027959A95E1F7422B532B70E0687F70700C
:104FE000762F6627462B572BCA010895DC01ED91D9
:104FF000FC910088F189E02D099508950F931F9386
:105000008C01DC01ED91FC910488F589E02D099576
:10501000BC01C8010E94F6271F910F910895DC0181
:105020005E968C915E97882331F06EBD0DB407FEBD
:10503000FDCF8EB5089530E840E050E070E0832F5A
:1050400090E0862397235F96ED91FC9190979C9634
:105050002C919C97892B21F08081822B808304C026
:1050600080812095282320839196ED91FC91929741
:1050700080819D969C919D97892B80839196ED913F
:10508000FC91929790819D968C919D978095892314
:10509000808336954F5F5F4F4830510581F6089504
:1050A0000F931F938C01DC019596ED91FC919697DF
:1050B00090819F968C919F9780958923808393966A
:1050C000ED91FC91949790819E968C918095892387
:1050D0008083C8010E940F28D8019396ED91FC911E
:1050E000949780819E969C91892B80831F910F912C
:1050F00008950F931F938C01DC019596ED91FC911F
:10510000969780819F969C919F97892B80839396F9
:10511000ED91FC91949790819E968C918095892336
:105120008083C8010E940F28D8019396ED91FC91CD
:10513000949780819E969C91892B80831F910F91DB
:105140000895CF92DF92EF92FF920F931F937C010D
:10515000162FC42ED22E6AE20E945028C70160E0AA
:105160000E947928F70160A9610FC7010E94792880
:10517000C70160E00E947928F70160A96D0DC701A1
:105180000E947928C7016BE20E945028C70160E0A5
:105190000E947928F70161A96C0DC7010E94792846
:1051A000C70160E00E947928F70161A9600FC7017B
:1051B0000E947928C7016CE20E9450281F910F912C
:1051C000FF90EF90DF90CF900895EF92FF920F93B2
:1051D000CF93DF93EC01790177FD46C088859985EF
:1051E000681779070CF040C057FD3EC08A859B8543
:1051F00048175907CCF5262F2F5F042F0F5FCE01DC
:105200000E94A128EDA1FEA180819FA5892B80830A
:10521000EBA1FCA190818EA58095892380838D8D43
:105220008230A1F49701232F3327269526952695C2
:10523000C701982F8827990F990F990F40EE57E0D3
:10524000E422F522E82AF92AE22AF32ACE016F2D78
:105250000E940F28CE016E2D0E940F28EBA1FCA109
:1052600080819EA5892B8083DF91CF910F91FF9044
:10527000EF900895CF92DF92EF92FF920F931F93DA
:10528000CF93DF937C01FB016901E801DC011896F3
:105290008D919C911997681779070CF060C01A9648
:1052A0002D913C911B97421753070CF058C0C60133
:1052B000840F951F281739071CF46901C41AD50AF1
:1052C000042F01500C0DC7016E2F2E2F0E94A12814
:1052D000F701858D823091F49E01232F3327269587
:1052E00026952695CE01982F8827990F990F990F0B
:1052F000C07ED770C82BD92BC22BD32B8E01D701E0
:105300009596ED91FC91969780819F969C919F97A1
:10531000892B80839396ED91FC91949790819E9632
:105320008C9180958923808308C0C701612F0E94DA
:105330000F28C701602F0E940F280894C108D108C8
:10534000BFEFCB16BFEFDB0681F7D7019396ED9148
:10535000FC91949780819E969C91892B8083DF910C
:10536000CF911F910F91FF90EF90DF90CF90089514
:10537000CF92DF92EF92FF920F931F93CF93DF9321
:105380007C01FA016901E801DC0118962D913C913C
:105390001997621773070CF060C01A968D919C9153
:1053A0001B97481759070CF058C0C601860F971F66
:1053B000281739071CF46901C61AD70A262F21506D
:1053C0002C0DC7014E2F0E2F0E94A128F701858DAD
:1053D000823091F49E01232F33272695269526951A
:1053E000CE01982F8827990F990F990FC07ED770FB
:1053F000C82BD92BC22BD32B8E01D7019596ED91BB
:10540000FC91969780819F969C919F97892B808392
:105410009396ED91FC91949790819E968C918095B6
:105420008923808308C0C701612F0E940F28C7010C
:10543000602F0E940F280894C108D108BFEFCB1637
:10544000BFEFDB0681F7D7019396ED91FC9194971E
:1054500080819E969C91892B8083DF91CF911F91B3
:105460000F91FF90EF90DF90CF900895EF92FF9211
:105470000F931F93FC017B01A081B18120853185B1
:10548000028513851E960D90BC91A02D60E070E002
:1054900040E050E0FD0109951F910F91FF90EF90C2
:1054A00008958F929F92AF92BF92CF92DF92EF9228
:1054B000FF920F931F93CF93DF936C014901580123
:1054C000E701DC0118962D913C911997621773073B
:1054D0000CF06EC01A96ED91FC911B974E175F076A
:1054E0000CF066C0C401860F971F281739071CF4FB
:1054F0004901861A970AC501840F951FE817F90715
:105500001CF45F01A41AB50AF601858D823091F46E
:105510009E01232F3327269526952695CE01982F79
:105520008827990F990F990FC07ED770C82BD92B58
:10553000C22BD32B262F2150280D042F01500A0DEA
:10554000C6010E94A1287E01D6019596ED91FC919D
:10555000969780819F969C919F97892B80839396A5
:10556000ED91FC91949790819E968C9180958923E2
:10557000808385010EC0C6016F2D0E940F28C601D1
:105580006E2D0E940F2821971C161D06A4F30150B2
:1055900010401016110614F4E401F6CFD6019396CC
:1055A000ED91FC91949780819E969C91892B8083AC
:1055B000DF91CF911F910F91FF90EF90DF90CF90EF
:1055C000BF90AF909F908F9008951F93CF93DF93DC
:1055D000EC01162F66E30E94502813701D8B1130CA
:1055E00051F0113028F0123049F01330F1F411C0AD
:1055F000CE0168EC05C0CE0168EA0DC0CE0168E0BE
:105600000E94792880E890E09987888780EA90E076
:105610000AC0CE0168E60E94792880EA90E0998766
:10562000888780E890E09B878A87DF91CF911F91E0
:105630000895662311F460E201C061E20E945028DF
:105640000895AF92BF92CF92DF92EF92FF920F93A5
:105650001F93CF93DF935C01FB01EB012196D49064
:1056600031C08E010F5F1F4FFE016491C5010E9482
:10567000502878010894E11CF11CF801C4900C2D0D
:105680000F77E701102F08C0FE012196E491C501B4
:105690006E2F0E94792811501123B1F7E701C00F36
:1056A000D11DC7FE0EC0FE018491682F70E06F3FD0
:1056B000710511F464EF71E0219680E090E00E94A2
:1056C0005718DA94DD2069F6DF91CF911F910F9181
:1056D000FF90EF90DF90CF90BF90AF9008950F9321
:1056E0001F93CF93DF93EC018B0119AA18AA88A509
:1056F00061E00E94F7188FA161E00E94F718EFA106
:105700002E2F30E0F901E05AFD4FE491F0E0EE0F6A
:10571000FF1FEC5BFD4F859194919CA38BA32258B6
:105720003D4FF90184918EA7E8A52E2F30E0F901B5
:10573000E05AFD4FE491F0E0EE0FFF1FEC5BFD4FF0
:10574000859194919EA38DA322583D4FF901849198
:105750008FA78E8D882361F00E94D61980E00E9469
:10576000C51981E00E94B71980E00E94C0193DC0B0
:105770008BA561E00E94F7188AA561E00E94F718E6
:10578000EBA58E2F90E0FC01E05AFD4FE491F0E094
:10579000EE0FFF1FEC5BFD4FA591B491BAA3A9A337
:1057A00082589D4FFC0144914DA7EAA52E2F30E071
:1057B000F901E05AFD4FE491F0E0EE0FFF1FEC5BC2
:1057C000FD4F8591949198A38F8F22583D4FF901F9
:1057D00084918CA78C91409548234C93EF8DF8A130
:1057E00090818CA5809589238083EBA1FCA1908179
:1057F0008EA580958923808389A5882309F161E09E
:105800000E94F71889A561E00E94841964EF71E095
:1058100080E090E00E94571889A560E00E948419FA
:1058200064EF71E080E090E00E94571889A561E084
:105830000E94841964EF71E080E090E00E945718A4
:105840000115110521F0CE01B8010E94212BDF9135
:10585000CF911F910F91089561E478E00E946F2B22
:105860000895DF92EF92FF920F931F938C01F62E13
:10587000E42ED22E60E870E040EA50E00E94EF246F
:1058800081E293E0F80191838083F7A2E0A6D1A69C
:1058900081E0868F13A612A61F910F91FF90EF90C3
:1058A000DF90089508950895FC016038710510F4A3
:1058B000718360830895FC017583648357834683F5
:1058C00008958F929F92AF92BF92CF92DF92EF9204
:1058D000FF920F931F934C015A016B01FC01E4806E
:1058E000F580668177816E197F09882777FD80951D
:1058F000982F0E941C099B01AC01C601B5010E94B2
:105900008B0620E030E048EC52E40E9485075B0102
:105910006C010027F7FC0095102FC801B7010E9409
:105920001C099B01AC01C601B5010E945E060E94E4
:105930003F2F0E947A09F40173836283C4011F918F
:105940000F91FF90EF90DF90CF90BF90AF909F901E
:105950008F900895AF92BF92CF92DF92EF92FF9215
:105960000F931F93CF93DF938C0182960E94592D42
:105970006B017C015801C8010E94012D8C01C0E01F
:10598000D0E00BC0C501BE010E94052DB701A601E4
:105990000E94612C0E94712E2196C017D10794F3AA
:1059A000DF91CF911F910F91FF90EF90DF90CF90FB
:1059B000BF90AF9008950F931F930E94102D1F91D9
:1059C0000F9108950E94F92C08950F931F938C0155
:1059D00063E070E00E943A2DC801829660E070E0BA
:1059E00020E030E040EA50E40E94A72D1F910F9183
:1059F0000895FC01CB010197039710F4718760872C
:105A00000895FC0180859185089523E0660F771F36
:105A10002A95E1F7665F7F4F680F791FCB010895E4
:105A2000EF92FF920F931F93CF93DF93FC01E90155
:105A3000780177FD18C080859185861797079CF0BF
:105A40008B0133E0000F111F3A95E1F7065F1F4FFE
:105A50000E0F1F1FC801BA010E94542CC801BE01BD
:105A6000A7010E945B2CDF91CF911F910F91FF90B6
:105A7000EF9008950F931F93CF93DF93EC018B0169
:105A80000E94522CCE010A960E94532CCE014296BF
:105A90000E94532CCE014A960E94532CC8010197B4
:105AA000039710F419870887DF91CF911F910F9109
:105AB0000895AF92BF92CF92DF92EF92FF920F9331
:105AC0001F936C01FC0180810E94BF18F601938333
:105AD0008283AA2797FDA095BA2FBC01CD010E9411
